:100000000C9479160C94AA160C94AA160C94AA16A1
:100010000C94AA160C94AA160C94AA160C94AA1660
:100020000C94AA160C9475AD0C9475AD0C9475AD2A
:100030000C94AA160C94AA160C94AA160C94AA1640
:100040000C94AA160C94112D0C94AA160C94AA16B2
:100050000C94AA160C94AA160C9462220C942BAD44
:100060000C94AA160C9462990C94AA160C94AA16D5
:100070000C94AA160C94AA160C94AA160C94AA1600
:100080000C94922E0C94AA160C94AA160C94AA16F0
:100090000C94AA160C94AA160C94AA160C94AA16E0
:1000A0000C94AA160C94AA160C94642E0C94AA16FE
:1000B0000C94AA160C94AA160C94AA160C94362E1C
:1000C0000C94AA160C94AA160C94AA160C94AA16B0
:1000D0000C94AA160C94AA160C94AA160C94AA16A0
:1000E0000C94AA16084AD73B3BCE016E84BCBFFDD8
:1000F000C12F3D6C74319ABD56833DDA3D00C77FF8
:1001000011BED9E4BB4C3E916BAAAABE0000008090
:100110003F05A84CCDB2D44EB93836A9020C50B91F
:10012000918688083CA6AAAA2ABE000000803F004B
:100130000C94FBA20C94D2390C94FAB00C94CBAE74
:100140000C94319A0C9428A30C9407B10C940BB026
:100150000C94449A0C94239A0C949CB30C94199A82
:100160000C941F9A0C943F9A0C94C9B00C94129A58
:100170000C94193B0C9453B00C94169B0C948EB0B9
:100180000C9405A30C9446A30C940A9A0C9492B078
:100190000C946AAE0C949BB00C94DFA20C94F53ACC
:1001A0000C94CDA20C94159B0C948A9B0C94E5AFF7
:1001B0000C9413B00C9414A30C94379A0C943EB185
:1001C0000C943B9A0C9417B00C94DC9B0C943EB0AE
:1001D0000C9421B10C94B1AE0C9432A30C94013B5D
:1001E0000C94FD9A0C94E5B00C942C3B0C943CA31D
:1001F0000C94E2390C9441AF0C947DAE0C94CDAFCD
:100200000C94C3A20C94B9A20C948AAE0C940E9ACE
:100210000C94499A0C9455B10C94D7A20C94143BAD
:100220000C942D9A0C94313B0C94DDAE0C94299ACD
:100230000C9459AE0C946FB00C941EA30C94B4A201
:100240000C94459A0C94A4AE0C94049A0C94729B52
:100250000C9429B00C94169A0C94F1A20C9497AEBD
:100260000C94ACA20C94B9990C94BEAE0C94E7A279
:100270004E414E494E495459494E46CDCCCC3D0A8B
:10028000D7233C17B7D13877CC2B329595E6241F6E
:10029000B14F0A000020410000C84200401C462027
:1002A000BCBE4CCA1B0E5AAEC59D744534004533C6
:1002B000004532004531004530005A3200593200C5
:1002C0005832005A00590058002569730025696D9D
:1002D00020256973002569682025696D20256973CB
:1002E00000256964202569682025696D20256973CA
:1002F0000025697920256964202569682025696DB4
:1003000020256973002C20002C2000203A207379CE
:100310006E635F706C616E5F706F736974696F6E2E
:100320000A00202063757272656E745F706F736966
:1003300074696F6E3D00656E7175657565696E6790
:100340002022005072696E7465722073746F707031
:1003500065642064756520746F206572726F7273B6
:100360002E2046697820746865206572726F72204D
:10037000616E6420757365204D39393920746F20A2
:10038000726573746172742E202854656D70657285
:1003900061747572652069732072657365742E20AF
:1003A0005365742069742061667465722072657388
:1003B00074617274696E67290A004E6F2043686524
:1003C000636B73756D2077697468206C696E652046
:1003D0006E756D6265722C204C617374204C696E71
:1003E000653A2000636865636B73756D206D697392
:1003F0006D617463682C204C617374204C696E6568
:100400003A20004C696E65204E756D6265722069F8
:1004100073206E6F74204C617374204C696E65207C
:100420004E756D6265722B312C204C617374204CBB
:10043000696E653A20004D3131300020496E766199
:100440006C696420657874727564657220000000C0
:10045000000000000000000000000000C843000091
:10046000C8430000CD430A20736F66745F656E64F5
:1004700073746F705F6D6178203D20000A20736F88
:1004800066745F656E6473746F705F6D696E203D36
:1004900020000A20706F736974696F6E5F736869FA
:1004A0006674203D200020617869733A0A20686FE5
:1004B0006D655F6F6666736574203D2000466F72E0
:1004C00020003C3C3C20646F5F626C6F636B696E24
:1004D000675F6D6F76655F746F0A003E3E3E206415
:1004E0006F5F626C6F636B696E675F6D6F76655F80
:1004F000746F00203A2073657475705F666F725F69
:10050000656E6473746F705F6F725F70726F626537
:100510005F6D6F76650A00202063757272656E7478
:100520005F706F736974696F6E3D00203A20636C71
:1005300065616E5F75705F61667465725F656E643C
:1005400073746F705F6F725F70726F62655F6D6FF3
:1005500076650A00202063757272656E745F706F35
:10056000736974696F6E3D00646F5F70726F62656E
:100570005F726169736528006465706C6F793A20F9
:1005800000203A207365745F70726F62655F646506
:10059000706C6F7965640A00202063757272656EF5
:1005A000745F706F736974696F6E3D00203A203C10
:1005B0003C3C20646F5F70726F62655F6D6F766543
:1005C0000A00202063757272656E745F706F7369C4
:1005D00074696F6E3D00203A203E3E3E20646F5F9E
:1005E00070726F62655F6D6F76650A0020206375BB
:1005F0007272656E745F706F736974696F6E3D00BF
:1006000072657365745F6265645F6C6576656C0ABC
:10061000002028646F6E65290A0045787472617045
:100620006F6C617465205B0042696C696E65617214
:10063000204C6576656C696E6720477269643A0A7A
:10064000003C3C3C20646F5F686F6D696E675F6D56
:100650006F766528005B00290A002C20002C200002
:100660003E3E3E20646F5F686F6D696E675F6D6FC1
:1006700076652800202864697361626C6564290AC4
:100680000041424C2041646A7573746D656E74203C
:100690005A0020480020570020590042696C696EBA
:1006A00065617220477269642058002028656E6178
:1006B000626C6564290A0042494C494E454152002A
:1006C0004175746F20426564204C6576656C696E77
:1006D000673A200020262053616D65205A206173FF
:1006E00000204E6F7A7A6C65290A0020262041622C
:1006F0006F76650020262042656C6F77002D426181
:10070000636B002028526967687400205A3A002001
:10071000593A0050726F6265204F666673657420A7
:10072000583A004649585F4D4F554E5445445F5026
:10073000524F42450A0050726F62653A2000436F83
:1007400072650A004D616368696E65205479706551
:100750003A20003C3C3C204732390A0020636F724B
:10076000726563746564205A3A0047323920756EA9
:10077000636F72726563746564205A3A00203A2090
:100780003E2070726F62696E6720636F6D706C657A
:1007900074650A00202063757272656E745F706FF5
:1007A000736974696F6E3D00202844525952554E4A
:1007B0002900473239204175746F20426564204C0E
:1007C0006576656C696E67003F20284C2C522C467C
:1007D0002C4229206F7574206F6620626F756E64DD
:1007E000732E0A003F2856296572626F7365206C6C
:1007F0006576656C20697320696D706C61757369CD
:10080000626C652028302D34292E0A004261642054
:100810005A2076616C75650A004E6F2062696C69BA
:100820006E65617220677269640A003C3C3C204737
:1008300032390A003E204175746F2D6C6576656C07
:10084000206E6F74206E65656465642C20736B691F
:10085000700A004732380A473239003E204E6F7422
:1008600020686F6D65642E20456E717565756569CC
:100870006E672047323820666F6C6C6F7765642036
:100880006279204732390A00203A203E3E3E204716
:1008900032390A00202063757272656E745F706F62
:1008A000736974696F6E3D0050726F74656374652F
:1008B000642050696E0A005374616E646172642032
:1008C000446576696174696F6E3A20002052616EEA
:1008D00067653A2000204D61783A2000204D696E0E
:1008E0003A20004D65616E3A200046696E69736872
:1008F0006564210A002072616E67653A2000206DF0
:1009000061783A2000206D696E3A20002073696793
:100910006D613A2000206D65616E3A20003A207AC0
:100920003A2000206F662000205A002059002058ED
:1009300000476F696E6720746F3A00436C6F636B9A
:10094000776973650A00436F756E7465722D0020B8
:10095000446972656374696F6E3A200020202061DB
:100960006E676C653A20005374617274696E67201B
:100970007261646975733A2000506F736974696FAE
:100980006E696E67207468652070726F62652E2EC6
:100990002E0A003F4E756D626572206F66206C6591
:1009A000677320696E206D6F76656D656E74206E5D
:1009B0006F7420706C61757369626C652028302DCE
:1009C0003135292E0A003F2028582C5929206F75CF
:1009D00074206F6620626F756E64732E0A003F5339
:1009E000616D706C652073697A65206E6F7420701C
:1009F0006C61757369626C652028342D3530292E41
:100A00000A004D3438205A2D50726F6265205265AD
:100A1000706561746162696C69747920546573747E
:100A20000A003F2856296572626F7365206C6576EF
:100A3000656C20697320696D706C61757369626C97
:100A4000652028302D34292E0A0020573A002057DF
:100A50003A00205A3A0020423A0020436F756E74E3
:100A600020413A0020453A00205A3A0020593A00E5
:100A7000583A003A004361703A00205A0020590069
:100A8000580020204D61783A2000205A002059005B
:100A9000580020204D696E3A20004F6E20004F66AE
:100AA0006600536F667420656E6473746F70733A7A
:100AB0002000496E76616C69642065787472756493
:100AC00065720A0020643A0020693A0020703A00FA
:100AD000426564204C6576656C696E6720004661EE
:100AE000696C656420746F20656E61626C6520427C
:100AF0006564204C6576656C696E670A00496E76A0
:100B0000616C69642065787472756465720A00416D
:100B100063746976652045787472756465723A20ED
:100B200000203A204D6F7665206261636B0A0020D9
:100B30002064657374696E6174696F6E3D002C206A
:100B4000636F727265637465642063757272656E3B
:100B5000745F706F736974696F6E5B5A5F41584957
:100B6000535D3D0046573A2053746F70205A2063FE
:100B7000726173682C2065787065637465642063A6
:100B8000757272656E745F706F736974696F6E5B96
:100B90005A5F415849535D3D00207D0A002C2000DA
:100BA0004F666673657420546F6F6C2058592062CD
:100BB00079207B200046573A204368616E67696E52
:100BC000672064657374696E6174696F6E5B585FEA
:100BD000415849535D20746F2073746F70206372A5
:100BE0006173682C2064657374696E6174696F6EDB
:100BF0005B585F415849535D3D002C2073746F7002
:100C00005F785F63726173683D0046573A20746D88
:100C1000705F785F6D6F76653D002C2073746F7028
:100C20005F7A5F63726173683D0046573A20746D66
:100C3000705F7A5F6D6F76653D004E6F206D6F76E9
:100C400065206F6E20746F6F6C6368616E67650AF4
:100C500000526573656E643A200020746F6F206CDB
:100C60006F6E6720657874727573696F6E2070722D
:100C70006576656E7465640A0020636F6C64206538
:100C80007874727573696F6E2070726576656E74B4
:100C900065640A00627573793A20706175736564E2
:100CA00020666F7220696E7075740A0062757379C0
:100CB0003A2070617573656420666F722075736584
:100CC000720A00627573793A2070726F636573738C
:100CD000696E670A004B494C4C206361757365640B
:100CE00020627920746F6F206D75636820696E6172
:100CF00063746976652074696D65202D2063757253
:100D000072656E7420636F6D6D616E643A200020B1
:100D100020506C616E6E65724275666665724279CE
:100D20007465733A20002046726565204D656D6FCD
:100D300072793A2000436F6D70696C65643A204A9D
:100D4000756E20313220323032310A00207C204151
:100D50007574686F723A20467261636B74616C20BF
:100D6000576F726B730A00323032312D30362D31AD
:100D7000312031353A353800204C6173742055707C
:100D800064617465643A20004275696C643A204A73
:100D90003230445F3231303630325F313535385F92
:100DA00047560A00467261636B74616C20576F721C
:100DB0006B7320566F6C7465727261206C696B6521
:100DC000204A756C69612050726F204475616C20F7
:100DD00041424C20323456207769746820544D4388
:100DE0005F434D54492076657273696F6E0A003116
:100DF0002E312E390A004D61726C696E0020536FDE
:100E00006674776172652052657365740A002057B5
:100E100061746368646F672052657365740A0020AB
:100E200042726F776E206F75742052657365740A15
:100E3000002045787465726E616C2052657365742C
:100E40000A00506F77657255700A0073746172748E
:100E50000A00206472697665722063757272656E2D
:100E6000743A200020737465616C746843686F7015
:100E7000206D61782073706565643A20003C3C3CCD
:100E8000207365745F617869735F69735F61745F14
:100E9000686F6D652800203A200A00202063757273
:100EA00072656E745F706F736974696F6E3D005D1B
:100EB000203D20003E20686F6D655F6F666673653C
:100EC000745B003E3E3E207365745F617869735FBA
:100ED00069735F61745F686F6D6528000000484248
:100EE000000048420000A041000000005761726EFF
:100EF000696E673A20486F6D696E672042756D7044
:100F00002044697669736F72203C20310A00020226
:100F1000040000A0400000A040000000400000C805
:100F2000430000C8430000CD433C3C3C20686F6D4B
:100F300065617869732800203A203E204146544577
:100F400052207365745F617869735F69735F617460
:100F50005F686F6D650A00202063757272656E743C
:100F60005F706F736974696F6E3D00486F6D6520C7
:100F70003220536C6F773A0A004D6F7665204177C7
:100F800061793A0A00486F6D6520312046617374BB
:100F90003A0A003E3E3E20686F6D656178697328AD
:100FA00000486F74656E64206F6666736574733A8B
:100FB000006F6B004572726F722077726974696E90
:100FC0006720746F20454550524F4D210A0045451A
:100FD00050524F4D206461746173697A6520657267
:100FE000726F722E0A00290A002062797465733BC1
:100FF00020637263200053657474696E67732053B5
:10100000746F726564202800290A00206279746573
:10101000733B2063726320002073746F72656420D9
:1010200073657474696E677320726574726965762E
:101030006564202800202863616C63756C617465A9
:101040006429210A0020213D2000454550524F4D82
:1010500020435243206D69736D61746368202D20B5
:101060002873746F7265642920002053697A653A89
:101070002000496E6465783A2000204D61726C69E9
:101080006E3D563535290A0028454550524F4D3D95
:1010900000454550524F4D2076657273696F6E2042
:1010A0006D69736D61746368200048617264636F79
:1010B0006465642044656661756C7420536574745E
:1010C000696E6773204C6F616465640A00DC05001B
:1010D00000DC050000320000001027000000009630
:1010E00043000096430000A041000034420000C8C5
:1010F000420000C842F0F7FB4300000C4320204DA3
:101100003930360020204D393133003A0A0020288A
:101110006D6D2900205431204500205430204500B9
:10112000205A0020590020580048796272696420D2
:101130005468726573686F6C643A0A0020543120F9
:101140004500205430204500205A002059002058E6
:1011500000537465707065722064726976657220E0
:1011600063757272656E743A0A0020204D3835310D
:10117000205A005A2D50726F6265204F6666736563
:10118000740020440020490020204D33303120508D
:101190000020440020490020500020204D333031F1
:1011A0002045005049442073657474696E67733A32
:1011B0000A00205A00204A002020473239205720B8
:1011C000490020204D3432302053004175746F2087
:1011D000426564204C6576656C696E673A0A00204A
:1011E0005A0020590020580020204D323138205418
:1011F00000486F74656E64206F6666736574733A39
:101200000A00205A0020590020204D323036205844
:1012100000486F6D65206F66667365743A0A00203A
:101220004A0020540020530020204D323035204207
:1012300000204A3C6A756E635F6465763E004164D7
:1012400076616E6365643A20423C6D696E5F7365DA
:10125000676D656E745F74696D655F75733E20536D
:101260003C6D696E5F66656564726174653E2054AD
:101270003C6D696E5F74726176656C5F666565640E
:10128000726174653E0020540020520020204D32CF
:101290003034205000416363656C65726174696F1E
:1012A0006E2028756E6974732F7332293A20503C72
:1012B0007072696E745F616363656C3E20523C724C
:1012C0006574726163745F616363656C3E20543C56
:1012D00074726176656C5F616363656C3E0A0020C1
:1012E0004500205A0020590020204D32303120582E
:1012F000004D6178696D756D20416363656C657241
:101300006174696F6E2028756E6974732F7332294A
:101310003A0A00204500205A0020590020204D3272
:1013200030332058004D6178696D756D20666565B4
:101330006472617465732028756E6974732F7329E4
:101340003A0A00204500205A0020590020204D393B
:101350003220580053746570732070657220756E6A
:1013600069743A0A0020204D3230302044300A009F
:1013700020204D32303020543120440020204D3286
:1013800030302044002044697361626C65640A0057
:1013900046696C616D656E742073657474696E67FF
:1013A000733A002020473231202020203B007A5F12
:1013B00070726F62653A20007A5F6D61783A200042
:1013C000795F6D61783A2000785F6D696E3A200030
:1013D0005265706F7274696E6720656E6473746FA6
:1013E00070207374617475730A00000000010000BE
:1013F00000010000800055555500000040003333C7
:101400003300AAAA2A004992240000002000C771D4
:101410001C0099991900D1451700555515003BB18D
:1014200013002449120011111100000010000F0FC9
:101430000F00E3380E0043790D00CCCC0C00C33014
:101440000C00E8A20B0064210B00AAAA0A00703D60
:101450000A009DD80900427B090092240900DCD3D0
:101460000800888808001042080000000800F0C149
:1014700007008787070075500700711C07003EEBC7
:101480000600A1BC06006990060066660600703E74
:1014900006006118060017F4050074D105005BB062
:1014A0000500B290050062720500555505007839B7
:1014B0000500B81E0500050505004EEC040087D4A4
:1014C0000400A1BD040090A7040049920400C17D5E
:1014D0000400EE690400C7560400444404005C3272
:1014E00004000821040041100400000004003FF043
:1014F0000300F8E0030026D20300C3C30300CCB509
:1015000003003AA803000A9B0300388E0300C08141
:1015100003009F750300D0690300505E03001D5354
:10152000030034480300913D0300333303001629C0
:101530000300381F030097150300300C030003035A
:1015400003000BFA020049F10200BAE802005CE075
:1015500002002DD802002DD0020059C80200B0C0F0
:10156000020031B90200DAB10200AAAA0200A0A367
:101570000200BC9C0200FA9502005C8F0200DF882A
:10158000020082820200457C02002776020027705A
:101590000200436A02007C640200D05E02003F59F0
:1015A0000200C853020020746F6F206C6F6E6720BA
:1015B000657874727573696F6E2070726576656E8A
:1015C0007465640A0020636F6C64206578747275BA
:1015D00073696F6E2070726576656E7465640A005B
:1015E000FFFDFCFAF8F6F4F2F0EEECEAE9E7E5E3E9
:1015F000E1E0DEDCDAD9D7D5D4D2D0CFCDCBCAC8A2
:10160000C7C5C3C2C0BFBDBCBAB9B7B6B4B3B2B028
:10161000AFADACAAA9A8A6A5A4A2A1A09E9D9C9A84
:1016200099989795949392908F8E8D8B8A898887BD
:101630008684838281807F7E7D7B7A7978777675D8
:1016400074737271706F6E6D6C6B6A6968676665D2
:1016500064636261605F5E5D5C5B5A5958585756BF
:10166000555453525150504F4E4D4C4B4A4A494895
:10167000474646454443424241403F3E3E3D3C3B57
:101680003B3A393838373635353433323231303009
:101690002F2E2E2D2C2B2B2A2929282727262525AE
:1016A00024232322212120201F1E1E1D1C1C1B1B46
:1016B0001A191918181716161515141313121211D2
:1016C00011100F0F0E0E0D0D0C0C0B0A0A09090854
:1016D00008070706060505040403030202010000CB
:1016E00046696C616D656E7420757365643A20009F
:1016F00053746174733A20002C204C6F6E676573CD
:1017000074206A6F623A2000546F74616C207469AF
:101710006D653A200053746174733A20002C2046A2
:1017200061696C65643A20002C2046696E697368B3
:1017300065643A20005072696E74733A20005374E5
:101740006174733A200024F4D43050C38E20C2A2B6
:101750004017828B7011127A910D816CD90AA861A1
:10176000E108C7586607615143061E4B5D05C14538
:10177000A7041A411104093D980371393103403619
:10178000DB0265339102D4305402802E1D02632C9B
:10179000EE01752AC501B028A001102781018F250F
:1017A00064012B244B01E0223401AC211F018D2068
:1017B0000D01801FFC00841EED00971DDF00B81C8A
:1017C000D200E61BC600201BBC00641AB200B2198E
:1017D000A8000A19A0006A189900D11791004017B3
:1017E0008B00B516840031167E00B31579003A15CA
:1017F0007300C7146F0058146A00EE136600881354
:10180000630025135E00C7125B006C1257001512AF
:101810005400C111510070114F0021114B00D6101E
:1018200049008D1047004610440002104200C00FCE
:101830004000800F3E00420F3C00060F3B00CB0EE5
:101840003800930E37005C0E3500270E3400F30D80
:101850003200C10D3100900D3000600D2E00320DB0
:101860002D00050D2C00D90C2B00AE0C2900850C89
:1018700029005C0C2700350C27000E0C2600E80B15
:101880002400C40B2400A00B23007D0B23005A0B63
:101890002100390B2100180B2000F80A1F00D90A7B
:1018A0001E00BB0A1E009D0A1D00800A1D00630A5F
:1018B0001C00470A1B002C0A1B00110A1A00F7091A
:1018C0001A00DD091900C4091900AB0919009209B1
:1018D00017007B091800630917004C091600360928
:1018E0001600200916000A091500F5081500E00881
:1018F0001400CC081400B8081400A40814009008C0
:1019000013007D0812006B081300580812004608E7
:1019100012003408110023081100120811000108F8
:101920001100F0071000E0071000D0071000C007FA
:101930001000B0070F00A107100091070E008307E9
:101940000F0074070F0065070E0057070E004907C8
:101950000E003B070D002E070E0020070D00130799
:101960000D0006070D00F9060C00ED060D00E0065F
:101970000C00D4060C00C8060C00BC060C00B00617
:101980000C00A4060B0099060C008D060B008206C5
:101990000B0077060B006C060B0061060A00570669
:1019A0000B004C060A0042060A0038060A002E0602
:1019B0000A0024060A001A060A0010060900070693
:1019C0000A00FD050900F4050900EB050900E20520
:1019D0000900D9050900D0050900C7050900BE05A1
:1019E0000900B5050800AD050800A50509009C051E
:1019F0000800940508008C050800840508007C0593
:101A00000800740508006C050700650508005D0501
:101A10000700560508004E0507004705070040056A
:101A2000080038050700310507002A0507002305CF
:101A300007001C050600160507000F05070008052E
:101A4000060002050700FB040600F5040700EE048B
:101A50000600E8040600E2040700DB040600D504E3
:101A60000600CF040600C9040600C3040600BD0436
:101A70000600B7040600B1040500AC040600A60485
:101A80000600A00405009B040600950405009004D0
:101A900006008A04050085040500800406007A0417
:101AA000050075040500700405006B04050066045C
:101AB0000500610405005C0405005704050052049C
:101AC00005004D04050048040500430405003E04DC
:101AD00004003A04050035040500300404002C0419
:101AE000050027040400230405001E0404001A0452
:101AF000040016040500110404000D040400090488
:101B000005000404040000040400FC030400F803BE
:101B10000400F4030400F0030400EC030400E803F1
:101B20000400E4030400E0030400DC030400D80321
:101B30000400D4030400D0030400CC030400C80351
:101B40000300C503030024F404D9201BC40C5C0E5D
:101B50009804C4095F0265077101F405F900FB04EC
:101B6000B30048048700C10369005803550003030C
:101B70004500BE023A008402310053022A002902C5
:101B8000250004022000E4011C00C8011900AF0177
:101B90001700980114008401130071011000610105
:101BA000100051010E0043010D0036010B002B0106
:101BB0000B0020010B00150109000C0109000301B5
:101BC0000800FB000800F3000800EB000700E40039
:101BD0000600DE000600D8000600D2000600CC0099
:101BE0000500C7000500C2000500BD000400B900E3
:101BF0000400B5000400B1000400AD000400A90019
:101C00000400A5000300A20003009F0004009B0045
:101C10000300980003009500020093000300900069
:101C200003008D0002008B00030088000200860084
:101C3000020084000300810002007F0002007D009A
:101C400002007B00020079000200770001007600AC
:101C500002007400020072000100710002006F00B7
:101C600002006D0001006C0002006A0001006900C2
:101C700002006700010066000100650001006400C9
:101C800002006200010061000100600001005F00CD
:101C900002005D0001005C0001005B0001005A00D1
:101CA00001005900010058000100570001005600D2
:101CB00001005500010054000100530000005300D2
:101CC00001005200010051000100500001004F00CE
:101CD00001004E0000004E0001004D0001004C00CC
:101CE00001004B0000004B0001004A0001004900C8
:101CF00001004800000048000100470001004600C4
:101D000000004600010045000000450001004400BD
:101D100001004300000043000100420000004200B7
:101D200001004100000041000100400001003F00AF
:101D300000003F0001003E0000003E0001003D00A9
:101D400000003D0001003C0000003C0000003C00A1
:101D500001003B0000003B0001003A0000003A0097
:101D6000010039000000390001003800000038008F
:101D70000000380001003700000037000100360085
:101D8000000036000000360001003500000035007C
:101D90000000350001003400000034000000340071
:101DA0000100330000003300000033000100320066
:101DB000000032000000320001003100000031005C
:101DC0000000310001003000000030000000300051
:101DD00001002F0000002F0000002F0000002F0046
:101DE00001002E0000002E0000002E0001002D003A
:101DF00000002D0000002D0000002D0001002C002F
:101E000000002C0000002C0000002C0001002B0022
:101E100000002B0000002B0000002B0001002A0016
:101E200000002A0000002A0000002A00010029000A
:101E300000002900000029000000290000002900FE
:101E400001002800000028000000280000002800F1
:101E500000002800010027000000270000002700E4
:101E600000002700000027000100260000002600D7
:101E700000002600000026000000260001002500CA
:101E800000002500000025000000250000002500BE
:101E900000002500010024000000240000002400B0
:101EA00000002400000024000100230000002300A3
:101EB0000000230000002300000023000000230096
:101EC0000000230001002200000022000000220088
:101ED000000022000000220000002200010021007A
:101EE000000021000000210000002100000021006E
:101EF000000021000000210001002000000020005F
:101F00000000200000002000000020000000200051
:101F1000000020000000200001001F0000001F0042
:101F200000001F0000001F0000001F0000001F0035
:101F300000001F0001001E0000001E0000001E0027
:101F400000001E0000003930000033250000871912
:101F50000000B00F0000DB080000BD0400007402A8
:101F600000003F01000023646566696E65204445FA
:101F70004641554C545F4B64200023646566696E8E
:101F8000652044454641554C545F4B69200023640D
:101F90006566696E652044454641554C545F4B70FB
:101FA0002000504944204175746F74756E65206639
:101FB000696E697368656421205075742074686562
:101FC000206C617374204B702C204B6920616E640F
:101FD000204B6420636F6E7374616E74732066723D
:101FE0006F6D2062656C6F7720696E746F20436F30
:101FF0006E66696775726174696F6E2E680A00504B
:102000004944204175746F74756E65206661696C12
:102010006564212074696D656F75740A004532200E
:10202000544845524D414C2052554E41574159005C
:10203000453120544845524D414C2052554E415750
:10204000415900546865726D616C2052756E6177FC
:1020500061790045322048656174696E6720666168
:10206000696C65640045312048656174696E67205C
:102070006661696C65640048656174696E672066B5
:1020800061696C656400504944204175746F7475D2
:102090006E65206661696C6564212054656D7065AC
:1020A00072617475726520746F6F20686967680A61
:1020B00000204B643A2000204B693A2000204B70EE
:1020C0003A20000A20436C617373696320504944CD
:1020D000200A002054753A2000204B753A20002039
:1020E0006D61783A2000206D696E3A200020643AD4
:1020F000200020626961733A2000504944204175F4
:10210000746F74756E652073746172740A0050493F
:1021100044204175746F74756E65206661696C65E5
:102120006421204261642065787472756465722050
:102130006E756D6265720A006265640A002C207318
:10214000797374656D2073746F70706564212048B5
:1021500065617465725F49443A2000426564206895
:10216000656174696E67206661696C6564004865C5
:102170006174696E67206661696C65640045312031
:1021800048656174696E67206661696C65640045C5
:10219000322048656174696E67206661696C6564A8
:1021A0000048656174696E67206661696C656400EA
:1021B0001000600350012C0190012201D001180190
:1021C00010020E0170020401E002FA006003F00048
:1021D0000004E600B004DC00A005D200B006C80090
:1021E0000008BE00A009B400800BAA00D00DA0001A
:1021F00090109600C0138C0070178200901B78001E
:1022000010206E00C0246400E02D500080353C009A
:10221000A03A2800A03D1400003F0000A03FECFFC2
:102220004532204572723A204D415854454D500078
:102230004531204572723A204D415854454D500069
:102240004572723A204D415854454D502042454404
:10225000004D415854454D5020747269676765724E
:102260006564004532204572723A204D494E54450E
:102270004D50004531204572723A204D494E54452B
:102280004D50004572723A204D494E54454D5020F4
:10229000424544004D494E54454D50207472696783
:1022A000676572656400202F002040002042403A9C
:1022B0000020403A00C702C502C302C002BD02BAF4
:1022C00002B702B402B102AE02AB027472756500CD
:1022D00066616C7365002074656D706572617475FC
:1022E0007265207072657761726E207472696767BB
:1022F000657265643A2000207072657761726E20A5
:10230000666C616720636C65617265640A004C45A8
:1023100056454C494E4700434F4D4D554E4943415C
:1023200054494F4E0044525952554E004552524F57
:10233000525300494E464F004543484F004472698E
:10234000766572207265676973746572733A00739B
:10235000327673620900733276736109003132306C
:10236000430900313433430900313530430900312A
:1023700035374309006F7409006F74707709007373
:1023800032676109007332676209006F6C6109008E
:102390006F6C62090073747374090044525653548D
:1023A00041545553005374616C6C677561726420BD
:1023B00074687273002D73746172740900687973A4
:1023C000746572657369730A2D656E640900626CC9
:1023D000616E6B2074696D65006F66662074696D4F
:1023E0006509004F54207072657761726E206861D4
:1023F000730A6265656E20747269676765726564E9
:10240000004F54207072657761726E005B6D6D2FA6
:10241000735D090070776D0A7468726573686F6C1C
:10242000640900747374657009006D73746570736A
:102430000900737465616C746843686F700076732B
:10244000656E7365090050574D207363616C6509B3
:102450000043532061637475616C0900486F6C64BC
:102460002063757272656E740052756E20637572AA
:1024700072656E74004D41582063757272656E749A
:1024800000524D532063757272656E74005365740B
:102490002063757272656E7400456E61626C65646E
:1024A00009000900747275650066616C73650074DB
:1024B0007275650066616C7365007472756500669F
:1024C000616C736500313D2E313800303D2E333262
:1024D00035002F3331002F3331002F333100747228
:1024E00075650066616C736500203D2030780000E2
:1024F000002100240027002A002D003000330001B5
:10250000010000040107010A010000220025002843
:10251000002B002E003100340002010000050108EC
:10252000010B01000020002300260029002C002FB1
:102530000032000001000003010601090105050544
:1025400005070508080808020202020A0A0808042A
:102550000404040101010101010101030303030358
:10256000030303040707070C0C0C0C0C0C0C0C02E7
:1025700002020206060606060606060B0B0B0B0BEE
:102580000B0B0B01021020200808102040102040E7
:102590008002010201080402010102040810204027
:1025A0008080402010080402018004020180402045
:1025B000100804020108040201010204081020406E
:1025C00080010204081020408000000A0B02090C60
:1025D0000D0E0807030401000000000000000000C9
:1025E00000000000000000000000000000000000EB
:1025F00000000000001211100000000000000000A8
:102600000000000000000000000000000000004783
:10261000322F47332062616420706172616D65748E
:102620006572730A003C3C3C204732380A003E2069
:10263000686F6D696E67206E6F74206E6565646586
:10264000642C20736B69700A003C3C3C2047323894
:102650000A005261697365205A20286265666F72AC
:102660006520686F6D696E672920746F20003E20B9
:10267000656E6473746F70732E656E61626C65282D
:1026800074727565290A003E3E3E204732380A00C2
:10269000205A3A200020593A200042656420583AD6
:1026A00020004D65736820706F696E742063616EE1
:1026B0006E6F74206265207265736F6C7665640A54
:1026C000005072696E742074696D653A20006F66FF
:1026D0006600382333232C23252317230E23444558
:1026E0004255473A004D3131332053006F6B00544F
:1026F0004845524D414C5F50524F54454354494F09
:102700004E004155544F5245504F52545F53445F11
:1027100053544154555300454D455247454E435936
:102720005F50415253455200434153455F4C494726
:1027300048545F4252494748544E45535300544F02
:1027400047474C455F4C494748545300534F465404
:10275000574152455F504F574552004255494C44EE
:102760005F50455243454E54004C4556454C494EEA
:10277000475F44415441005A5F50524F4245004127
:1027800055544F4C4556454C005052494E545F4AA3
:102790004F420050524F4752455353004155544FFA
:1027A0005245504F52545F54454D5000564F4C5572
:1027B0004D455452494300454550524F4D005345F5
:1027C0005249414C5F584F4E5F584F46460046496C
:1027D000524D574152455F4E414D453A4D61726CE5
:1027E000696E204A3230445F3231303630325F31E8
:1027F0003535385F475620534F555243455F434F59
:1028000044455F55524C3A68747470733A2F2F6781
:1028100069746875622E636F6D2F67616E6573688A
:102820006D65762F4A756C6961323031384D617251
:102830006C696E3131392D566F6C7465727261201E
:1028400050524F544F434F4C5F56455253494F4E91
:102850003A312E30204D414348494E455F5459503E
:10286000453A566F6C7465727261206C696B6520B5
:102870004A756C69612050726F204475616C20410B
:10288000424C20323456207769746820544D435F9F
:10289000434D54492076657273696F6E20455854D4
:1028A00052554445525F434F554E543A3220555588
:1028B00049443A30313038613539392D3362393550
:1028C0002D343138362D613633362D303639656248
:1028D000353938373963300A002F2F200020540053
:1028E000205200416363656C65726174696F6E3A72
:1028F0002050003F4A206F7574206F662072616E11
:1029000067652028302E303120746F20302E332917
:102910000A00000020C20000C8430000CD43546FED
:102920006F206661722066726F6D207265666572D7
:10293000656E636520706F696E740A00FF01012087
:10294000466C6F773A2000000136372603FFFFFF01
:10295000353C3D38FF0FFFFF312E303EFF13FFFFA8
:10296000FF28390C0809FFFFFF1A1C18FFFF2A2453
:10297000221EFFFF2C08440AFF4307FF453A2000B0
:1029800020536572766F2000206F7574206F66206B
:1029900072616E67650A00536572766F2000432985
:1029A0000A0061626C656420286D696E2074656D33
:1029B000702000436F6C6420657874727564657371
:1029C0002061726520004E6F2063617365206C6921
:1029D0006768740A004D65736820706F696E7420B3
:1029E00063616E6E6F74206265207265736F6C76C2
:1029F00065640A004D34323120696E636F7272650E
:102A0000637420706172616D6574657220757361A5
:102A100067650A00454550524F4D204F4B0A003F15
:102A20005A206F7574206F662072616E676520286A
:102A30002D323020746F203230290A003A200050A5
:102A4000726F6265205A204F666673657400617804
:102A500069733A70776D5F7363616C65207C737422
:102A6000617475735F726573706F6E73657C0A0055
:102A70003C3C3C2067636F64655F540A00203A2049
:102A800041465445520A00202063757272656E7487
:102A90005F706F736974696F6E3D00203A20424524
:102AA000464F52450A00202063757272656E745F4E
:102AB000706F736974696F6E3D003E3E3E206763C0
:102AC0006F64655F54280020503A00205A3A002075
:102AD000593A0020583A00656E6473746F70732021
:102AE0006869743A2000556E6B6E6F776E20636F65
:102AF0006D6D616E643A202200203A203C3C3C20FF
:102B000072756E5F7A5F70726F62650A0020206373
:102B1000757272656E745F706F736974696F6E3D04
:102B2000002044697363726570616E63793A0032A4
:102B30006E642050726F6265205A3A00203A203C41
:102B40003C3C2072756E5F7A5F70726F62650A003E
:102B5000202063757272656E745F706F736974693B
:102B60006F6E3D00534C4F572050726F6265206668
:102B700061696C210A003173742050726F626520A4
:102B80005A3A00203A203C3C3C2072756E5F7A5FD6
:102B900070726F62650A00202063757272656E74D0
:102BA0005F706F736974696F6E3D004641535420C6
:102BB00050726F6265206661696C210A00203A20BC
:102BC0003E3E3E2072756E5F7A5F70726F62650A7C
:102BD00000202063757272656E745F706F73697424
:102BE000696F6E3D003C3C3C2070726F62655F70A7
:102BF000740A0050726F62696E67206661696C6565
:102C0000640A0050524F42494E475F4641494C4585
:102C1000440A00205A3A200020593A2000426564B4
:102C200020583A2000203A200A0020206375727252
:102C3000656E745F706F736974696F6E3D005F726B
:102C4000656C6174697665290A002C20002C2000CF
:102C50002C20002C20003E3E3E2070726F62655F8B
:102C6000707428002066697273740A005A00590053
:102C70005800486F6D6520006563686F3A00453203
:102C800020544845524D414C2052554E41574159D0
:102C900000453120544845524D414C2052554E413B
:102CA0005741590042454420544845524D414C201B
:102CB00052554E4157415900546865726D616C2000
:102CC00052756E61776179005072696E7465722019
:102CD00068616C7465642E206B696C6C28292063B4
:102CE000616C6C6564210A004572726F723A000073
:102CF0009CB311241FBECFEFD1E2DEBFCDBF00E0F9
:102D00000CBF13E0A0E0B2E0E0EDFFEA01E00BBF92
:102D100002C007900D92A036B107D9F721E1A0E6D5
:102D2000B3E001C01D92A835B207E1F716E1C9E78B
:102D3000D6E100E006C021970109802FFE010E9424
:102D400067D7C837D10780E00807A9F70E94F6B413
:102D50000C94E6D70C9400008F929F92AF92BF9292
:102D6000CF92DF92EF92FF920F931F93CF93DF9357
:102D7000DC0170E0FB01EE0FFF1FE451FD4F2081ED
:102D8000318166517D4FFB019081D92E80E0E82E84
:102D9000F12CB7016D0D711D75956795681711F0D0
:102DA000D61222C0492F4150550BFA01EE0FFF1FDA
:102DB000EE0FFF1F3296E20FF31F65917491072EFD
:102DC000000C880B990B0E949FCFDF91CF911F9130
:102DD0000F91FF90EF90DF90CF90BF90AF909F90BA
:102DE0008F900895D62ED5CFAB0141505109440F95
:102DF000551F440F551FF901E40FF51F059114915C
:102E0000FA013496E20FF31FC591D491A017B107D0
:102E10004CF3862FCA17DB070CF4B9CFFA013296B0
:102E2000E20FF31FE590F490FA013696E20FF31FDC
:102E3000C590D490BD01601B710B072E000C880B50
:102E4000990B0E949FCF4B015C01B6016E197F095F
:102E5000072E000C880B990B0E949FCF9B01AC01A1
:102E6000C501B4010E94FECF4B015C01BE01601B95
:102E7000710B072E000C880B990B0E949FCF9B01B2
:102E8000AC01C501B4010E941BD54B015C01B70127
:102E9000FF0C880B990B0E949FCF9B01AC01C501D1
:102EA000B4010E9421D491CF8F929F92AF92BF9292
:102EB000CF92DF92EF92FF920F931F93CF93DF9306
:102EC000BCE1A0E06A2F70E0AB014B0F511D55959E
:102ED0004795A41711F0B41319C0EEE1F2E2659121
:102EE0007491072E000C880B990B0E949FCFDF91E5
:102EF000CF911F910F91FF90EF90DF90CF90BF90F7
:102F0000AF909F908F900895B42FDECF9A012150FB
:102F10003109220F331F220F331FF901E055FE4DF7
:102F2000E590F490F901EC54FE4DC591D4918E15C5
:102F30009F0554F3A42FC817D9070CF4C3CFF90188
:102F4000EE54FE4D05911491F901EA54FE4DC590E1
:102F5000D490BC016E197F09072E000C880B990BC9
:102F60000E949FCF4B015C01B601601B710B072EC5
:102F7000000C880B990B0E949FCF9B01AC01C501EF
:102F8000B4010E94FECF4B015C01BE016E197F09A6
:102F9000072E000C880B990B0E949FCF9B01AC0160
:102FA000C501B4010E941BD56B017C01B801110F52
:102FB000880B990B0E949FCF9B01AC01C701B60102
:102FC0000E9421D494CF10921B0C1092510B10929E
:102FD000520B1092530B1092540B1092170C10922C
:102FE000180C1092190C10921A0C10924D0B109292
:102FF0004E0B10924F0B1092500B08950F931F938E
:10300000CF93DF93C82F80916F00D82FD27081FFAC
:1030100005C080916F008D7F80936F006091FB0BE6
:103020007091FC0B8091FD0B9091FE0B0091FF0BBA
:103030001091000C2091010C3091020CC13039F537
:10304000601B710B820B930B0E949FCF20E030E03E
:1030500040E05FE30E94FECF0E948DD524E0C29F36
:10306000F0011124EF5BF44F6083718382839383BB
:1030700081E08093400BDD2329F080916F00826016
:1030800080936F00DF91CF911F910F910895600F92
:10309000711F821F931FD8CF90916F00292F22702C
:1030A00091FF05C090916F009D7F90936F0094E019
:1030B000899FF0011124E550F44F60817181828174
:1030C0009381222329F020916F00226020936F00CA
:1030D0000895BC0120913E0B30913F0B40913E0B77
:1030E00050913F0B2417350731F481E0261737073D
:1030F00009F080E008959A01F1CFEF92FF920F93CB
:103100001F93E0926D03F0926E0300936F03109390
:1031100070036093710370937203809373039FEF46
:10312000FF27621B730B840B30F4809570956195BB
:10313000790B890B992790936C03A6E06A9F009204
:103140006003512DEE277A9F500DE11D8A9FE00DFF
:1031500050936103E0936203AFE06A9F00926403BF
:10316000512DEE277A9F500DE11D8A9FE00D50935F
:103170006503E0936603AAE06A9F00926803512DFD
:10318000EE277A9F500DE11D8A9FE00D5093690351
:10319000E0936A031F910F91FF90EF900895809143
:1031A000F90A80FF26C089988FEF8093F50A8091F5
:1031B000F90A81FF21C08F988FEF8093F60A8091E2
:1031C000F90A82FF1CC080910B0180958270809368
:1031D00009018FEF8093F70A8091FA0A9091F90A1A
:1031E00093FF16C0811112C016988FEF8093F80AD2
:1031F0000895899A81E0D9CF8F9A81E0DECF8091BE
:103200000B0182708093090181E0E4CF439AEDCFF6
:10321000811103C0169A81E0E9CF4398FCCF8091D9
:103220005D1090915E10891B8F7019F490E080E022
:10323000089590915A10992351F0833030F48FEF14
:10324000890F19F080935A10F1CF10925A10809183
:103250005E102DE5829FC00111248B5D9A4FFC0109
:10326000208120FDE3CF20915E102F5F2F702093EF
:103270005B1030915E1020915C10321304C02091DD
:103280005B1020935C100895009781F410929000D9
:1032900082E0809391001092950010929400C19A60
:1032A0008091710082608093710008958130910552
:1032B00069F41092A00082E08093A1001092A50012
:1032C0001092A40089BB809372000895029761F464
:1032D0001092200182E0809321011092250110922A
:1032E00024018ABB8093730008959F92AF92BF928E
:1032F000CF92DF92EF92FF920F931F93CF93DF93C2
:1033000000D01F921F92CDB7DEB7E0EEF5E10027A7
:10331000BB27462F572FA82FAA2341F4A52F542FA0
:10332000B85FAA2319F4A52F5527B85FA03138F448
:103330005295A295452F4F70507FA42BBC5FA034AF
:1033400028F4550FAA1F550FAA1FBE5FA03818F406
:10335000550FAA1FB395550FAA1FEA0FF01F4491EE
:1033600051E0AA27B85081F1C8F0B0FF02C0440F65
:10337000551FB1FF04C0440F551F440F551FB2FF26
:1033800006C052954295142F1F70407F512BB3FFFA
:103390001BC0A52F542F44270C94E419B195B0FFFE
:1033A00002C055954795B1FF04C055954795559571
:1033B0004795B2FF05C05295407F4295452B5F70FF
:1033C000B3FF02C0452F5527DD24CC24BB24B2E037
:1033D000649FD018C108B00AB00B749FC018B10820
:1033E000B00B849FB018B109659FC018B108B00B2D
:1033F000759FB018B109859FB0196A9FB018B109BF
:103400007A9FB0194D9DA12C992433279927222703
:103410005D9DA00C911C301F901F201FAD9D900C36
:10342000311D901F201F4C9DA00C911C301F901F20
:10343000201F5C9D900C311D901F201FAC9D300DF6
:10344000911D201F4B9D900C311D901F201F5B9DD7
:10345000300D911D201FAB9D900D211D4B9F300DF8
:10346000911D201F5B9F900D211DAB9F200DB1E092
:10347000BB24CC24DD24639FD018C108B00AB00B54
:10348000739FC018B108B00B839FB018B109699F32
:10349000C018B108B00B799FB018B109899FB01955
:1034A000629FB018B109729FB019D61AC70AB80A3C
:1034B00020F0B1E03B0F901F201F1124792F632FC4
:1034C00090E0822F0F900F900F900F900F90DF9150
:1034D000CF911F910F91FF90EF90DF90CF90BF9011
:1034E000AF909F900895CF93DF938091420C81110C
:1034F00005C08091E704882309F46CC08091E6043C
:10350000659958C08E7F8093E60490910301809165
:10351000E60490FF51C080628093E6048091E60447
:103520007B994CC0877F8093E6048091E6044A999A
:1035300047C08F7B8093E604C091310BC0FF10C061
:103540008091F90A84FF0CC08091E60480FF08C0D6
:1035500080919A0E816080939A0E80E00E94FE17FF
:10356000C1FF10C08091F90A85FD0CC08091E6046E
:1035700085FF08C080919A0E806280939A0E81E048
:103580000E94FE17C2FF26C08091F90A82FF1AC06E
:103590008091E7048823F1F08091E60483FF1AC04C
:1035A00080919A0E886080939A0E82E0DF91CF918D
:1035B0000C94FE178160A7CF8F7DAECF8860B3CF0C
:1035C0008064B8CF8091E60486FF04C080919A0E93
:1035D0008064E9CFDF91CF910895CF92DF92EF928F
:1035E000FF926091F30B7091F40B072E000C880B87
:1035F000990B0E949FCF6B017C012DEB37E346E8CE
:1036000055EB0E9481D687FD0BC02DEB37E346E8D2
:1036100055E3C701B6010E9498CF18160CF043C0BD
:10362000A701960160E070E080E89FE30E941BD54F
:103630006093910470939204809393049093940404
:103640006091F50B7091F60B072E000C880B990B0F
:103650000E949FCF6B017C012DEB37E346E855EBD1
:103660000E9481D687FD0AC02DEB37E346E855E37B
:10367000C701B6010E9498CF1816CCF4A701960195
:1036800060E070E080E89FE30E941BD560939504A2
:10369000709396048093970490939804FF90EF9012
:1036A000DF90CF90089560E070E0CB01C1CF60E083
:1036B00070E0CB01EBCF90917503E92FF0E0E05F74
:1036C000F24F80839F5F943040F490937503809114
:1036D0009C0E8F5F80939C0E089510927503F7CF18
:1036E00080916B0490916C042FEF3FEF981751F08D
:1036F000E92FF0E0E551FC4F208130E09F5F9F779C
:1037000090936C04C9010895CF92DF92EF92FF92DB
:10371000CF9380916F00C82FC27081FF05C0809148
:103720006F008D7F80936F0080E00E944C186B01CA
:103730007C0181E00E944C186C0D7D1D8E1D9F1D2B
:103740000E949FCF20E030E040E05FE30E94FECF88
:103750009B01AC01CC2329F080916F0082608093A3
:103760006F006091FD047091FE048091FF049091C0
:1037700000050E94FECF6093990470939A04809391
:103780009B0490939C0480916F00C82FC27081FFAE
:1037900005C080916F008D7F80936F0080E00E9454
:1037A0004C186B017C0181E00E944C18A701960126
:1037B000261B370B480B590BCA01B9010E949FCF3A
:1037C00020E030E040E05FE30E94FECF9B01AC01CF
:1037D000CC2329F080916F00826080936F0060910C
:1037E00001057091020580910305909104050E94E6
:1037F000FECF60939D0470939E0480939F049093EA
:10380000A00482E00E944C180E949FCF9B01AC0153
:103810006091050570910605809107059091080556
:103820000E94FECF6093A1047093A2048093A3042E
:103830009093A404CF91FF90EF90DF90CF900895E4
:103840000F931F93CF93DF93CCEBDCE008811981BA
:103850002A813B8144E650E060E070E08DE090E139
:103860000E94D6A60C811D812E813F8144E650E046
:1038700060E070E080EC9FE00E94D6A60885198584
:103880002A853B8543E050E060E070E083E79FE0FD
:103890000E94D6A60C851D852E853F854EE150E001
:1038A00060E070E086E29FE00E94D6A60C851D8550
:1038B0002E853F854EE150E060E070E089ED9EE0AE
:1038C0000E94D6A6DF91CF911F910F910895CF92BC
:1038D000DF92EF92FF920F931F93CF93DF936B01D1
:1038E0007A01EC01CE5DDA4F28813CE0389F8001FF
:1038F000399F100D112427FF24C0FB011182108273
:1039000088818F5F888388819801280F311D87FD0A
:103910003A95C9012091EF10F6012817190629F0F0
:1039200024F088818C300CF43CC080819181049615
:1039300080349C4908F475C0F60180819181049619
:1039400072C088819801280F311D87FD3A95C90101
:103950002091EF102817190699F294F28881A80196
:10396000480F511D87FD5A95FA01EE0FFF1FE40F16
:10397000F51FED57FF4E808186FFC2CF8881F80189
:10398000E80FF11D87FDFA95CF01EE0FFF1FE80F3D
:10399000F91FED57FF4E808160E08F730E9415A2E2
:1039A000AFCF808191812881A801420F511D27FD51
:1039B0005A959A01FA01EE0FFF1FE20FF31FED5720
:1039C000FF4E21813281820F931FF7019183808303
:1039D00088819801280F311D87FD3A95F901EE0F76
:1039E000FF1FE20FF31FED57FF4E808186FF20C0BF
:1039F0008881080F111D87FD1A95F801EE0FFF1F32
:103A0000E00FF11FED57FF4E808161E08F73DF9172
:103A1000CF911F910F91FF90EF90DF90CF900C947A
:103A200015A280E49CE9F701918380838FEF88835E
:103A3000DF91CF911F910F91FF90EF90DF90CF908A
:103A4000089580910D05882341F040E150E063E343
:103A500070E082E195E00C947DD308952F923F921F
:103A60004F925F926F927F928F929F92AF92BF928E
:103A7000CF92DF92EF92FF920F931F93CF93DF933A
:103A8000CDB7DEB76C970FB6F894DEBF0FBECDBFD3
:103A90008C015B015A834983FC01E95BFF4F208164
:103AA000318142815381298B3A8B4B8B5C8BCA01CC
:103AB000B9010E949DCF6B017C01D5012D913D91F3
:103AC0004D915C910E94FECF0E94FFD40E9494D53C
:103AD0004B015C01E981FA8120813181428153816E
:103AE000C701B6010E94FECF0E94FFD40E9494D568
:103AF00089869A86AB86BC8629853A854B855C8506
:103B0000283731054105510540F428E730E040E011
:103B100050E029873A874B875C876D837E838F834C
:103B200098874D815E816F817885483751056105A1
:103B3000710540F468E770E080E090E06D837E837B
:103B40008F839887F801ED5AFF4F40805180628043
:103B50007380C301B2010E949FCF69837A838B83F4
:103B60009C8369857A858B859C850E949DCF6D8B12
:103B70007E8B8F8B988F20E030E0A90169817A815C
:103B80008B819C810E9498CF882309F4E1C1A70111
:103B90009601C701B6010E94FECF4B015C012D8941
:103BA0003E894F89588DCA01B9010E94FECF9B0101
:103BB000AC01C501B4010E9420D44B015C012981F4
:103BC0003A814B815C81CA01B9010E9421D49B01D9
:103BD000AC01C501B4010E941BD50E94FFD40E9414
:103BE00094D56D877E878F87988B66277727CB0143
:103BF00064197509860997090E949FCF4B015C01E2
:103C00006D817E818F8198850E949DCF2B013C0123
:103C100020E030E0A901C501B4010E9498CF8823BB
:103C200009F49AC1A3019201C301B2010E94FECF1F
:103C3000698F7A8F8B8F9C8FA7019601C701B60180
:103C40000E94FECF9B01AC01698D7A8D8B8D9C8D7E
:103C50000E9420D46B017C01A5019401C501B4012F
:103C60000E9421D49B01AC01C701B6010E941BD563
:103C70000E94C3D5D80195968D909D90AD90BC9033
:103C80009897750164012D853E854F855889C21A24
:103C9000D30AE40AF50A0E9494D5C61AD70AE80A9C
:103CA000F90AF7FE8EC02D893E894F89588DCA01C9
:103CB000B9010E94FECF6B017C0129813A814B81C1
:103CC0005C81CA01B9010E9421D4698B7A8B8B8BEC
:103CD0009C8B20E030E0A90169817A818B819C81F5
:103CE0000E9498CF882309F43BC1C501B4010E940A
:103CF0009DCF29893A894B895C890E94FECFA70113
:103D000096010E9420D46D877E878F87988BA301B0
:103D10009201C301B2010E94FECF9B01AC016D85EF
:103D20007E858F8598890E9421D42B013C0120E05B
:103D300030E040E850E469817A818B819C810E9467
:103D4000FECF9B01AC01C301B2010E941BD50E94B2
:103D5000FFD42B013C0120E030E0A9010E9481D674
:103D600018161CF0412C512C3201C301B2010E94E3
:103D700094D56D877E878F87988B86169706A806C1
:103D8000B90620F48D869E86AF86B88A6D857E85BD
:103D90008F8598890E949DCF29893A894B895C89B2
:103DA0000E94FECFA70196010E9421D40E94CFD687
:103DB0000E9494D5698B7A8B8B8B9C8BC12CD12CD8
:103DC000760169897A898B899C8929853A854B8511
:103DD0005C85621B730B840B950B0E949DCF298120
:103DE0003A814B815C810E941BD520E034E244EF94
:103DF00059E40E94FECF0E9494D54B015C01698971
:103E00007A898B899C892D813E814F815885621BDF
:103E1000730B840B950B0E949DCF29813A814B81B6
:103E20005C810E941BD520E034E244EF59E40E94FB
:103E3000FECF0E9494D52B013C013FE683169104EE
:103E4000A104B10408F090C0F401EE0FFF1FEE0FC3
:103E5000FF1FE651FC4E85919591A591B491898300
:103E6000292E3A2EBD8B4FE644165104610471048D
:103E700008F083C0F201EE0FFF1FEE0FFF1FE651A7
:103E8000FC4E45915591659174919A01CB014D85F8
:103E90005E856F857889D8019A964D935D936D9371
:103EA0007C939D974C0D5D1D6E1D7F1DF80146A7EF
:103EB00057A760AB71ABE55BFF4F49855A856B85B2
:103EC0007C854083518362837383D6968D929D92C5
:103ED000AD92BC92D997F80142AE53AE64AE75AEC6
:103EE000FE9649814083218232825D8953833496D4
:103EF000208331838283938369897A898B899C8922
:103F0000D2966D937D938D939C93D5973D962D81FD
:103F10003E814F81588520833183428353836C9641
:103F20000FB6F894DEBF0FBECDBFDF91CF911F91CA
:103F30000F91FF90EF90DF90CF90BF90AF909F9048
:103F40008F907F906F905F904F903F902F9008954B
:103F500060E070E0CB0141CE60E070E0CB0188CE44
:103F600060E070E0CB01F3CEC501B4010E94751989
:103F70006983272E382E9D8B76CFC301B2010E9414
:103F800075199B0184CF4F925F926F927F928F92AF
:103F90009F92AF92BF92CF92DF92EF92FF920F93D8
:103FA0001F93CF93DF93EC016091F70B7091F80BA7
:103FB000072E000C880B990B0E949FCF9B01AC0130
:103FC000688179818A819B810E9420D46B017C0168
:103FD0006091F90B7091FA0B072E000C880B990B6E
:103FE0000E949FCF9B01AC016C817D818E819F815E
:103FF0000E9420D44B015C01A7019601609106024A
:104000007091070280910802909109020E9498CF56
:10401000882309F450C0C0920602D0920702E092B1
:104020000802F0920902209191043091920440918B
:10403000930450919404C701B6010E94FECF2B0156
:104040003C010E94C3D56B017C0120E030E0A90156
:104050000E9498CF87FD70C020E030E040E050E43F
:10406000C701B6010E9481D618162CF4C12CD12CA0
:10407000E12CA0E4FA2EA7019601C301B2010E942F
:1040800020D460938D0470938E0480938F0490935A
:104090009004C701B6010E948DD560938C04062E52
:1040A000000C770B6F5F7F4F6330710514F063E096
:1040B00070E060938B04D0910102C0918C04A50143
:1040C0009401609102027091030280910402909128
:1040D00005020E9498CF811133C0DC1381C020916A
:1040E0006D0430916E0440916F04509170046091A2
:1040F0008D0470918E0480918F04909190040E94A1
:10410000FECF20917104309172044091730450915C
:1041100074040E9421D4DF91CF911F910F91FF90E1
:10412000EF90DF90CF90BF90AF909F908F907F9057
:104130006F905F904F900895C12CD12C76019BCF4A
:104140008092020290920302A0920402B0920502B1
:1041500020919504309196044091970450919804D1
:10416000C501B4010E94FECF4B015C010E94C3D582
:104170006B017C0120E030E0A9010E9498CF87FD0F
:10418000F0C020E030E040E050E4C701B6010E94FA
:1041900081D618162CF4C12CD12CE12CF0E4FF2E82
:1041A000A7019601C501B4010E9420D46093870441
:1041B000709388048093890490938A04C701B601A0
:1041C0000E948DD560938604062E000C770B6F5FDE
:1041D0007F4F6330710514F063E070E060938504F5
:1041E00000918604DC1305C080910002801709F459
:1041F0006DC0C093010200930002002E000C110B51
:1042000024E0C202C0011124FC01E00FF11FEE0FF7
:10421000FF1FEE0FFF1FE253F34F208131814281D8
:1042200053812093810430938204409383045093FC
:104230008404C09185040C2E000CDD0BFC01EC0FF6
:10424000FD1FEE0FFF1FEE0FFF1FE253F34F6081C4
:104250007181828193810E9420D460937D04709348
:104260007E0480937F049093800480918B0424E0EB
:104270008202C0011124FC01E00FF11FEE0FFF1FAD
:10428000EE0FFF1FE253F34F2081318142815381B2
:104290002093790430937A0440937B0450937C04F8
:1042A000C80FD91FCC0FDD1FCC0FDD1FC253D34F5A
:1042B000688179818A819B810E9420D460937504F2
:1042C00070937604809377049093780480908704A9
:1042D00090908804A0908904B0908A0420917D0475
:1042E00030917E0440917F0450918004C501B40157
:1042F0000E94FECF2091810430918204409183047A
:10430000509184040E9421D46B017C01C0927104FD
:10431000D0927204E0927304F092740420917504B8
:10432000309176044091770450917804C501B4012E
:104330000E94FECF2091790430917A0440917B0451
:1043400050917C040E9421D4A70196010E9420D4A0
:1043500060936D0470936E0480936F049093700467
:10436000BECEC12CD12C76011BCFCF93DF932091F1
:10437000E804222379F0EC010E94C31F9B01AC01E9
:10438000688579858A859B850E9420D4688779878E
:104390008A879B87DF91CF9108950C9407A68F920F
:1043A0009F92AF92BF92CF92DF92EF92FF920F93C4
:1043B000CF93DF931F92CDB7DEB76C017B0149012C
:1043C0008091E5045B01A40EB51E8823A1F0F601DF
:1043D00080819181480F591F518340830F90DF9155
:1043E000CF910F91FF90EF90DF90CF90BF90AF9063
:1043F0009F908F900895F601808191810E9475D3DE
:10440000898390910E0D992311F0002311F0F7018B
:104410008083BE016F5F7F4FC4010E94A99EF60199
:1044200080819181019691838083FFEFEF1AFF0ACB
:10443000EA14FB0401F7D2CF4F925F926F927F9202
:104440008F929F92AF92BF92CF92DF92EF92FF92A4
:104450000F931F93CF93DF93EC012A013B01680177
:1044600079010E94F1ADDC0120E136E041EC50E041
:104470000E94FED34B015C015E2D4D2D3C2D222769
:10448000C301B2010E94ADD39B01AC01C501B401CF
:104490000E94BDD32EAB3FAB48AF59AF63E9CE010D
:1044A000DF91CF911F910F91FF90EF90DF90CF9010
:1044B000BF90AF909F908F907F906F905F904F9044
:1044C0000C9494A50F930FB70F9300916E000B7F80
:1044D00000936E0078940F930BB70F930CB70F9265
:1044E0001F922F933F934F935F936F937F938F937D
:1044F0009F93AF93BF93EF93FF9311240E946C3966
:10450000FF91EF91BF91AF919F918F917F916F91AB
:104510005F914F913F912F911F900F900CBF0F9182
:104520000BBF0F910460F89400936E000F910FBFC2
:104530000F911895CF92DF92EF92FF92C090C90B26
:10454000D090CA0BE090CB0BF090CC0B6091250C77
:104550007091260C66507109072E000C880B990B80
:104560000E949FCFA70196010E9481D618160CF5D4
:1045700020E030E040E050E4C701B6010E9421D4C1
:104580000E9494D57093A40B6093A30B0E9437A84C
:104590006058774C8E4F9F4F60939F0B7093A00B8A
:1045A0008093A10B9093A20BFF90EF90DF90CF90A0
:1045B000089510929F0B1092A00B1092A10B1092D5
:1045C000A20BF2CFCF92DF92EF92FF920F931F9345
:1045D000CF93DF93C82FD0E08E01000F111F000F83
:1045E000111FF801E353F44FC080D180E280F380C3
:1045F000CC0FDD1FFE01E45EF34F608171816750D7
:104600007109072E000C880B990B0E949FCFA70100
:1046100096010E9481D60D56144F181614F5C556F2
:10462000D44F20E030E040E050E4C701B6010E94E2
:1046300021D40E9494D5798368830E9437A860545E
:104640007B428E4F9F4FF8016083718382839383F7
:10465000DF91CF911F910F91FF90EF90DF90CF905E
:104660000895F8011082118212821382F1CF0F9304
:104670001F9380911B0C813019F50E9437A800917F
:10468000510B1091520B2091530B3091540B601B26
:10469000710B820B930B28EE33E040E050E00E9458
:1046A000BDD360914D0B70914E0B80914F0B90914B
:1046B000500B620F731F841F951F1F910F91089558
:1046C0006091170C7091180C8091190C90911A0C34
:1046D000D6CF2F923F924F925F926F927F928F929E
:1046E0009F92AF92BF92CF92DF92EF92FF920F9381
:1046F0001F93CF93DF93CDB7DEB762970FB6F894D1
:10470000DEBF0FBECDBFF8948FEF9FEF909389006F
:10471000809388000AE00983B12CA12C42E6842E04
:104720004FE1942E789480913A0B90913B0BA0919D
:104730003C0BB0913D0B892B8A2B8B2B09F0DAC1F6
:104740008091400B8823D1F080913E0B90913F0BDC
:104750001092400B892B91F01092310B10923F0B6D
:1047600010923E0B90915D1080915E10981731F081
:1047700080915E108F5F8F7080935E1080913E0BF2
:1047800090913F0B892B09F4B5C14091360B5091A4
:10479000370B6091380B7091390B8091320B9091EF
:1047A000330BA091340BB091350B0091280B10E026
:1047B00030E020E0841B950BA60BB70B08171907F8
:1047C0002A073B0710F4D901C801E82F840F951F71
:1047D000A61FB71F8093360B9093370BA093380B0F
:1047E000B093390B80918400909185004C96409154
:1047F0000F0B5091100B6091110B7091120B0091E7
:10480000FF0A1091000B2091010B3091020B400F19
:10481000511F621F731F40930F0B5093100B609337
:10482000110B7093120B77FD1CC0889A0091FB0B43
:104830001091FC0B2091FD0B3091FE0B4091F50A7D
:10484000042E000C550B660B770B400F511F621F97
:10485000731F4093FB0B5093FC0B6093FD0B709305
:10486000FE0B4091130B5091140B6091150B70913E
:10487000160B0091030B1091040B2091050B309146
:10488000060B400F511F621F731F4093130B509371
:10489000140B6093150B7093160B77FD1CC08E9A4A
:1048A0000091FF0B1091000C2091010C3091020C33
:1048B0004091F60A042E000C550B660B770B400F47
:1048C000511F621F731F4093FF0B5093000C6093A6
:1048D000010C7093020C4091170B5091180B6091D2
:1048E000190B70911A0B0091070B1091080B209176
:1048F000090B30910A0B400F511F621F731F409329
:10490000170B5093180B6093190B70931A0B77FDCC
:1049100021C020910B01209528702093090100915E
:10492000030C1091040C2091050C3091060C409161
:10493000F70A042E000C550B660B770B400F511F26
:10494000621F731F4093030C5093040C6093050C7B
:104950007093060C40911B0B50911C0B60911D0B2A
:1049600070911E0B00910B0B10910C0B20910D0BF5
:1049700030910E0B400F511F621F731F40931B0B92
:1049800050931C0B60931D0B70931E0B77FD20C082
:104990002091FA0A2111AAC0149A0091070C1091D3
:1049A000080C2091090C30910A0C4091F80A042E51
:1049B000000C550B660B770B400F511F621F731FC6
:1049C0004093070C5093080C6093090C70930A0CE9
:1049D00040910F0B5091100B6091110B7091120BC5
:1049E00077FD15C00091FB0A1091FC0A2091FD0A89
:1049F0003091FE0A401B510B620B730B40930F0B5F
:104A00005093100B6093110B7093120B8898409188
:104A1000130B5091140B6091150B7091160B77FDD1
:104A200015C00091FB0A1091FC0A2091FD0A3091FB
:104A3000FE0A401B510B620B730B4093130B5093F8
:104A4000140B6093150B7093160B8E984091170BF7
:104A50005091180B6091190B70911A0B77FD19C0CA
:104A60000091FB0A1091FC0A2091FD0A3091FE0A88
:104A7000401B510B620B730B4093170B5093180B99
:104A80006093190B70931A0B20910B0128702093DF
:104A9000090140911B0B50911C0B60911D0B7091F3
:104AA0001E0B77FD19C00091FB0A1091FC0A2091A2
:104AB000FD0A3091FE0A401B510B620B730B4093B1
:104AC0001B0B50931C0B60931D0B70931E0B2091BE
:104AD000FA0A21110DC01498E15061F02091840070
:104AE0003091850028173907C8F381CE419A55CFF8
:104AF0004198F2CF80913A0B90913B0BA0913C0BE7
:104B0000B0913D0B892B8A2B8B2B11F00C94922C9E
:104B100080913E0B90913F0B998B888B892B11F4E0
:104B20000C94092D8091360B9091370BA091380B86
:104B3000B091390B4091320B5091330B6091340B93
:104B40007091350B84179507A607B70708F47DC049
:104B50001092310B10923F0B10923E0B90915D1012
:104B600080915E10981711F40C94092D80915E10BD
:104B70008F5F8F7080935E1030EDC32E37E0D32EA1
:104B8000E12CF12C80913E0B90913F0B892B11F081
:104B90000C948A2C0E940F1990933F0B80933E0B2C
:104BA000892B11F40C948A2CE0913E0BF0913F0B71
:104BB000F98BE88B808183FF3AC585899689A7891F
:104BC000B08D418D528D638D748D8C019D01040FCC
:104BD000151F261F371F0093FB0B1093FC0B209310
:104BE000FD0B3093FE0B841B950BA60BB70B80932C
:104BF000FF0B9093000CA093010CB093020C858DD9
:104C0000968DA78DB0A18093030C9093040CA09374
:104C1000050CB093060C81A192A1A3A1B4A180932D
:104C2000070C9093080CA093090CB0930A0C909178
:104C30005D1080915E10981709F4ACCF80915E10E2
:104C40008F5F8F7080935E10A5CF40912D0B509198
:104C50002E0B60912F0B7091300B481759076A0784
:104C60007B0708F410C24091290B50912A0B6091E8
:104C70002B0B70912C0BE889F98986A997A9A0AD17
:104C8000B1AD481759076A077B0708F0D0C1411535
:104C900051056105710509F065C0409071035090A0
:104CA0007203609073037090740386E49FE1A1E047
:104CB000FC010591159125913491041515052605E2
:104CC000370548F47694679457944794AA0F04964E
:104CD0008816990669F7A093280BB0E24B16510489
:104CE0006104710428F480E2482E512C612C712C4F
:104CF000E0E24E1A5108610871084114F8E05F06BD
:104D00006104710408F49CC104E0509EC0011124A8
:104D10008A5B944EFC01329625913491B42DAA27DA
:104D2000B39FF001B29FE10DFA1F0694EA1FFA1F2C
:104D300011242F01712C612CFC01C590D490F12C11
:104D4000E12CC418D508E608F7084C0D5D1D6E1D52
:104D50007F1D4093290B50932A0B60932B0B70936C
:104D60002C0B10CF10E0942F452E862FBC81AD81E7
:104D7000FE81EF8138852985FA800B81E0916D03F2
:104D8000E99FA12DFF2730916E03399FA00DF11DE2
:104D900010906F03199EF00DE49DA00DF11D349D40
:104DA000F00DE89FF00D0A2FBF2F0A9FE12D33274A
:104DB00022270F9FE00D311D211FBA9FE00D311DED
:104DC000211FBF9F300D211D032FB22F0A9FF12CF1
:104DD000332722270F9FF00C311D211FBA9FF00CA3
:104DE000311D211FBF9F300D211D032FB22FEE2734
:104DF00090917103409072038091730300906C0353
:104E0000012A09F484C030916803309FE119910BA5
:104E1000410A810B20916903209FE0199109410A01
:104E2000810BF0906A03F09E90194108810B3B9F23
:104E3000E0199109410A810B2B9F90194108810BC0
:104E4000FB9E401881090A9FF12C332722270F9FD0
:104E5000F00C311D211FBA9FF00C311D211FBF9F87
:104E6000300D211D032FB22F30916403309FE10DCF
:104E7000911F411E811F20916503209FE00D911D10
:104E8000411E811FF0906603F09E900D411C811F12
:104E90003B9FE00D911D411E811F2B9F900D411CDA
:104EA000811FFB9E400C811D0A9FF12C3327222776
:104EB0000F9FF00C311D211FBA9FF00C311D211FD7
:104EC000BF9F300D211D032FB22F30916003309F03
:104ED000E119910B410A810B20916103209FE01998
:104EE0009109410A810BF0906203F09E90194108EC
:104EF000810B3B9FE0199109410A810B2B9F90196F
:104F00004108810BFB9E401881090C9409283091BF
:104F10006803309FE10D911F411E811F209169039D
:104F2000209FE00D911D411E811FF0906A03F09EAD
:104F3000900D411C811F3B9FE00D911D411E811F63
:104F40002B9F900D411C811FFB9E400C811D0A9FD1
:104F5000F12C332722270F9FF00C311D211FBA9F00
:104F6000F00C311D211FBF9F300D211D032FB22FCB
:104F700030916403309FE119910B410A810B20911C
:104F80006503209FE0199109410A810BF0906603A7
:104F9000F09E90194108810B3B9FE0199109410A4D
:104FA000810B2B9F90194108810BFB9E40188109B2
:104FB0000A9FF12C332722270F9FF00C311D211F50
:104FC000BA9FF00C311D211FBF9F300D211D032FF3
:104FD000B22F30916003309FE10D911F411E811F60
:104FE00020916103209FE00D911D411E811FF090D3
:104FF0006203F09E900D411C811F3B9FE00D911DAF
:10500000411E811F2B9F900D411C811FFB9E400C58
:10501000811D11240B83FA82BC83AD83FE83EF8351
:1050200038872987542C492E712C682E3ECEA889AA
:10503000B989D2964D905D906D907C90D59735CE84
:10504000D301C201B695A795979587958C7F9C0152
:105050002A5B384EF90185919491F9013296A59118
:10506000B491E42DE770EA9F9001EB9F300D11247D
:1050700003E0369527950A95E1F7821B930B6C01A7
:10508000F12CE12C62CE4091240B5091250B6091C4
:10509000260B7091270B481759076A077B0708F002
:1050A00032C240901F0B5090200B6090210B7090EB
:1050B000220B8091230BE889F98981117DC0EE5B79
:1050C000FF4FE080F18002811381E889F989E15B7B
:1050D000FF4F2081318142815381A889B989D296BD
:1050E0006D917D918D919C91D5970E947D18B1E035
:1050F000B093230BE889F989C2A8D3A8E4A8F5A83E
:1051000086E49FE121E0FC01459155916591749100
:105110004C155D056E057F0548F4F694E794D79429
:10512000C794220F04968816990669F72093280BD6
:10513000B0E2CB16D104E104F10428F4F0E2CF2E62
:10514000D12CE12CF12CE0E2CE1AD108E108F108D3
:10515000C114F8E0DF06E104F10408F4B1C104E091
:10516000D09EC00111248A5B944EFC013296259199
:1051700034917C2D6627739FA001729F410D561FAD
:105180000694461F561F112470E060E0FC01C59094
:10519000D490F12CE12CC41AD50AE60AF70A4C0C7B
:1051A0005D1C6E1C7F1C40921F0B5092200B609266
:1051B000210B7092220BE6CC82AD93ADA4ADB5ADC0
:1051C000481659066A067B0608F070C1411451045E
:1051D0006104710449F4C0907103D0907203E090AF
:1051E0007303F09074038CCF70E06A85942DE52CE6
:1051F000862D5B854C85ED853E852F8520916D0341
:10520000299FE12D332720906E03299EE00D311D4B
:1052100010906F03199E300D2E9DE00D311D2E9CB8
:10522000300D289F300D5E2F432F5E9F212D2224AD
:105230003324539F200D211C371E4E9F200D211C0F
:10524000371E439F200C311C522D432D5E9F612D34
:1052500022243324539F600D211C371E4E9F600D66
:10526000211C371E439F200C311C522D432D222719
:1052700090917103E09072038091730300906C032E
:10528000072A09F484C020906803259E2119970BF2
:10529000E70A870B30906903359E20199109E70AC8
:1052A000870B60916A03659F9019E108870B249E24
:1052B00020199109E70A870B349E9019E108870BA2
:1052C000649FE01881095E9F612D22243324539F3F
:1052D000600D211C371E4E9F600D211C371E439F01
:1052E000200C311C522D432D20906403259E210D4E
:1052F000971FE71E871F30906503359E200D911D77
:10530000E71E871F60916603659F900DE11C871F54
:10531000249E200D911DE71E871F349E900DE11CD9
:10532000871F649FE00C811D5E9F612D2224332422
:10533000539F600D211C371E4E9F600D211C371E90
:10534000439F200C311C522D432D20906003259E3D
:105350002119970BE70A870B30906103359E2019BE
:105360009109E70A870B60916203659F9019E10834
:10537000870B249E20199109E70A870B349E901908
:10538000E108870B649FE01881090C94492A20905A
:105390006803259E210D971FE71E871F3090690324
:1053A000359E200D911DE71E871F60916A03659F42
:1053B000900DE11C871F249E200D911DE71E871F65
:1053C000349E900DE11C871F649FE00C811D5E9F41
:1053D000612D22243324539F600D211C371E4E9FC4
:1053E000600D211C371E439F200C311C522D432D74
:1053F00020906403259E2119970BE70A870B3090B4
:105400006503359E20199109E70A870B60916603B1
:10541000659F9019E108870B249E20199109E70ADE
:10542000870B349E9019E108870B649FE01881096F
:105430005E9F612D22243324539F600D211C371E53
:105440004E9F600D211C371E439F200C311C522D96
:10545000432D20906003259E210D971FE71E871F77
:1054600030906103359E200D911DE71E871F6091CE
:105470006203659F900DE11C871F249E200D911DE6
:10548000E71E871F349E900DE11C871F649FE00C70
:10549000811D11246A875B874C87ED873E872F87A4
:1054A000FE2CE92E6701F12CE82E2ACE88899989F5
:1054B000815B9F4FDC01CD90DD90ED90FC9020CE84
:1054C000D701C601B695A795979587958C7F9C01C6
:1054D0002A5B384EF90185919491F90132964591F4
:1054E0005491AC2DA770A49F9001A59F300D11245D
:1054F000E3E036952795EA95E1F7821B930B6C0163
:10550000F12CE12C4CCE8091230290912402A091A9
:105510002502B0912602B7FF5FC0E889F989E95BEF
:10552000FF4F408051806280738086E49FE121E0DC
:10553000FC01459155916591749144155505660599
:10554000770548F47694679457944794220F04960D
:105550008816990669F72093280BF0E24F1651043C
:105560006104710428F450E2452E512C612C712CF9
:1055700000E2401A510861087108411428E05206FF
:105580006104710408F431C074E0579EC001112415
:105590008A5B944EFC01329625913491A42D6627A6
:1055A000A39FA001A29F410D561F0694461F561FA0
:1055B000112470E060E0FC0185919491B0E0A0E0DE
:1055C000841B950BA60BB70B8093230290932402A8
:1055D000A0932502B0932602C0902302D09024020B
:1055E000E0902502F0902602CDCAD301C201B69503
:1055F000A795979587958C7F8A5B984EFC0125919E
:105600003491FC01329645915491B42DB770B49FFA
:10561000C001B59F900D112443E0969587954A955A
:10562000E1F7281B390BC901B0E0A0E0CDCFA88974
:10563000B98955964D915D916D917C915897599688
:105640004D905D906D907C905C97FD01EA5BFF4F03
:10565000B081BA8B81E0441555056605770509F0E0
:10566000B1C180E0411551056105710559F09B2FCD
:10567000969591708B2F8095817089272B2F2170A3
:105680009213A0C1E889F989058D168D278D30A167
:10569000011511052105310509F084608093310B56
:1056A00010921F0B1092200B1092210B1092220BC4
:1056B0001092290B10922A0B10922B0B10922C0B8C
:1056C000E889F98985A196A1A7A1B0A58093320B9D
:1056D0009093330BA093340BB093350BCC24DD2483
:1056E0007601C81AD90AEA0AFB0AC0921B0BD092AB
:1056F0001C0BE0921D0BF0921E0BC092170BD09268
:10570000180BE092190BF0921A0BC092130BD09267
:10571000140BE092150BF092160BC0920F0BD09267
:10572000100BE092110BF092120B440F551F661FE5
:10573000771F4093FF0A5093000B6093010B709307
:10574000020B440C551C661C771C4092030B5092B4
:10575000040B6092050B7092060B000F111F221FA5
:10576000331F0093070B1093080B2093090B309302
:105770000A0B41A152A163A174A1440F551F661FDA
:10578000771F40930B0B50930C0B60930D0B709392
:105790000E0B880F991FAA1FBB1F8093FB0A9093C3
:1057A000FC0AA093FD0AB093FE0A1092360B1092E9
:1057B000370B1092380B1092390B82A593A5A4A534
:1057C000B5A580932D0B90932E0BA0932F0BB09328
:1057D000300B86A597A5A0A9B1A98093240B90931F
:1057E000250BA093260BB093270B21A52093FA0A33
:1057F0008091F90AFA898F1309C030912202822F11
:10580000022E000C990B3817190639F0FA88F0921D
:10581000F90A209322020E94CF180E94731A8FEF78
:105820009FEFDC018093230290932402A093250232
:10583000B0932602E889F989FE96E080F180028122
:105840001381A889B989D2962D913D914D915C9192
:10585000D597A55BBF4FB98BA88B6D917D918D912D
:105860009C910E947D181092230BE889F989408051
:1058700051806280738086E49FE121E0FC014591C4
:10588000559165917491441555056605770548F461
:105890007694679457944794220F04968816990635
:1058A00069F72093280BF0E24F165104610471044C
:1058B00028F450E2452E512C612C712C00E2401A44
:1058C000510861087108411428E05206610471040E
:1058D00008F47AC074E0579EC00111248A5B944E8C
:1058E000FC01329625913491A42D6627A39FA00137
:1058F000A29F410D561F0694461F561F112470E0AB
:1059000060E0FC01C590D490F12CE12CC41AD50ABA
:10591000E60AF70AC0923A0BD0923B0BE0923C0B9E
:10592000F0923D0B80913A0B90913B0BA0913C0B78
:10593000B0913D0BAC01BD010097E1E0AE07B105B0
:1059400020F04FEF5FEF60E070E0841B950BA60B3B
:10595000B70B80933A0B90933B0BA0933C0BB09307
:105960003D0BF89480918400909185004096F981D8
:10597000F150F983FF2309F44AC0A40EB51EA816FE
:10598000B90610F40C949223B0928900A09288007A
:10599000789462960FB6F894DEBF0FBECDBFDF914C
:1059A000CF911F910F91FF90EF90DF90CF90BF901C
:1059B000AF909F908F907F906F905F904F903F90AF
:1059C0002F90089582605ECED301C201B695A7954F
:1059D000979587958C7F9C012A5B384EF9018591BC
:1059E0009491F901329645915491B42DB770B49FBA
:1059F0009001B59F300D112443E0369527954A95C7
:105A0000E1F7821B930B6C01F12CE12C83CF5C013D
:105A1000BBCF80EDC82E87E0D82EE12CF12C0C9462
:105A2000CA250F930FB70F9300916E000F930B7F52
:105A300000936E0000916F000D7F00936F000F9335
:105A40000BB70F930CB70F921F922F933F934F9367
:105A50005F936F937F938F939F93AF93BF93EF93D6
:105A6000FF9311240E946923FF91EF91BF91AF91A1
:105A70009F918F917F916F915F914F913F912F9166
:105A80001F900F900CBF0F910BBF0F910260F89405
:105A900000936F000F9100936E000F910FBF0F9155
:105AA00018957F928F929F92AF92BF92CF92DF9282
:105AB000EF92FF920F931F93CF93DF93EC016B0153
:105AC0008881843208F0B4C090E0FC01EE0FFF1F23
:105AD000E80FF91FED57FF4E808161E08F730E9440
