:020000040000FA
:100000000C9424150C9455150C9455150C945515F9
:100010000C9455150C9455150C9455150C945515B8
:100020000C9455150C9445210C9445210C944521B4
:100030000C9455150C9455150C9455150C94551598
:100040000C9455150C94E2240C9455150C945515EC
:100050000C9455150C9455150C94B2220C94FB205D
:100060000C9455150C9447A40C9455150C945515E7
:100070000C9455150C9455150C9455150C94551558
:100080000C948C2F0C9455150C9455150C945515F7
:100090000C9455150C9455150C9455150C94551538
:1000A0000C9455150C9455150C945E2F0C94551505
:1000B0000C9455150C9455150C9455150C94302F23
:1000C0000C9455150C9455150C9455150C94551508
:1000D0000C9455150C9455150C9455150C945515F8
:1000E0000C945515084AD73B3BCE016E84BCBFFD2E
:1000F000C12F3D6C74319ABD56833DDA3D00C77FF8
:1001000011BED9E4BB4C3E916BAAAABE0000008090
:100110003F05A84CCDB2D44EB93836A9020C50B91F
:10012000918688083CA6AAAA2ABE000000803F004B
:100130000C94D71C0C94A51C0C94D5150C94451C40
:100140000C940F170C94821C0C94D5170C948415E6
:100150000C94F6160C94AF1C0C9483170C94F815A1
:100160000C94C31C0C9471380C94E1150C945E38FB
:100170000C9410160C94EE150C94541C0C94E4156D
:100180000C94781C0C943D1C0C944A1C0C947638EE
:100190000C9427370C9471A40C945E1C0C943A3880
:1001A0000C9417370C9414160C94DD150C94961CB3
:1001B0000C94EA150C94FC150C948C1C0C94CF1523
:1001C0000C940A160C9406160C9459380C940E17BD
:1001D0000C94D9150C946B170C94CD1C0C94F4153D
:1001E0000C94681C0C9446380C94701C0C94B91C2C
:1001F0000C940F160C9402164E414E494E49545918
:10020000494E46CDCCCC3D0AD7233C17B7D13877E1
:10021000CC2B329595E6241FB14F0A0000204100F7
:1002200000C84200401C4620BCBE4CCA1B0E5AAE41
:10023000C59D7445340045330045320045310045C5
:1002400030005A32005932005832005A00590058D2
:10025000004C4556454C494E4700434F4D4D554E79
:1002600049434154494F4E0044525952554E00455E
:1002700052524F525300494E464F004543484F009B
:1002800020746F6F206C6F6E672065787472757361
:10029000696F6E2070726576656E7465640A002001
:1002A000636F6C6420657874727573696F6E20700B
:1002B000726576656E7465640A00FFFDFCFAF8F6F7
:1002C000F4F2F0EEECEAE9E7E5E3E1E0DEDCDAD9CE
:1002D000D7D5D4D2D0CFCDCBCAC8C7C5C3C2C0BF73
:1002E000BDBCBAB9B7B6B4B3B2B0AFADACAAA9A8E9
:1002F000A6A5A4A2A1A09E9D9C9A99989795949337
:1003000092908F8E8D8B8A89888786848382818064
:100310007F7E7D7B7A797877767574737271706F72
:100320006E6D6C6B6A696867666564636261605F65
:100330005E5D5C5B5A59585857565554535251504C
:10034000504F4E4D4C4B4A4A494847464645444318
:10035000424241403F3E3E3D3C3B3B3A39383837D4
:10036000363535343332323130302F2E2E2D2C2B82
:100370002B2A292928272726252524232322212122
:1003800020201F1E1E1D1C1C1B1B1A1919181817B4
:100390001616151514131312121111100F0F0E0E3D
:1003A0000D0D0C0C0B0A0A090908080707060605BB
:1003B0000504040303020201000046696C616D65D7
:1003C0006E7420757365643A200053746174733AD7
:1003D00020002C204C6F6E67657374206A6F623A40
:1003E0002000546F74616C2074696D653A2000536D
:1003F000746174733A20002C204661696C65643A1C
:1004000020002C2046696E69736865643A200050AC
:1004100072696E74733A200053746174733A2000E9
:1004200024F4D43050C38E20C2A24017828B7011A6
:10043000127A910D816CD90AA861E108C758660744
:10044000615143061E4B5D05C145A7041A411104C5
:10045000093D9803713931034036DB02653391025F
:10046000D4305402802E1D02632CEE01752AC50182
:10047000B028A001102781018F2564012B244B0196
:10048000E0223401AC211F018D200D01801FFC00F2
:10049000841EED00971DDF00B81CD200E61BC600CD
:1004A000201BBC00641AB200B219A8000A19A000EF
:1004B0006A189900D117910040178B00B516840077
:1004C00031167E00B31579003A157300C7146F001A
:1004D00058146A00EE1366008813630025135E004B
:1004E000C7125B006C12570015125400C111510065
:1004F00070114F0021114B00D61049008D1047009C
:100500004610440002104200C00F4000800F3E0021
:10051000420F3C00060F3B00CB0E3800930E370015
:100520005C0E3500270E3400F30D3200C10D310092
:10053000900D3000600D2E00320D2D00050D2C00A9
:10054000D90C2B00AE0C2900850C29005C0C27006F
:10055000350C27000E0C2600E80B2400C40B2400E9
:10056000A00B23007D0B23005A0B2100390B210027
:10057000180B2000F80A1F00D90A1E00BB0A1E0033
:100580009D0A1D00800A1D00630A1C00470A1B000B
:100590002C0A1B00110A1A00F7091A00DD091900BC
:1005A000C4091900AB091900920917007B0918004A
:1005B000630917004C0916003609160020091600B9
:1005C0000A091500F5081500E0081400CC0814000D
:1005D000B8081400A4081400900813007D08120045
:1005E0006B08130058081200460812003408110066
:1005F000230811001208110001081100F007100073
:10060000E0071000D0071000C0071000B0070F006F
:10061000A107100091070E0083070F0074070F0059
:1006200065070E0057070E0049070E003B070D0037
:100630002E070E0020070D0013070D0006070D0002
:10064000F9060C00ED060D00E0060C00D4060C00C7
:10065000C8060C00BC060C00B0060C00A4060B007B
:1006600099060C008D060B0082060B0077060B0026
:100670006C060B0061060A0057060B004C060A00C8
:1006800042060A0038060A002E060A0024060A005E
:100690001A060A001006090007060A00FD050900EF
:1006A000F4050900EB050900E2050900D905090078
:1006B000D0050900C7050900BE050900B5050800F9
:1006C000AD050800A50509009C0508009405080073
:1006D0008C050800840508007C05080074050800E6
:1006E0006C050700650508005D0507005605080054
:1006F0004E050700470507004005080038050700BC
:10070000310507002A050700230507001C05060020
:10071000160507000F05070008050600020507007B
:10072000FB040600F5040700EE040600E8040600DA
:10073000E2040700DB040600D5040600CF0406002F
:10074000C9040600C3040600BD040600B704060081
:10075000B1040500AC040600A6040600A0040500D0
:100760009B04060095040500900406008A04050019
:1007700085040500800406007A0405007504050060
:10078000700405006B0405006604050061040500A3
:100790005C04050057040500520405004D040500E3
:1007A00048040500430405003E0404003A04050023
:1007B00035040500300404002C040500270404005F
:1007C000230405001E0404001A0404001604050096
:1007D000110404000D0404000904050004040400CD
:1007E00000040400FC030400F8030400F403040004
:1007F000F0030400EC030400E8030400E403040035
:10080000E0030400DC030400D8030400D403040064
:10081000D0030400CC030400C8030300C503030095
:1008200024F404D9201BC40C5C0E9804C4095F0294
:1008300065077101F405F900FB04B3004804870063
:10084000C10369005803550003034500BE023A0086
:100850008402310053022A002902250004022000EC
:10086000E4011C00C8011900AF0117009801140031
:1008700084011300710110006101100051010E008C
:1008800043010D0036010B002B010B0020010B0072
:10089000150109000C01090003010800FB00080014
:1008A000F3000800EB000700E4000600DE0006008D
:1008B000D8000600D2000600CC000500C7000500E5
:1008C000C2000500BD000400B9000400B50004002A
:1008D000B1000400AD000400A9000400A50003005D
:1008E000A20003009F0004009B0003009800030087
:1008F0009500020093000300900003008D000200A9
:100900008B000300880002008600020084000300C0
:10091000810002007F0002007D0002007B000200D7
:1009200079000200770001007600020074000200E6
:1009300072000100710002006F0002006D000100F2
:100940006C0002006A0001006900020067000100FB
:100950006600010065000100640002006200010001
:1009600061000100600001005F0002005D00010005
:100970005C0001005B0001005A0001005900010009
:100980005800010057000100560001005500010009
:100990005400010053000000530001005200010008
:1009A00051000100500001004F0001004E00000006
:1009B0004E0001004D0001004C0001004B00000002
:1009C0004B0001004A0001004900010048000000FE
:1009D00048000100470001004600000046000100F9
:1009E00045000000450001004400010043000000F4
:1009F00043000100420000004200010041000000ED
:100A000041000100400001003F0000003F000100E4
:100A10003E0000003E0001003D0000003D000100DE
:100A20003C0000003C0000003C0001003B000000D6
:100A30003B0001003A0000003A00010039000000CC
:100A400039000100380000003800000038000100C3
:100A500037000000370001003600000036000000BB
:100A600036000100350000003500000035000100AF
:100A700034000000340000003400010033000000A6
:100A8000330000003300010032000000320000009B
:100A9000320001003100000031000000310001008F
:100AA0003000000030000000300001002F00000086
:100AB0002F0000002F0000002F0001002E0000007A
:100AC0002E0000002E0001002D0000002D0000006F
:100AD0002D0000002D0001002C0000002C00000063
:100AE0002C0000002C0001002B0000002B00000057
:100AF0002B0000002B0001002A0000002A0000004B
:100B00002A0000002A00010029000000290000003E
:100B10002900000029000000290001002800000031
:100B20002800000028000000280000002800010024
:100B30002700000027000000270000002700000019
:100B4000270001002600000026000000260000000B
:100B500026000000260001002500000025000000FE
:100B600025000000250000002500000025000100F0
:100B700024000000240000002400000024000000E5
:100B800024000100230000002300000023000000D7
:100B900023000000230000002300000023000100C8
:100BA00022000000220000002200000022000000BD
:100BB00022000000220001002100000021000000AE
:100BC00021000000210000002100000021000000A1
:100BD0002100010020000000200000002000000093
:100BE0002000000020000000200000002000000085
:100BF000200001001F0000001F0000001F00000077
:100C00001F0000001F0000001F0000001F00010067
:100C10001E0000001E0000001E0000001E0000005C
:100C2000393000003325000087190000B00F0000A4
:100C3000DB080000BD040000740200003F0100005A
:100C400023646566696E652044454641554C545F92
:100C50004B64200023646566696E65204445464107
:100C6000554C545F4B69200023646566696E6520AE
:100C700044454641554C545F4B7020005049442038
:100C80004175746F74756E652066696E6973686509
:100C900064212050757420746865206C6173742021
:100CA0004B702C204B6920616E64204B6420636F75
:100CB0006E7374616E74732066726F6D2062656C02
:100CC0006F7720696E746F20436F6E666967757207
:100CD0006174696F6E2E680A005049442041757432
:100CE0006F74756E65206661696C65642120746936
:100CF0006D656F75740A00453220544845524D4168
:100D00004C2052554E4157415900453120544845D9
:100D1000524D414C2052554E41574159005468653F
:100D2000726D616C2052756E617761790045322079
:100D300048656174696E67206661696C6564004529
:100D4000312048656174696E67206661696C65640D
:100D50000048656174696E67206661696C6564004E
:100D6000504944204175746F74756E6520666169E1
:100D70006C6564212054656D70657261747572656F
:100D800020746F6F20686967680A00204B643A20FE
:100D900000204B693A2000204B703A20000A204383
:100DA0006C617373696320504944200A00205475B4
:100DB0003A2000204B753A2000206D61783A2000DF
:100DC000206D696E3A200020643A2000206269613B
:100DD000733A2000504944204175746F74756E65F4
:100DE0002073746172740A00504944204175746F15
:100DF00074756E65206661696C656421204261646A
:100E0000206578747275646572206E756D626572A6
:100E10000A006265640A002C2073797374656D2082
:100E200073746F7070656421204865617465725FCA
:100E300049443A20004265642068656174696E67C0
:100E4000206661696C65640048656174696E67203D
:100E50006661696C65640045312048656174696E3E
:100E600067206661696C656400453220486561747D
:100E7000696E67206661696C6564004865617469C4
:100E80006E67206661696C65640010006003500144
:100E90002C0190012201D001180110020E017002F4
:100EA0000401E002FA006003F0000004E600B00470
:100EB000DC00A005D200B006C8000008BE00A009F2
:100EC000B400800BAA00D00DA00090109600C013B3
:100ED0008C0070178200901B780010206E00C024D8
:100EE0006400E02D500080353C00A03A2800A03D71
:100EF0001400003F0000A03FECFF45322045727215
:100F00003A204D415854454D5000453120457272AC
:100F10003A204D415854454D50004572723A204D8B
:100F2000415854454D5020424544004D4158544588
:100F30004D502074726967676572656400453220A0
:100F40004572723A204D494E54454D50004531206E
:100F50004572723A204D494E54454D5000457272CB
:100F60003A204D494E54454D5020424544004D498C
:100F70004E54454D50207472696767657265640010
:100F8000202F002040002042403A0020403A004FED
:100F9000024D024B024802450242023F023C023926
:100FA0000236023302747275650066616C73650007
:100FB0002074656D706572617475726520707265FC
:100FC0007761726E207472696767657265643A2032
:100FD00000207072657761726E20666C61672063B5
:100FE0006C65617265640A0000002100240027001E
:100FF0002A002D0030003300010100000401070128
:101000000A0100002200250028002B002E003100DC
:10101000340002010000050108010B01000020005E
:101020002300260029002C002F00320000010000C0
:10103000030106010901050505050705080808085B
:10104000020202020A0A0808040404040101010160
:10105000010101010303030303030303040707075B
:101060000C0C0C0C0C0C0C0C020202020606060600
:10107000060606060B0B0B0B0B0B0B0B01021020CD
:1010800020080810204010204080020102010804BE
:101090000201010204081020408080402010080452
:1010A00002018004020180402010080402010804AB
:1010B00002010102040810204080010204081020EF
:1010C000408000000A0B02090C0D0E080703040102
:1010D0000000000000000000000000000000000010
:1010E00000000000000000000000000000001211DD
:1010F00010000000000000000000000000000000E0
:10110000000000000000000047322F4733206261DA
:101110006420706172616D65746572730A003C3C95
:101120003C204732380A003E20686F6D696E6720A8
:101130006E6F74206E65656465642C20736B6970D6
:101140000A003C3C3C204732380A00526169736512
:10115000205A20286265666F726520686F6D696E1F
:10116000672920746F20003E20656E6473746F7071
:10117000732E656E61626C652874727565290A004C
:101180003E3E3E204732380A00205A3A200020597D
:101190003A200042656420583A20004D657368206B
:1011A000706F696E742063616E6E6F74206265206B
:1011B0007265736F6C7665640A005072696E742094
:1011C00074696D653A20006F6666007B0276026F77
:1011D0000268025A02510244454255473A004D31D5
:1011E00031332053006F6B00544845524D414C5FE2
:1011F00050524F54454354494F4E004155544F525D
:1012000045504F52545F53445F535441545553001B
:10121000454D455247454E43595F50415253455203
:1012200000434153455F4C494748545F4252494748
:1012300048544E45535300544F47474C455F4C4923
:101240004748545300534F4654574152455F504FFF
:10125000574552004255494C445F50455243454E14
:1012600054004C4556454C494E475F44415441005B
:101270005A5F50524F4245004155544F4C455645D8
:101280004C005052494E545F4A4F420050524F4713
:1012900052455353004155544F5245504F52545F9D
:1012A00054454D5000564F4C554D455452494300FE
:1012B000454550524F4D0053455249414C5F584FA0
:1012C0004E5F584F4646004649524D574152455F82
:1012D0004E414D453A4D61726C696E204A32304440
:1012E0005F3231303630325F313535385F47562026
:1012F000534F555243455F434F44455F55524C3A17
:1013000068747470733A2F2F6769746875622E63FE
:101310006F6D2F67616E6573686D65762F4A756CAA
:101320006961323031384D61726C696E3131392DFD
:10133000566F6C74657272612050524F544F434F18
:101340004C5F56455253494F4E3A312E30204D4155
:101350004348494E455F545950453A4A756C696156
:101360002050726F204475616C2041424C20323411
:1013700056207769746820544D43207665727369EE
:101380006F6E20666F7220616C6C20455854525508
:101390004445525F434F554E543A322055554944C7
:1013A0003A30313038613539392D336239352D34A1
:1013B0003138362D613633362D3036396562353960
:1013C00038373963300A002F2F2000205400205274
:1013D00000416363656C65726174696F6E3A205099
:1013E000003F4A206F7574206F662072616E6765DA
:1013F0002028302E303120746F20302E33290A00FF
:10140000000020C200007A4300009643546F6F2012
:101410006661722066726F6D207265666572656EB8
:10142000636520706F696E740A00FF010120466CCD
:101430006F773A2000000136372603FFFFFF353C67
:101440003D38FF0FFFFF312E303EFF13FFFFFF2817
:10145000390C0809FFFFFF1A1C18FFFF2A24221E5F
:10146000FFFF2C08440AFF4307FF45206F757420D7
:101470006F662072616E67650A00536572766F2031
:101480000043290A0061626C656420286D696E2042
:1014900074656D702000436F6C642065787472759C
:1014A0006465732061726520004E6F20636173650F
:1014B000206C696768740A004D65736820706F69F5
:1014C0006E742063616E6E6F742062652072657346
:1014D0006F6C7665640A004D34323120696E636F3B
:1014E000727265637420706172616D6574657220DB
:1014F00075736167650A00454550524F4D204F4B4B
:101500000A003F5A206F7574206F662072616E6703
:101510006520282D323020746F203230290A003A9D
:10152000200050726F6265205A204F6666736574A2
:10153000003C3C3C2067636F64655F540A00203ABE
:101540002041465445520A00202063757272656E30
:10155000745F706F736974696F6E3D00203A20424A
:1015600045464F52450A00202063757272656E74BD
:101570005F706F736974696F6E3D003E3E3E206719
:10158000636F64655F54280020503A00205A3A0087
:1015900020593A0020583A00656E6473746F707376
:1015A000206869743A2000556E6B6E6F776E206309
:1015B0006F6D6D616E643A202200203A203C3C3C05
:1015C0002072756E5F7A5F70726F62650A0020200C
:1015D00063757272656E745F706F736974696F6E34
:1015E0003D002044697363726570616E63793A00EF
:1015F000326E642050726F6265205A3A00203A20A1
:101600003C3C3C2072756E5F7A5F70726F62650A57
:1016100000202063757272656E745F706F736974F9
:10162000696F6E3D00534C4F572050726F626520BA
:101630006661696C210A003173742050726F6265B3
:10164000205A3A00203A203C3C3C2072756E5F7A6A
:101650005F70726F62650A00202063757272656E3A
:10166000745F706F736974696F6E3D0046415354C7
:101670002050726F6265206661696C210A00203A11
:10168000203E3E3E2072756E5F7A5F70726F6265BB
:101690000A00202063757272656E745F706F7369E3
:1016A00074696F6E3D003C3C3C2070726F62655FF8
:1016B00070740A0050726F62696E67206661696CAF
:1016C00065640A0050524F42494E475F4641494CBB
:1016D00045440A00205A3A200020593A2000426529
:1016E0006420583A2000203A200A002020637572B6
:1016F00072656E745F706F736974696F6E3D005FC1
:1017000072656C6174697665290A002C20002C20B2
:10171000002C20002C20003E3E3E2070726F62653F
:101720005F707428002066697273740A005A005949
:10173000005800486F6D6520006563686F3A00458A
:101740003220544845524D414C2052554E4157414C
:101750005900453120544845524D414C2052554E78
:10176000415741590042454420544845524D414C4F
:101770002052554E4157415900546865726D616C55
:101780002052756E61776179005072696E7465726E
:101790002068616C7465642E206B696C6C2829204C
:1017A00063616C6C6564210A004572726F723A0065
:1017B0002569730025696D202569730025696820F6
:1017C00025696D20256973002569642025696820D5
:1017D00025696D20256973002569792025696420B4
:1017E0002569682025696D20256973002C20002C4F
:1017F0002000203A2073796E635F706C616E5F70B9
:101800006F736974696F6E0A002020637572726568
:101810006E745F706F736974696F6E3D00656E7191
:1018200075657565696E672022005072696E746512
:10183000722073746F707065642064756520746FB6
:10184000206572726F72732E204669782074686505
:10185000206572726F7220616E6420757365204D11
:1018600039393920746F20726573746172742E2057
:101870002854656D70657261747572652069732096
:1018800072657365742E20536574206974206166D7
:101890007465722072657374617274696E67290A67
:1018A000004E6F20436865636B73756D20776974B4
:1018B00068206C696E65206E756D6265722C204CB7
:1018C000617374204C696E653A2000636865636BD0
:1018D00073756D206D69736D617463682C204C6144
:1018E0007374204C696E653A20004C696E65204E19
:1018F000756D626572206973206E6F74204C617320
:1019000074204C696E65204E756D6265722B312CAA
:10191000204C617374204C696E653A20004D313162
:10192000300020496E76616C696420657874727548
:10193000646572200000000000000000000000004C
:101940000000007A4300007A43000096430A2073A7
:101950006F66745F656E6473746F705F6D6178201D
:101960003D20000A20736F66745F656E6473746F48
:10197000705F6D696E203D20000A20706F7369747E
:10198000696F6E5F7368696674203D20002061781E
:1019900069733A0A20686F6D655F6F666673657478
:1019A000203D2000466F7220003C3C3C20646F5F6D
:1019B000626C6F636B696E675F6D6F76655F746F86
:1019C0000A003E3E3E20646F5F626C6F636B696E1F
:1019D000675F6D6F76655F746F00203A2073657482
:1019E00075705F666F725F656E6473746F705F6F42
:1019F000725F70726F62655F6D6F76650A0020209E
:101A000063757272656E745F706F736974696F6EFF
:101A10003D00203A20636C65616E5F75705F6166A2
:101A20007465725F656E6473746F705F6F725F7000
:101A3000726F62655F6D6F76650A00202063757254
:101A400072656E745F706F736974696F6E3D006468
:101A50006F5F70726F62655F7261697365280064A1
:101A600065706C6F793A2000203A207365745F705E
:101A7000726F62655F6465706C6F7965640A0020DF
:101A80002063757272656E745F706F736974696FCD
:101A90006E3D00203A203C3C3C20646F5F70726FCA
:101AA00062655F6D6F76650A0020206375727265EE
:101AB0006E745F706F736974696F6E3D00203A20B9
:101AC0003E3E3E20646F5F70726F62655F6D6F7641
:101AD000650A00202063757272656E745F706F73A3
:101AE0006974696F6E3D0072657365745F626564E9
:101AF0005F6C6576656C0A002028646F6E65290A44
:101B0000004578747261706F6C617465205B00428F
:101B1000696C696E656172204C6576656C696E678B
:101B200020477269643A0A003C3C3C20646F5F685D
:101B30006F6D696E675F6D6F766528005B00290ABF
:101B4000002C20002C20003E3E3E20646F5F686F1A
:101B50006D696E675F6D6F76652800202864697314
:101B600061626C6564290A0041424C2041646A75D7
:101B700073746D656E74205A002048002057002051
:101B8000590042696C696E65617220477269642010
:101B900058002028656E61626C6564290A0042491C
:101BA0004C494E454152004175746F204265642096
:101BB0004C6576656C696E673A200020262053617B
:101BC0006D65205A20617300204E6F7A7A6C65290A
:101BD0000A0020262041626F76650020262042659B
:101BE0006C6F77002D4261636B0020285269676833
:101BF0007400205A3A0020593A0050726F626520F2
:101C00004F666673657420583A004649585F4D4FD9
:101C1000554E5445445F50524F42450A0050726F32
:101C200062653A2000436F72650A004D616368691E
:101C30006E6520547970653A20003C3C3C20473268
:101C4000390A0020636F72726563746564205A3AC2
:101C50000047323920756E636F7272656374656414
:101C6000205A3A00203A203E2070726F62696E67F7
:101C700020636F6D706C6574650A00202063757257
:101C800072656E745F706F736974696F6E3D00206A
:101C90002844525952554E29004732392041757413
:101CA0006F20426564204C6576656C696E67003F05
:101CB00020284C2C522C462C4229206F7574206F02
:101CC0006620626F756E64732E0A003F2856296580
:101CD00072626F7365206C6576656C20697320692C
:101CE0006D706C61757369626C652028302D3429C4
:101CF0002E0A00426164205A2076616C75650A00E4
:101D00004E6F2062696C696E6561722067726964EA
:101D10000A003C3C3C204732390A003E20417574A1
:101D20006F2D6C6576656C206E6F74206E656564D2
:101D300065642C20736B69700A004732380A473299
:101D400039003E204E6F7420686F6D65642E20450B
:101D50006E7175657565696E672047323820666FEC
:101D60006C6C6F776564206279204732390A0020F5
:101D70003A203E3E3E204732390A002020637572E9
:101D800072656E745F706F736974696F6E3D005039
:101D9000726F7465637465642050696E0A005374D1
:101DA000616E6461726420446576696174696F6E06
:101DB0003A20002052616E67653A2000204D61781C
:101DC0003A2000204D696E3A20004D65616E3A2040
:101DD0000046696E6973686564210A002072616E4D
:101DE00067653A2000206D61783A2000206D696EA9
:101DF0003A2000207369676D613A2000206D6561AB
:101E00006E3A20003A207A3A2000206F66200020A7
:101E10005A00205900205800476F696E6720746F80
:101E20003A00436C6F636B776973650A00436F75A3
:101E30006E7465722D0020446972656374696F6EFB
:101E40003A2000202020616E676C653A20005374B0
:101E5000617274696E67207261646975733A2000FB
:101E6000506F736974696F6E696E6720746865205E
:101E700070726F62652E2E2E0A003F4E756D626580
:101E800072206F66206C65677320696E206D6F76B7
:101E9000656D656E74206E6F7420706C617573690A
:101EA000626C652028302D3135292E0A003F20280C
:101EB000582C5929206F7574206F6620626F756EDB
:101EC00064732E0A003F53616D706C652073697AEC
:101ED00065206E6F7420706C61757369626C65202B
:101EE00028342D3530292E0A004D3438205A2D50F3
:101EF000726F6265205265706561746162696C69B8
:101F0000747920546573740A003F285629657262FB
:101F10006F7365206C6576656C20697320696D70E0
:101F20006C61757369626C652028302D34292E0A26
:101F30000020573A0020573A00205A3A0020423AEF
:101F40000020436F756E7420413A0020453A00200E
:101F50005A3A0020593A00583A003A004361703A20
:101F600000205A00205900580020204D61783A2066
:101F700000205A00205900580020204D696E3A2058
:101F8000004F6E20004F666600536F667420656ECA
:101F90006473746F70733A2000496E76616C696483
:101FA0002065787472756465720A0020643A0020B6
:101FB000693A0020703A00426564204C6576656C91
:101FC000696E6720004661696C656420746F2065E6
:101FD0006E61626C6520426564204C6576656C6953
:101FE0006E670A00496E76616C6964206578747268
:101FF000756465720A00416374697665204578747A
:1020000072756465723A2000203A204D6F76652023
:102010006261636B0A00202064657374696E617489
:10202000696F6E3D002C20636F7272656374656426
:102030002063757272656E745F706F736974696F17
:102040006E5B5A5F415849535D3D0046573A2053F5
:10205000746F70205A2063726173682C20657870E9
:1020600065637465642063757272656E745F706F0A
:10207000736974696F6E5B5A5F415849535D3D00E7
:10208000207D0A002C20004F666673657420546F13
:102090006F6C205859206279207B200046573A20E7
:1020A0004368616E67696E672064657374696E6109
:1020B00074696F6E5B585F415849535D20746F209F
:1020C00073746F702063726173682C20646573741D
:1020D000696E6174696F6E5B585F415849535D3D2D
:1020E000002C2073746F705F785F63726173683D5A
:1020F0000046573A20746D705F785F6D6F76653D6E
:10210000002C2073746F705F7A5F63726173683D37
:102110000046573A20746D705F7A5F6D6F76653D4B
:10212000004E6F206D6F7665206F6E20746F6F6C40
:102130006368616E67650A00526573656E643A2074
:102140000020746F6F206C6F6E67206578747275F5
:1021500073696F6E2070726576656E7465640A00CF
:1021600020636F6C6420657874727573696F6E207C
:1021700070726576656E7465640A00627573793A8B
:102180002070617573656420666F7220696E70756A
:10219000740A00627573793A207061757365642002
:1021A000666F7220757365720A00627573793A20E2
:1021B00070726F63657373696E670A004B494C4CAC
:1021C0002063617573656420627920746F6F206D80
:1021D00075636820696E6163746976652074696DE2
:1021E00065202D2063757272656E7420636F6D6D4E
:1021F000616E643A20002020506C616E6E65724200
:10220000756666657242797465733A20002046727D
:102210006565204D656D6F72793A2000436F6D7072
:10222000696C65643A205365702031382032303251
:10223000310A00207C20417574686F723A20467222
:1022400061636B74616C20576F726B730A0032307C
:1022500032312D30372D31342031353A35380020A8
:102260004C61737420557064617465643A20004257
:1022700075696C643A204A3230445F32313036300E
:10228000325F313535385F47560A00467261636BFD
:1022900074616C20576F726B73204A756C69612092
:1022A00050726F204475616C2041424C203234568C
:1022B000207769746820544D432076657273696F86
:1022C0006E20666F7220616C6C0A00312E312E39DF
:1022D0000A004D61726C696E0020536F66747761FD
:1022E00072652052657365740A00205761746368D3
:1022F000646F672052657365740A002042726F77BD
:102300006E206F75742052657365740A00204578DD
:102310007465726E616C2052657365740A00506F4B
:1023200077657255700A0073746172740A002064D4
:1023300072697665722063757272656E743A2000F8
:102340003C3C3C207365745F617869735F69735FBF
:1023500061745F686F6D652800203A200A002020B4
:1023600063757272656E745F706F736974696F6E96
:102370003D005D203D20003E20686F6D655F6F660B
:10238000667365745B003E3E3E207365745F6178E2
:1023900069735F69735F61745F686F6D65280000C2
:1023A000004842000048420000A0410000000057E1
:1023B00061726E696E673A20486F6D696E67204280
:1023C000756D702044697669736F72203C20310A04
:1023D000000202040000A0400000A04000000040F5
:1023E00000007A4300007A43000096433C3C3C20C6
:1023F000686F6D65617869732800203A203E20413E
:1024000046544552207365745F617869735F6973E0
:102410005F61745F686F6D650A002020637572727A
:10242000656E745F706F736974696F6E3D00486F9D
:102430006D65203220536C6F773A0A004D6F7665D8
:1024400020417761793A0A00486F6D652031204656
:102450006173743A0A003E3E3E20686F6D65617894
:1024600069732800486F74656E64206F66667365D3
:1024700074733A003A200020536572766F20006F23
:102480006B004572726F722077726974696E672093
:10249000746F20454550524F4D210A00454550521A
:1024A0004F4D206461746173697A65206572726F43
:1024B000722E0A00290A002062797465733B20633A
:1024C0007263200053657474696E67732053746F70
:1024D000726564202800290A002062797465733BC4
:1024E0002063726320002073746F726564207365CB
:1024F0007474696E67732072657472696576656459
:10250000202800202863616C63756C617465642900
:10251000210A0020213D2000454550524F4D2043C7
:102520005243206D69736D61746368202D20287398
:10253000746F7265642920002053697A653A20001F
:10254000496E6465783A2000204D61726C696E3D79
:10255000563535290A0028454550524F4D3D004516
:102560004550524F4D2076657273696F6E206D69CC
:10257000736D61746368200048617264636F6465A1
:10258000642044656661756C742053657474696E6B
:102590006773204C6F616465640A00DC050000DC31
:1025A00005000032000000102700000000964300E4
:1025B0000096430000A041000034420000C84200E1
:1025C00000C842F0F7FB4300000C4320204D393097
:1025D00036003A0A0020286D6D290020543120452C
:1025E00000205430204500205A0020590020580077
:1025F00053746570706572206472697665722063C9
:10260000757272656E743A0A0020204D383531209B
:102610005A005A2D50726F6265204F66667365745A
:102620000020440020490020204D3330312050004C
:1026300020440020490020500020204D333031201C
:1026400045005049442073657474696E67733A0A93
:1026500000205A00204A00202047323920572049C4
:102660000020204D3432302053004175746F2042D9
:102670006564204C6576656C696E673A0A00205A7D
:102680000020590020580020204D323138205400BD
:10269000486F74656E64206F6666736574733A0A7A
:1026A00000205A0020590020204D3230362058009A
:1026B000486F6D65206F66667365743A0A00204A3C
:1026C0000020540020530020204D3230352042009D
:1026D000204A3C6A756E635F6465763E00416476AD
:1026E000616E6365643A20423C6D696E5F73656735
:1026F0006D656E745F74696D655F75733E20533CE4
:102700006D696E5F66656564726174653E20543CF8
:102710006D696E5F74726176656C5F666565647223
:102720006174653E0020540020520020204D32305C
:1027300034205000416363656C65726174696F6E2B
:102740002028756E6974732F7332293A20503C70BB
:1027500072696E745F616363656C3E20523C7265A2
:1027600074726163745F616363656C3E20543C7492
:10277000726176656C5F616363656C3E0A0020453B
:1027800000205A0020590020204D323031205800BE
:102790004D6178696D756D20416363656C6572612B
:1027A00074696F6E2028756E6974732F7332293ABD
:1027B0000A00204500205A0020590020204D3230C8
:1027C000332058004D6178696D756D2066656564CC
:1027D00072617465732028756E6974732F73293A5A
:1027E0000A00204500205A0020590020204D39328F
:1027F00020580053746570732070657220756E697F
:10280000743A0A0020204D3230302044300A002033
:10281000204D32303020543120440020204D3230C1
:10282000302044002044697361626C65640A00468C
:10283000696C616D656E742073657474696E67731D
:102840003A002020473231202020203B007A5F7060
:10285000726F62653A20007A5F6D61783A20007984
:102860005F6D61783A2000785F6D696E3A200052A2
:1028700065706F7274696E6720656E6473746F70D3
:10288000207374617475730A000000000100000079
:1028900001000080005555550000004000333333DF
:1028A00000AAAA2A004992240000002000C7711C37
:1028B0000099991900D1451700555515003BB113E2
:1028C000002449120011111100000010000F0F0F19
:1028D00000E3380E0043790D00CCCC0C00C3300C63
:1028E00000E8A20B0064210B00AAAA0A00703D0AAE
:1028F000009DD80900427B090092240900DCD3081E
:1029000000888808001042080000000800F0C10795
:10291000008787070075500700711C07003EEB0613
:1029200000A1BC06006990060066660600703E06BF
:10293000006118060017F4050074D105005BB005AE
:1029400000B2900500627205005555050078390502
:1029500000B81E0500050505004EEC040087D404F0
:1029600000A1BD040090A7040049920400C17D04A9
:1029700000EE690400C7560400444404005C3204BD
:10298000000821040041100400000004003FF0038F
:1029900000F8E0030026D20300C3C30300CCB50354
:1029A000003AA803000A9B0300388E0300C081038D
:1029B000009F750300D0690300505E03001D5303A0
:1029C0000034480300913D0300333303001629030C
:1029D00000381F030097150300300C0300030303A6
:1029E000000BFA020049F10200BAE802005CE002C2
:1029F000002DD802002DD0020059C80200B0C0023C
:102A00000031B90200DAB10200AAAA0200A0A302B2
:102A100000BC9C0200FA9502005C8F0200DF880275
:102A20000082820200457C020027760200277002A5
:102A300000436A02007C640200D05E02003F59023B
:102A400000C85302000071A411241FBECFEFD1E2D1
:102A5000DEBFCDBF00E00CBF13E0A0E0B2E0E2EDCE
:102A6000F4E901E00BBF02C007900D92A637B10751
:102A7000D9F721E1A6E7B3E001C01D92A936B2075C
:102A8000E1F715E1C4E2D5E100E006C021970109B4
:102A9000802FFE010E94E8C9C332D10780E00807F9
:102AA000A9F70E94CBA50C9467CA0C9400000F9361
:102AB0001F93CF93DF93582FFC0180E077E0919133
:102AC00048E0282F30E0A92FB0E08901000F012F46
:102AD000001F110B9170C92F90E0D92F880F0C1790
:102AE0001D0721F0C901880F991F8727B595A79564
:102AF0009A2F415031F79E2F951B961700F3DF91C7
:102B0000CF911F910F910895AF92BF92CF92DF9214
:102B1000EF92FF920F931F93CF93DF936C017B0192
:102B20008B01040F151FEB015E01AE18BF08C01723
:102B3000D10759F06991D601ED91FC910190F08196
:102B4000E02DC6011995892B79F7C501DF91CF9149
:102B50001F910F91FF90EF90DF90CF90BF90AF90BB
:102B600008958150823108F05AC0E82FF0E088279C
:102B7000E354FA4E8F4F0C94E8C9DD15E115CF15DB
:102B8000D515D9150F16E415EA15EE15F415F81537
:102B9000FC15021606160F160A161016141680914A
:102BA00080008F77809380000895809180008F7DD2
:102BB000F9CF80918000877FF5CF84B58F7784BD72
:102BC000089584B58F7DFBCF8091B0008F7780937F
:102BD000B00008958091B0008F7DF9CF8091900072
:102BE0008F77809390000895809190008F7DF9CF2A
:102BF00080919000877FF5CF8091A0008F778093A0
:102C0000A00008958091A0008F7DF9CF8091A00051
:102C1000877FF5CF809120018F77809320010895E1
:102C2000809120018F7DF9CF80912001877FF5CFA2
:102C3000CF93DF93282F30E0F901EE53FF4E8491BC
:102C4000F901E458FF4ED491F901EA5CFF4EC491BA
:102C5000CC23A1F081110E94B115EC2FF0E0EE0F12
:102C6000FF1FE45EFF4EA591B491EC91ED2381E04E
:102C700090E009F480E0DF91CF91089580E090E04A
:102C8000FACF1F93CF93DF93282F30E0F901EE5353
:102C9000FF4E8491F901E458FF4ED491F901EA5CAA
:102CA000FF4EC491CC23A9F0162F81110E94B115BB
:102CB000EC2FF0E0EE0FFF1FEE5FFF4EA591B491F9
:102CC0008FB7F894EC91111108C0D095DE23DC93F6
:102CD0008FBFDF91CF911F910895DE2BF8CF7894AD
:102CE00084B5826084BD84B5816084BD85B5826011
:102CF00085BD85B5816085BDEEE6F0E080818160AF
:102D00008083E1E8F0E010828081826080838081AE
:102D100081608083E0E8F0E0808181608083E1EB86
:102D2000F0E0808184608083E0EBF0E0808181606E
:102D30008083E1E9F0E0808182608083808181602E
:102D40008083E0E9F0E0808181608083E1EAF0E067
:102D5000808182608083808181608083E0EAF0E00E
:102D6000808181608083E1E2F1E080818260808304
:102D7000808181608083E0E2F1E0808181608083F6
:102D8000EAE7F0E0808184608083808182608083D4
:102D90008081816080838081806880831092C100FF
:102DA00008953FB7F8948091910F9091920FA09160
:102DB000930FB091940F26B5A89B05C02F3F19F033
:102DC0000196A11DB11D3FBFBA2FA92F982F8827AB
:102DD000BC01CD01620F711D811D911D42E0660F86
:102DE000771F881F991F4A95D1F7089520918A0F60
:102DF00030918B0F2817390771F49091890F8091CA
:102E0000880F981741F0E091890FF0E0E85BF04FF0
:102E1000808190E008958FEF9FEF08950895EF92DD
:102E2000FF920F931F93CF93DF93DC015C96ED909D
:102E3000FC905D97E114F10479F481E090E0139641
:102E40009C938E93129790E080E0DF91CF911F9139
:102E50000F91FF90EF9008955196ED91FC9152974C
:102E600050968C915097982F90950FB75E962C9115
:102E70005E97122F127021FD6095F8942081112326
:102E800019F1282B2083E7012197F1F728E0462F3D
:102E900050E0308160FF1AC0382B3083E701219762
:102EA000F1F7BA0175956795215089F7112381F0E3
:102EB0008081892380830FBF5C968D919C910197BF
:102EC000F1F781E090E0C1CF2923DCCF3923E5CFB2
:102ED0009081892BEFCF20918A0F30918B0F28178B
:102EE000390771F48091880F2091890F90E0805C00
:102EF0009F4F821B910960E470E00E94D4C908953D
:102F000090E080E0089520918A0F30918B0F281770
:102F10003907B9F49091890F8091880F981789F03B
:102F2000E091890FF0E0E85BF04F80812091890FFC
:102F300030E02F5F3F4F2F7333272093890F90E0AE
:102F400008958FEF9FEF0895CF93DF93FC01828D5B
:102F5000938D892B41F1A0918A0FB0918B0FAE1701
:102F6000BF0709F1109751F05396CD91DC9154971A
:102F7000988155968C91809589238883868D8E7F44
:102F8000868F1092880F1092890FF0938B0FE09329
:102F90008A0FA389B4898C919589892B8C9381E0C0
:102FA000DF91CF91089580E0FBCF90E080E008951D
:102FB000BC012091E30E3091E40E4091E30E50915C
:102FC000E40E2417350731F481E02617370709F09E
:102FD00080E008959A01F1CFEF92FF920F931F9333
:102FE000E0926B09F0926C0900936D0910936E09E1
:102FF0006093700970937109809372099FEFFF27A6
:10300000621B730B840B30F4809570956195790B7E
:10301000890B99279093F20FA6E06A9F0092E60F22
:10302000512DEE277A9F500DE11D8A9FE00D5093A0
:10303000E70FE093E80FAFE06A9F0092EA0F512D8F
:10304000EE277A9F500DE11D8A9FE00D5093EB0F04
:10305000E093EC0FAAE06A9F0092EE0F512DEE274D
:103060007A9F500DE11D8A9FE00D5093EF0FE09382
:10307000F00F1F910F91FF90EF9008958091140E23
:103080009091150E891B8F7019F490E080E00895DF
:103090009091110E992351F0833030F48FEF890F06
:1030A00019F08093110EF1CF1092110E8091150E30
:1030B0002DE5829FC001112485569C4FFC01208183
:1030C00020FDE3CF2091150E2F5F2F702093120E5D
:1030D0003091150E2091130E321304C02091120E60
:1030E0002093130E0895AF92BF92CF92DF92EF928A
:1030F000FF920F931F93CF93DF936B017A01EC0143
:10310000C756D14F28813CE0389F8001399F100D70
:103110001124A090E50FB12C27FF1FC0FB011182E5
:10312000108288818F5F888388819801280F311DE4
:1031300087FD3A95F6012A153B051CF488818C30F1
:10314000C4F180819181049680349C4908F473C055
:10315000F60180819181049670C088819801280FC2
:10316000311D87FD3A952A153B05DCF68881A801BB
:10317000480F511D87FD5A95FA01EE0FFF1FE40F0E
:10318000F51FEA5EF14F808186FFCBCF8881F80181
:10319000E80FF11D87FDFA95CF01EE0FFF1FE80F35
:1031A000F91FEA5EF14F808160E08F730E94411643
:1031B000B8CF808191812881A801420F511D27FD40
:1031C0005A959A01FA01EE0FFF1FE20FF31FEA5E14
:1031D000F14F21813281820F931FF7019183808308
:1031E00088819801280F311D87FD3A95F901EE0F6E
:1031F000FF1FE20FF31FEA5EF14F808186FF22C0BE
:103200008881080F111D87FD1A95F801EE0FFF1F29
:10321000E00FF11FEA5EF14F808161E08F73DF9173
:10322000CF911F910F91FF90EF90DF90CF90BF90C3
:10323000AF900C94411680E49CE9F7019183808360
:103240008FEF8883DF91CF911F910F91FF90EF90C7
:10325000DF90CF90BF90AF9008958091140E909121
:10326000150E891B80958F7019F40E945F7CF5CF35
:103270008091140E8F5F8F70E091140E9DE5E99F91
:10328000F0011124E556FC4FDF011D929A95E9F7F4
:1032900098E090834091D50F5091D60F6091D70F51
:1032A0007091D80F458B568B678B708F4091D90FDB
:1032B0005091DA0F6091DB0F7091DC0F418F528FCC
:1032C000638F748F4091DD0F5091DE0F6091DF0F9F
:1032D0007091E00F458F568F678F70A34091E10F7B
:1032E0005091E20F6091E30F7091E40F41A352A35C
:1032F00063A374A32091140E9091150E291303C09B
:1033000094E69093110E8093140E80916F0082606A
:1033100080936F0008959091140E8091150E98136C
:1033200008C08091990990919A09892B11F40C9405
:103330000D610E945F7CEFCFEF92FF920F931F937E
:10334000CF93DF93CDB7DEB769970FB6F894DEBFA2
:103350000FBECDBF08E114E0F80184910F5F1F4F4D
:1033600081110BC00FE014E0F80184910F5F1F4F33
:10337000882331F00E940764F7CF0E940764ECCFE6
:1033800060918B0370918C0390E080E04AE00E9492
:10339000F96E02E014E0F80184910F5F1F4F88235B
:1033A00019F00E940764F7CF60918D0370918E032E
:1033B00090E080E04AE00E94F96E07EF13E0F80128
:1033C00084910F5F1F4F882319F00E940764F7CF85
:1033D00060918B0370918C0380918D0390918E038B
:1033E000681B790B8091E909815021E030E082303F
:1033F00010F030E020E0621B730B90E080E04AE0C8
:103400000E94F96E8AE00E9407640FEE13E0F80153
:1034100084910F5F1F4F882319F00E940764F7CF34
:1034200080918F0390919003A0919103B0919203AA
:103430008E8B9F8BA88FB98FBE016F5F7F4FCE01A0
:1034400046960E94216302EE13E0F80184910F5F1B
:103450001F4F81110CC0CE0101967C018C01F80137
:1034600081918F01882331F00E940764F8CF0E9478
:103470000764EBCF8091930390919403A0919503FF
:10348000B09196038E8B9F8BA88FB98FBE016F5F13
:103490007F4FCE0146960E94216302ED13E0F801B2
:1034A00084910F5F1F4F882319F00E940764F7CFA4
:1034B000F70181917F01882319F00E940764F8CFFA
:1034C0008AE00E9407640AEC13E0F80184910F5F20
:1034D0001F4F81110BC00AEB13E0F80184910F5FBD
:1034E0001F4F882331F00E940764F7CF0E940764C2
:1034F000ECCF20E030E04AE754E46091970370910C
:1035000098038091990390919A030E949CC742E08E
:103510000E9421708DE60E9407648AE00E94076481
:1035200069960FB6F894DEBF0FBECDBFDF91CF9185
:103530001F910F91FF90EF9008950F931F93CF93DA
:10354000DF93182F092FC9EAD7E1FE018491219654
:1035500081110AC0C12FD02FFE01849121968823AA
:1035600031F00E940764F8CF0E940764EECF6091AB
:103570008C0C70918D0C80918E0C90918F0C0E9410
:10358000A16F8AE00E9407640E94BD6F10928B0CAD
:1035900010928A0CDF91CF911F910F910895FF92A5
:1035A0000F931F93CF93DF938091890C082F0270A4
:1035B000182F1470982F9170F92E80FD11C0C9E357
:1035C000D7E1FE0184912196811115C0C3E3D7E1B3
:1035D000FE0184912196882389F00E940764F8CF28
:1035E000002369F380E0112351F3DF91CF911F9104
:1035F0000F91FF9008950E940764E3CFF1100AC075
:10360000C1E3D7E1FE0184912196882319F00E943D
:103610000764F8CF01110AC0CFE2D7E1FE0184911F
:103620002196882319F00E940764F8CF11110AC06F
:10363000CDE2D7E1FE0184912196882319F00E9402
:103640000764F8CFC5E2D7E1FE0184912196882373
:1036500019F00E940764F8CF81E0C7CFFC01DB01BD
:103660008C9120813181382798E0A901220F331FE6
:1036700057FD05C09150C9F7318320830895B1E209
:103680002B27B0E13B27F6CFDC0155962C915597BF
:10369000222309F488C05396ED91FC91138E128E6B
:1036A000118E108E178A168A8FE190E0958F848F85
:1036B000848596EF980F943048F02EEC280F243034
:1036C00028F022EC280F283008F050C021E030E02C
:1036D000378B268B2DE130E0318F208F2DE030E0CD
:1036E000338F228F943050F02EEC280F243030F09E
:1036F00022EC280FB0E0A0E0283010F4A8E6B0E0FB
:103700002C91943020F032EC380F383090F131E0C9
:10371000232B943048F09EEC980F943028F08E5371
:10372000B0E0A0E0883010F4A8E6B0E02C938485E7
:1037300096EF980F9430F8F02EEC280F2430D8F044
:1037400022EC280F2830D0F030E020E0348B238B9F
:103750009430B8F48650990B91E001C0990F8A9586
:10376000EAF7958B848D958D0197F1F7CF010C9435
:10377000A41734E0CDCF2BE630E0E8CF2DE630E0E3
:10378000E5CF98E0823369F394E0833351F392E01C
:10379000843339F392EC980F983018F48E53990BC8
:1037A000DBCF91E0DECF0895CF93DF9390E0FC0173
:1037B000E458FF4E24918A5C9F4EFC01849188233B
:1037C000D1F090E0880F991FFC01E851F04FA591CE
:1037D000B491FC01EE5FFF4EC591D49161110EC012
:1037E0009FB7F8948C91E22FE0958E238C932881DB
:1037F000E223E8839FBFDF91CF9108958FB7F894BC
:10380000EC91E22BEC938FBFF6CF1F93CF93DF9316
:10381000182FEB0161E00E94D41B209739F460E07F
:10382000812FDF91CF911F910C944116CF3FD1058D
:1038300011F461E0F5CFE12FF0E0EE53FF4EE4919B
:10384000E150E23108F0B3C0F0E08827E55DF34EC7
:103850008F4F0C94E8C93D1C451C4A1C541C5E1C2F
:10386000D71C681C701C781C821C8C1C961CA51C08
:10387000AF1CD71CB91CC31CCD1C84B5806884BD8B
:10388000C7BDDF91CF911F91089584B5806284BD3B
:10389000C8BDF7CF80918000806880938000D0936E
:1038A0008900C0938800EDCF809180008062809372
:1038B0008000D0938B00C0938A00E3CF809180007A
:1038C000886080938000D0938D00C0938C00D9CF06
:1038D0008091B00080688093B000C093B300D1CFD6
:1038E0008091B00080628093B000C093B400C9CFD3
:1038F00080919000806880939000D0939900C0934D
:103900009800BFCF80919000806280939000D09308
:103910009B00C0939A00B5CF8091900088608093FF
:103920009000D0939D00C0939C00ABCF8091A000ED
:1039300080688093A0008091A0008F7B8093A0007E
:10394000D093A900C093A8009CCF8091A000806272
:103950008093A000D093AB00C093AA0092CF809137
:10396000A00088608093A000D093AD00C093AC000D
:1039700088CF80912001806880932001D093290115
:10398000C09328017ECF8091200180628093200126
:10399000D0932B01C0932A0174CF809120018860BD
:1039A00080932001D0932D01C0932C016ACFC038A1
:1039B000D1050CF03ECF33CF8F929F92AF92BF9242
:1039C000CF92DF92EF92FF926B017C010E94D116A1
:1039D0004B015C01C114D104E104F104B9F00E946F
:1039E000D116681979098A099B09683E73408105D7
:1039F000910580F321E0C21AD108E108F10888EEB0
:103A0000880E83E0981EA11CB11CE4CFFF90EF90BC
:103A1000DF90CF90BF90AF909F908F900895CF92FE
:103A2000DF92EF92FF920F931F93CF93DF9300D01B
:103A300000D01F921F92CDB7DEB77C018E010F5FC1
:103A40001F4F88E0D8011D928A95E9F785E08983A8
:103A50006B835C834D833E832F8367E0C8010E94A4
:103A600057158887F70185899E01275F3F4F6901B8
:103A7000882379F1D70153968D919C91F80161913A
:103A80008F01DC01ED91FC910190F081E02D199501
:103A9000F70120813181820F931F91838083C016AB
:103AA000D10641F7D70116966D917C9190E080E0A8
:103AB0000E94DC1C28960FB6F894DEBF0FBECDBF67
:103AC000DF91CF911F910F91FF90EF90DF90CF90FA
:103AD0000895D70151968D919C91F80161918F01C4
:103AE000DC01ED91FC910190F081E02D1995F70139
:103AF00020813181820F931F918380830C151D05D6
:103B000041F7D0CF2F923F924F925F926F927F9268
:103B10008F929F92AF92BF92CF92DF92EF92FF92DD
:103B20000F931F93CF93DF93CDB7DEB72C970FB6CC
:103B3000F894DEBF0FBECDBF7C011B018EEA97E477
:103B4000A1EEBDE3F70182839383A483B58390E064
:103B500080E00E941EC225ED34E045E352E40E945D
:103B60007FC220E030E04AE754E40E949CC74B014A
:103B70005C0128EB3EE145E05EE30E947FC226E661
:103B800036E646EA5EE30E949CC720E030E040E86B
:103B90005FE30E94A1C60E9415C8462EFFE0F617FB
:103BA00008F489C0F701FE9620813181428153815A
:103BB000426020833183428353836CEEC7010E94AD
:103BC0000F1D2AE037ED43EA5CE3D70112966D91B1
:103BD0007D918D919C9115970E94A2C6A50194019B
:103BE0000E947FC22CEE31E548E35EE30E949CC751
:103BF00020E030E040E85FE30E94A1C60E9415C8C3
:103C0000462EF70126A537A540A951A9307E842D5F
:103C100090E0B0E0A0E0BA2FA92F982F882788273E
:103C20009F71AA27BB27282B392B4A2B5B2B26A752
:103C300037A740AB51AB60E9C7010E940F1D642D4F
:103C400070E090E080E00E9420C220E030E040E0A0
:103C50005FE30E947FC20E9415C86F71F70126A51D
:103C600037A540A951A9207E262B26A737A740AB10
:103C700051AB60E9C7010E940F1DF701E55BFF4FE3
:103C8000318220822C960FB6F894DEBF0FBECDBFD6
:103C9000DF91CF911F910F91FF90EF90DF90CF9028
:103CA000BF90AF909F908F907F906F905F904F905C
:103CB0003F902F900895F701E65BFF4F80818111BF
:103CC0004BC119861A861B861C8685E089878CE67F
:103CD0008B8763E0CE0109960E9457158C87F70108
:103CE0008589882309F475C0838994890E94A41763
:103CF000D70116966D907C90179753968D909C9057
:103D0000D401ED91FC910084F185E02DC401199559
:103D1000181619064CF4D401ED91FC910284F38538
:103D2000E02DC4011995ECCFFE0139965F016E01BB
:103D3000FDE0CF0ED11CD5016D915D01D401ED9157
:103D4000FC910190F081E02DC4011995CA14DB04A7
:103D500091F704E010E0D401ED91FC910284F38529
:103D6000E02DC401199501501109A9F7B30190E0A4
:103D700080E00E94DC1C10E0712CA12CB12CC12C25
:103D8000D12C512C612CD401ED91FC910084F18552
:103D9000E02DC4011995181619060CF086C0D4013F
:103DA000ED91FC910284F385E02DC4011995E82F73
:103DB000212F372DA501B601852D962D08E00E94F3
:103DC000F0C91E2F122B732E5A016B01582E692E2B
:103DD000DACF6680778081889288D401ED91FC915A
:103DE0000084F185E02DC4011995181619064CF4CC
:103DF000D401ED91FC910284F385E02DC401199565
:103E0000ECCFFE0139965F016E01FDE0CF0ED11CB3
:103E1000D5016D915D01D401ED91FC910190F0818E
:103E2000E02DC4011995CA14DB0491F704E010E0F9
:103E3000D401ED91FC910284F385E02DC401199524
:103E400001501109A9F7B30190E080E00E94DC1C49
:103E500010E0712CA12CB12CC12CD12C512C612C37
:103E6000D401ED91FC910084F185E02DC4011995F8
:103E700018161906D4F4D401ED91FC910284F3854F
:103E8000E02DC4011995E82F212F372DA501B6018A
:103E9000852D962D08E00E94F0C91E2F122B732E3F
:103EA0005A016B01582E692EDBCF212F372DA5012A
:103EB000B601852D962D08E30E940BCA2983212F78
:103EC000372DA501B601852D962D00E30E940BCA62
:103ED0002A83212F372DA501B601852D962D08E2C5
:103EE0000E940BCA2B83212F372DA501B601852DEA
:103EF000962D00E20E940BCA2C83212F372DA5019D
:103F0000B601852D962D08E10E940BCA2D83212F25
:103F1000372DA501B601852D962D00E10E940BCA13
:103F20002E83212F372DA501B601852D962D08E072
:103F30000E940BCA022FB32E6A012F83188767E0F5
:103F4000CE0101960E945715181306C0F701FE9680
:103F50000083B182C282D382F701FE968081918173
:103F6000A281B381A1FF4DCE9C01AD014D7F208385
:103F70003183428353836CEEC7010E940F1D41CEF3
:103F80000F931F93CF93DF93EC012E893F89488DC8
:103F9000598D20642E8B3F8B488F598F60E80E948B
:103FA0000F1D2E893F89488D598D20682E8B3F8BA0
:103FB000488F598F60E8CE010E940F1D2E893F89DE
:103FC000488D598D2E7F2E8B3F8B488F598F60E8FF
:103FD000CE010E940F1D60E273E0CE010E94821D9F
:103FE0008E01025C1F4FF801208131814281538193
:103FF000507F546020833183428353836CEECE0123
:104000000E940F1DF80120813181428153813F7749
:104010004E7F306820833183428353836CEECE0120
:104020000E940F1DF8012081318142815381207F40
:10403000256020833183428353836CEECE010E943E
:104040000F1DF8012081318142815381506120830D
:104050003183428353836CEECE010E940F1D80E8B2
:1040600090E0A0E0B0E08AAB9BABACABBDAB20E88E
:1040700030E040E050E061E9CE010E940F1DF80100
:1040800020813181428153812F78206220833183C6
:10409000428353836CEECE010E940F1DF8012081F4
:1040A0003181428153812F77387F206832602083AD
:1040B0003183428353836CEECE010E940F1D0C5F4F
:1040C0001F4FF80120813181428153815F70506C14
:1040D000208331834283538360EFCE010E940F1D02
:1040E000F8012081318142815381507F58602083C3
:1040F00031834283538360EFCE010E940F1DF8018C
:104100002081318142815381486020833183428301
:10411000538360EFCE010E940F1DF8012081318191
:10412000428153814460208331834283538360EF13
:10413000CE010E940F1DF8012081318142815381FF
:104140004C7F4160208331834283538360EFCE01F3
:104150000E940F1DF8012081318142815381332754
:104160003E60208331834283538360EFCE010E94FF
:104170000F1DF80120813181428153812227246261
:10418000208331834283538360EFCE010E940F1D51
:104190002E893F89488D598D2B7F2E8B3F8B488FE1
:1041A000598F60E8CE010E940F1D87E090E0A0E0EB
:1041B000B0E08A8F9B8FAC8FBD8F27E030E040E06E
:1041C00050E061E8CE010E940F1D68EC70E080E0D5
:1041D00090E0DF91CF911F910F910C94DC1C2FB7D1
:1041E000F89460918D0F70918E0F80918F0F909148
:1041F000900F2FBF08951F920F920FB60F921124A8
:104200002F933F938F939F93AF93BF9380918D0F85
:1042100090918E0FA0918F0FB091900F30918C0FD5
:1042200023E0230F2D3758F50196A11DB11D2093D2
:104230008C0F80938D0F90938E0FA0938F0FB09360
:10424000900F8091910F9091920FA091930FB09148
:10425000940F0196A11DB11D8093910F9093920F21
:10426000A093930FB093940FBF91AF919F918F91B3
:104270003F912F910F900FBE0F901F90189526E839
:10428000230F0296A11DB11DD2CF1F920F920FB620
:104290000F9211240BB60F922F933F934F935F937E
:1042A0006F937F938F939F93AF93BF93EF93FF93FE
:1042B000E0918A0FF0918B0F309749F0A685B78572
:1042C0008585968D91FF16C09C918923B1F4FF914D
:1042D000EF91BF91AF919F918F917F916F915F917E
:1042E0004F913F912F910F900BBE0F900FBE0F90EB
:1042F0001F9018959C91892351F7A389B4899C91AB
:104300008589809589238C93868997890197F1F710
:10431000608D718DA685B785558538E020E0CB018D
:104320000197F1F7822F90E095958795282F4C9172
:10433000452309F02068315091F7868D81FD209545
:104340008091880F90E001968F7399273091890FA3
:10435000381799F0A091880FB0E0A85BB04F2C936C
:104360008093880F828D938D0197F1F7A389B4898B
:104370008C919589892B8C93AACF868D8160868FAD
:10438000F1CFCF93DF93E82FEE0FFF0BE157F04F04
:10439000C591D491FE0184912196882319F00E9441
:1043A0000764F8CFDF91CF910895CF93DF930E94F8
:1043B000C121C1EDDFE0FE0184912196882319F02F
:1043C0000E940764F8CFDF91CF9108951F93CF9398
:1043D000DF93162F0E94C121C0EBDFE0FE01849124
:1043E0002196882319F00E940764F8CFCAEADFE01B
:1043F000112311F0C5EADFE0FE01849121968823A4
:1044000019F00E940764F8CF8AE0DF91CF911F91E5
:104410000C9407648F929F92AF92BF92CF92DF92DB
:10442000EF92FF920F931F93CF93DF93DC0170E025
:10443000FB01EE0FFF1FE45AFD4F20813181665AC8
:104440007D4FFB019081D92E80E0E82EF12CB70141
:104450006D0D711D75956795681711F0D61222C004
:10446000492F4150550BFA01EE0FFF1FEE0FFF1FB2
:104470003296E20FF31F65917491072E000C880BA2
:10448000990B0E9420C2DF91CF911F910F91FF9055
:10449000EF90DF90CF90BF90AF909F908F90089556
:1044A000D62ED5CFAB0141505109440F551F440FB3
:1044B000551FF901E40FF51F05911491FA01349687
:1044C000E20FF31FC591D491A017B1074CF3862FCB
:1044D000CA17DB070CF4B9CFFA013296E20FF31FCB
:1044E000E590F490FA013696E20FF31FC590D49050
:1044F000BD01601B710B072E000C880B990B0E94ED
:1045000020C24B015C01B6016E197F09072E000C19
:10451000880B990B0E9420C29B01AC01C501B4011C
:104520000E947FC24B015C01BE01601B710B072E14
:10453000000C880B990B0E9420C29B01AC01C501A5
:10454000B4010E949CC74B015C01B701FF0C880BB2
:10455000990B0E9420C29B01AC01C501B4010E94CD
:10456000A2C691CF0F930FB70F9300916E000B7FF0
:1045700000936E0078940F930BB70F930CB70F92C4
:104580001F922F933F934F935F936F937F938F93DC
:104590009F93AF93BF93EF93FF9311240E94B13683
:1045A000FF91EF91BF91AF919F918F917F916F910B
:1045B0005F914F913F912F911F900F900CBF0F91E2
:1045C0000BBF0F910460F89400936E000F910FBF22
:1045D0000F911895CF92DF92EF92FF92C0909B09B6
:1045E000D0909C09E0909D09F0909E096091F3099C
:1045F0007091F40966507109072E000C880B990B15
:104600000E9420C2A70196010E9402C918160CF54B
:1046100020E030E040E050E4C701B6010E94A2C6AD
:104620000E9415C870932C0F60932B0F0E94EF20EF
:104630006058774C8E4F9F4F6093270F7093280FD1
:104640008093290F90932A0FFF90EF90DF90CF90E7
:1046500008951092270F1092280F1092290F109290
:104660002A0FF2CFCF92DF92EF92FF920F931F9318
:10467000CF93DF93C82FD0E08E01000F111F000FE2
:10468000111FF801E156F64FC080D180E280F3801F
:10469000CC0FDD1FFE01E651F64F6081718167503E
:1046A0007109072E000C880B990B0E9420C2A701EC
:1046B00096010E9402C9055E104F181614F5CD5DD3
:1046C000D04F20E030E040E050E4C701B6010E9446
:1046D000A2C60E9415C8798368830E94EF206054A7
:1046E0007B428E4F9F4FF801608371838283938357
:1046F000DF91CF911F910F91FF90EF90DF90CF90BE
:104700000895F8011082118212821382F1CF8F92E4
:104710009F92AF92BF92CF92DF92EF92FF920F9350
:104720001F93CF93DF93BCE1A0E06A2F70E0AB0151
:104730004B0F511D55954795A41711F0B41319C08F
:10474000E8EFFEE065917491072E000C880B990B41
:104750000E9420C2DF91CF911F910F91FF90EF90A7
:10476000DF90CF90BF90AF909F908F900895B42F1F
:10477000DECF9A0121503109220F331F220F331F40
:10478000F901E657F14FE590F490F901E257F14F46
:10479000C591D4918E159F0554F3A42FC817D9073E
:1047A0000CF4C3CFF901E457F14F05911491F901CD
:1047B000E057F14FC590D490BC016E197F09072EC8
:1047C000000C880B990B0E9420C24B015C01B601C2
:1047D000601B710B072E000C880B990B0E9420C2E6
:1047E0009B01AC01C501B4010E947FC24B015C0179
:1047F000BE016E197F09072E000C880B990B0E94D1
:1048000020C29B01AC01C501B4010E949CC76B0191
:104810007C01B801110F880B990B0E9420C29B01EB
:10482000AC01C701B6010E94A2C694CF0F931F939B
:104830008091E909813019F50E94EF200091E90E7D
:104840001091EA0E2091EB0E3091EC0E601B710B73
:10485000820B930B28EE33E040E050E00E943EC60E
:104860006091E50E7091E60E8091E70E9091E80E52
:10487000620F731F841F951F1F910F910895609100
:10488000950F7091960F8091970F9091980FD6CFBA
:104890001092E9091092E90E1092EA0E1092EB0EB6
:1048A0001092EC0E1092950F1092960F1092970F97
:1048B0001092980F1092E50E1092E60E1092E70EED
:1048C0001092E80E089584EC9DE00E94C01F87E7D7
:1048D0009DE00E94C01F8AE29DE00E94C01F8DEDF6
:1048E0009CE00E94C01F80E99CE00C94C01F0F93C5
:1048F0001F93CF93DF93C82F80916F00D82FD27072
:1049000081FF05C080916F008D7F80936F00609163
:10491000CD097091CE098091CF099091D009009175
:10492000D1091091D2092091D3093091D409C13015
:1049300039F5601B710B820B930B0E9420C220E0A3
:1049400030E040E05FE30E947FC20E940EC824E096
:10495000C29FF0011124EA58F64F6083718382836D
:10496000938381E080937509DD2329F080916F00A6
:10497000826080936F00DF91CF911F910F91089516
:10498000600F711F821F931FD8CF90916F00292F46
:10499000227091FF05C090916F009D7F90936F00F2
:1049A00094E0899FF0011124E353F64F60817181F7
:1049B00082819381222329F020916F00226020932D
:1049C0006F0008950F930FB70F9300916E000F9330
:1049D0000B7F00936E0000916F000D7F00936F00BE
:1049E0000F930BB70F930CB70F921F922F933F9318
:1049F0004F935F936F937F938F939F93AF93BF93E7
:104A0000EF93FF9311240E946225FF91EF91BF91D4
:104A1000AF919F918F917F916F915F914F913F9156
:104A20002F911F900F900CBF0F910BBF0F91026041
:104A3000F89400936F000F9100936E000F910FBFD9
:104A40000F91189580916F0980FF25C089988FEF8D
:104A500080939C0E80916F0981FF20C08F988FEF0B
:104A600080939D0E80916F0982FF1BC080910B0186
:104A70008270809309018FEF80939E0E8091A00E2B
:104A800090916F0993FF17C0811113C0169A8FEF91
:104A900080939F0E0895899A81E0DACF8F9A81E002
:104AA000DFCF80910B01809582708093090181E0B6
:104AB000E3CF4398ECCF811103C0169881E0E8CF93
:104AC000439AFCCF2F923F924F925F926F927F92C8
:104AD0008F929F92AF92BF92CF92DF92EF92FF920E
:104AE0000F931F93CF93DF93CDB7DEB761970FB6C8
:104AF000F894DEBF0FBECDBFF8948FEF9FEF909379
:104B00008900809388000AE00983912C812C4CE372
:104B1000A42E4CE0B42E78948091DF0E9091E00E9C
:104B2000A091E10EB091E20E892B8A2B8B2B09F01C
:104B3000DAC1809175098823D1F08091E30E9091BC
:104B4000E40E10927509892B91F01092740910925D
:104B5000E40E1092E30E9091140E8091150E9817AA
:104B600031F08091150E8F5F8F708093150E8091BC
:104B7000E30E9091E40E892B09F4B5C14091DB0E50
:104B80005091DC0E6091DD0E7091DE0E8091D70E9B
:104B90009091D80EA091D90EB091DA0E0091CE0E60
:104BA00010E030E020E0841B950BA60BB70B081734
:104BB00019072A073B0710F4D901C801E82F840F11
:104BC000951FA61FB71F8093DB0E9093DC0EA0935A
:104BD000DD0EB093DE0E80918400909185004C969E
:104BE0004091B50E5091B60E6091B70E7091B80E0F
:104BF0000091A50E1091A60E2091A70E3091A80E3F
:104C0000400F511F621F731F4093B50E5093B60E95
:104C10006093B70E7093B80E77FD1CC0889A009110
:104C2000CD091091CE092091CF093091D009409142
:104C30009C0E042E000C550B660B770B400F511F7A
:104C4000621F731F4093CD095093CE096093CF0923
:104C50007093D0094091B90E5091BA0E6091BB0E7D
:104C60007091BC0E0091A90E1091AA0E2091AB0E6E
:104C70003091AC0E400F511F621F731F4093B90E4D
:104C80005093BA0E6093BB0E7093BC0E77FD1CC0A0
:104C90008E9A0091D1091091D2092091D3093091B7
:104CA000D40940919D0E042E000C550B660B770B1A
:104CB000400F511F621F731F4093D1095093D209B7
:104CC0006093D3097093D4094091BD0E5091BE0EEC
:104CD0006091BF0E7091C00E0091AD0E1091AE0E9E
:104CE0002091AF0E3091B00E400F511F621F731F05
:104CF0004093BD0E5093BE0E6093BF0E7093C00ED6
:104D000077FD21C020910B01209528702093090187
:104D10000091D5091091D6092091D7093091D80971
:104D200040919E0E042E000C550B660B770B400F26
:104D3000511F621F731F4093D5095093D60960938A
:104D4000D7097093D8094091C10E5091C20E60915D
:104D5000C30E7091C40E0091B10E1091B20E20914D
:104D6000B30E3091B40E400F511F621F731F40935A
:104D7000C10E5093C20E6093C30E7093C40E77FDA4
:104D800020C02091A00E2111AAC0149A0091D90927
:104D90001091DA092091DB093091DC0940919F0ED6
:104DA000042E000C550B660B770B400F511F621F32
:104DB000731F4093D9095093DA096093DB0970930C
:104DC000DC094091B50E5091B60E6091B70E70910E
:104DD000B80E77FD15C00091A10E1091A20E209182
:104DE000A30E3091A40E401B510B620B730B40932A
:104DF000B50E5093B60E6093B70E7093B80E8898A8
:104E00004091B90E5091BA0E6091BB0E7091BC0EDC
:104E100077FD15C00091A10E1091A20E2091A30E56
:104E20003091A40E401B510B620B730B4093B90ED3
:104E30005093BA0E6093BB0E7093BC0E8E98409147
:104E4000BD0E5091BE0E6091BF0E7091C00E77FDE9
:104E500019C00091A10E1091A20E2091A30E3091C5
:104E6000A40E401B510B620B730B4093BD0E50936D
:104E7000BE0E6093BF0E7093C00E20910B01287080
:104E8000209309014091C10E5091C20E6091C30E52
:104E90007091C40E77FD19C00091A10E1091A20E61
:104EA0002091A30E3091A40E401B510B620B730B8B
:104EB0004093C10E5093C20E6093C30E7093C40E04
:104EC0002091A00E21110DC01498E15061F02091A5
:104ED00084003091850028173907C8F381CE419AA4
:104EE00055CF4198F2CF8091DF0E9091E00EA091C6
:104EF000E10EB091E20E892B8A2B8B2B11F00C94D2
:104F0000802E8091E30E9091E40E998B888B892BF3
:104F100011F40C94F72E8091DB0E9091DC0EA09191
:104F2000DD0EB091DE0E4091D70E5091D80E6091FB
:104F3000D90E7091DA0E84179507A607B70708F403
:104F40007BC0109274091092E40E1092E30E9091BF
:104F5000140E8091150E981711F40C94F72E809171
:104F6000150E8F5F8F708093150E30EDC32E37E0D6
:104F7000D32EE12CF12C8091E30E9091E40E892B3D
:104F800011F00C94782E0E943E189093E40E8093BA
:104F9000E30E892B11F40C94782EE091E30EF0913E
:104FA000E40E808183FF3AC585899689A789B08DF3
:104FB000418D528D638D748D8C019D01040F151FE1
:104FC000261F371F0093CD091093CE092093CF09D8
:104FD0003093D009841B950BA60BB70B8093D10996
:104FE0009093D209A093D309B093D409858D968D5F
:104FF000A78DB0A18093D5099093D609A093D70926
:10500000B093D80981A192A1A3A1B4A18093D90999
:105010009093DA09A093DB09B093DC099091140E08
:105020008091150E981709F4AECF8091150E8F5F01
:105030008F708093150EA7CF4091D30E5091D40E50
:105040006091D50E7091D60E481759076A077B07F5
:1050500008F410C24091CF0E5091D00E6091D10E45
:105060007091D20EE889F98986A997A9A0ADB1AD52
:10507000481759076A077B0708F0D0C14115510549
:105080006105710509F065C0409070095090710983
:10509000609072097090730980E29CE0A1E0FC01CD
:1050A00005911591259134910415150526053705AF
:1050B00048F47694679457944794AA0F0496A816D8
:1050C000B90669F7A093CE0EB0E24B165104610405
:1050D000710428F480E2482E512C612C712CE0E2FE
:1050E0004E1A5108610871084114F8E05F06610426
:1050F000710408F49CC104E0509EC0011124805E3C
:10510000974FFC01329625913491B42DAA27B39F75
:10511000F001B29FE10DFA1F0694EA1FFA1F112455
:105120002F01712C612CFC01C590D490F12CE12C45
:10513000C418D508E608F7084C0D5D1D6E1D7F1DCF
:105140004093CF0E5093D00E6093D10E7093D20E39
:1051500012CF10E0942F452E862FBC81AD81FE81A9
:10516000EF8138852985FA800B81E0916B09E99FF1
:10517000A12DFF2730916C09399FA00DF11D1090D2
:105180006D09199EF00DE49DA00DF11D349DF00DEB
:10519000E89FF00D0A2FBF2F0A9FE12D332722270A
:1051A0000F9FE00D311D211FBA9FE00D311D211F02
:1051B000BF9F300D211D032FB22F0A9FF12C3327E3
:1051C00022270F9FF00C311D211FBA9FF00C311DBB
:1051D000211FBF9F300D211D032FB22FEE2790916D
:1051E000700940907109809172090090F20F012AB4
:1051F00009F484C03091EE0F309FE119910B410A00
:10520000810B2091EF0F209FE0199109410A810B3A
:10521000F090F00FF09E90194108810B3B9FE01930
:105220009109410A810B2B9F90194108810BFB9E2C
:10523000401881090A9FF12C332722270F9FF00C79
:10524000311D211FBA9FF00C311D211FBF9F300D52
:10525000211D032FB22F3091EA0F309FE10D911FD6
:10526000411E811F2091EB0F209FE00D911D411EDB
:10527000811FF090EC0FF09E900D411C811F3B9F11
:10528000E00D911D411E811F2B9F900D411C811F20
:10529000FB9E400C811D0A9FF12C332722270F9F74
:1052A000F00C311D211FBA9FF00C311D211FBF9F33
:1052B000300D211D032FB22F3091E60F309FE119E1
:1052C000910B410A810B2091E70F209FE019910972
:1052D000410A810BF090E80FF09E90194108810B74
:1052E0003B9FE0199109410A810B2B9F90194108BE
:1052F000810BFB9E401881090C94002A3091EE0F1F
:10530000309FE10D911F411E811F2091EF0F209FC3
:10531000E00D911D411E811FF090F00FF09E900D49
:10532000411C811F3B9FE00D911D411E811F2B9F42
:10533000900D411C811FFB9E400C811D0A9FF12C8A
:10534000332722270F9FF00C311D211FBA9FF00C2D
:10535000311D211FBF9F300D211D032FB22F309112
:10536000EA0F309FE119910B410A810B2091EB0F5D
:10537000209FE0199109410A810BF090EC0FF09EFB
:1053800090194108810B3B9FE0199109410A810B5B
:105390002B9F90194108810BFB9E401881090A9FA1
:1053A000F12C332722270F9FF00C311D211FBA9FAC
:1053B000F00C311D211FBF9F300D211D032FB22F77
:1053C0003091E60F309FE10D911F411E811F20910A
:1053D000E70F209FE00D911D411E811FF090E80F07
:1053E000F09E900D411C811F3B9FE00D911D411EC1
:1053F000811F2B9F900D411C811FFB9E400C811D26
:1054000011240B83FA82BC83AD83FE83EF8338873C
:105410002987542C492E712C682E3ECEA889B98933
:10542000D2964D905D906D907C90D59735CED301FE
:10543000C201B695A795979587958C7F9C01205EB4
:105440003B4FF90185919491F9013296A591B49160
:10545000E42DE770EA9F9001EB9F300D112403E0EB
:10546000369527950A95E1F7821B930B6C01F12C79
:10547000E12C62CE4091CA0E5091CB0E6091CC0EC1
:105480007091CD0E481759076A077B0708F032C2A2
:105490004090C50E5090C60E6090C70E7090C80E1A
:1054A0008091C90EE889F98981117DC0EE5BFF4FBB
:1054B000E080F18002811381E889F989E15BFF4F87
:1054C0002081318142815381A889B989D2966D9119
:1054D0007D918D919C91D5970E94EC17B1E0B0938E
:1054E000C90EE889F989C2A8D3A8E4A8F5A880E282
:1054F0009CE021E0FC0145915591659174914C151A
:105500005D056E057F0548F4F694E794D794C7943B
:10551000220F0496A816B90669F72093CE0EB0E2C2
:10552000CB16D104E104F10428F4F0E2CF2ED12C03
:10553000E12CF12CE0E2CE1AD108E108F108C11407
:10554000F8E0DF06E104F10408F4B1C104E0D09E04
:10555000C0011124805E974FFC0132962591349151
:105560007C2D6627739FA001729F410D561F0694E4
:10557000461F561F112470E060E0FC01C590D490D6
:10558000F12CE12CC41AD50AE60AF70A4C0C5D1C72
:105590006E1C7F1C4092C50E5092C60E6092C70EC4
:1055A0007092C80EE8CC82AD93ADA4ADB5AD4816EF
:1055B00059066A067B0608F070C141145104610463
:1055C000710449F4C0907009D0907109E09072099B
:1055D000F09073098CCF70E06A85942DE52C862DB0
:1055E0005B854C85ED853E852F8520916B09299F34
:1055F000E12D332720906C09299EE00D311D10907C
:105600006D09199E300D2E9DE00D311D2E9C300D23
:10561000289F300D5E2F432F5E9F212D222433249F
:10562000539F200D211C371E4E9F200D211C371E1D
:10563000439F200C311C522D432D5E9F612D22244F
:105640003324539F600D211C371E4E9F600D211C7B
:10565000371E439F200C311C522D432D2227909141
:105660007009E0907109809172090090F20F072A89
:1056700009F484C02090EE0F259E2119970BE70AAC
:10568000870B3090EF0F359E20199109E70A870BA1
:105690006091F00F659F9019E108870B249E2019F7
:1056A0009109E70A870B349E9019E108870B649FE4
:1056B000E01881095E9F612D22243324539F600DE1
:1056C000211C371E4E9F600D211C371E439F200C4E
:1056D000311C522D432D2090EA0F259E210D971F3E
:1056E000E71E871F3090EB0F359E200D911DE71EA2
:1056F000871F6091EC0F659F900DE11C871F249E12
:10570000200D911DE71E871F349E900DE11C871F01
:10571000649FE00C811D5E9F612D22243324539FE2
:10572000600D211C371E4E9F600D211C371E439FAC
:10573000200C311C522D432D2090E60F259E21195F
:10574000970BE70A870B3090E70F359E20199109D8
:10575000E70A870B6091E80F659F9019E108870BB6
:10576000249E20199109E70A870B349E9019E108BD
:10577000870B649FE01881090C94402C2090EE0F59
:10578000259E210D971FE71E871F3090EF0F359E36
:10579000200D911DE71E871F6091F00F659F900DF2
:1057A000E11C871F249E200D911DE71E871F349E3C
:1057B000900DE11C871F649FE00C811D5E9F612D91
:1057C00022243324539F600D211C371E4E9F600DF1
:1057D000211C371E439F200C311C522D432D20903D
:1057E000EA0F259E2119970BE70A870B3090EB0FE4
:1057F000359E20199109E70A870B6091EC0F659F90
:105800009019E108870B249E20199109E70A870B5C
:10581000349E9019E108870B649FE01881095E9F10
:10582000612D22243324539F600D211C371E4E9F6F
:10583000600D211C371E439F200C311C522D432D1F
:105840002090E60F259E210D971FE71E871F3090A1
:10585000E70F359E200D911DE71E871F6091E80F11
:10586000659F900DE11C871F249E200D911DE71E52
:10587000871F349E900DE11C871F649FE00C811DE3
:1058800011246A875B874C87ED873E872F87FE2C24
:10589000E92E6701F12CE82E2ACE88899989815B4F
:1058A0009F4FDC01CD90DD90ED90FC9020CED70194
:1058B000C601B695A795979587958C7F9C01205E2C
:1058C0003B4FF90185919491F9013296459154919C
:1058D000AC2DA770A49F9001A59F300D1124E3E08B
:1058E00036952795EA95E1F7821B930B6C01F12C15
:1058F000E12C4CCE80910D0290910E02A0910F02EE
:10590000B0911002B7FF5FC0E889F989E95BFF4FEA
:10591000408051806280738080E29CE021E0FC0145
:105920004591559165917491441555056605770526
:1059300048F47694679457944794220F0496A816D7
:10594000B90669F72093CE0EF0E24F1651046104B8
:10595000710428F450E2452E512C612C712C00E288
:10596000401A510861087108411428E05206610488
:10597000710408F431C074E0579EC0011124805EA8
:10598000974FFC01329625913491A42D6627A39F51
:10599000A001A29F410D561F0694461F561F1124B9
:1059A00070E060E0FC0185919491B0E0A0E0841B80
:1059B000950BA60BB70B80930D0290930E02A0934C
:1059C0000F02B0931002C0900D02D0900E02E09032
:1059D0000F02F0901002CFCAD301C201B695A7956D
:1059E000979587958C7F805E9B4FFC012591349124
:1059F000FC01329645915491B42DB770B49FC0010B
:105A0000B59F900D112443E0969587954A95E1F74F
:105A1000281B390BC901B0E0A0E0CDCF45895689DC
:105A20006789708D418C528C638C748CDF01AA5B0A
:105A3000BF4FFC90F88A81E044155505660577054F
:105A400009F0AEC180E0411551056105710559F0BD
:105A50009F2D969591708F2D8095817089272F2D80
:105A6000217092139DC1058D168D278D30A10115D2
:105A700011052105310509F08460809374091092A5
:105A8000C50E1092C60E1092C70E1092C80E10923C
:105A9000CF0E1092D00E1092D10E1092D20E85A180
:105AA00096A1A7A1B0A58093D70E9093D80EA093EE
:105AB000D90EB093DA0ECC24DD247601C81AD90AA7
:105AC000EA0AFB0AC092C10ED092C20EE092C30E47
:105AD000F092C40EC092BD0ED092BE0EE092BF0EE8
