:100000000C9423150C9454150C9454150C945415FD
:100010000C9454150C9454150C9454150C945415BC
:100020000C9454150C9438910C9438910C9438918C
:100030000C9454150C9454150C9454150C9454159C
:100040000C9454150C94C51E0C9454150C94541512
:100050000C9454150C9454150C944A930C943490AD
:100060000C9454150C945A840C9454150C945415F7
:100070000C9454150C9454150C9454150C9454155C
:100080000C9446200C9454150C9454150C9454154F
:100090000C9454150C9454150C9454150C9454153C
:1000A0000C9454150C9454150C9418200C9454155D
:1000B0000C9454150C9454150C9454150C94EA1F7C
:1000C0000C9454150C9454150C9454150C9454150C
:1000D0000C9454150C9454150C9454150C945415FC
:1000E0000C945415084AD73B3BCE016E84BCBFFD2F
:1000F000C12F3D6C74319ABD56833DDA3D00C77FF8
:1001000011BED9E4BB4C3E916BAAAABE0000008090
:100110003F05A84CCDB2D44EB93836A9020C50B91F
:10012000918688083CA6AAAA2ABE000000803F004B
:100130000C944D8B0C94D08B0C94FC840C94D48632
:100140000C9410960C9402850C9429850C940E85C1
:100150000C940E860C9441850C9420960C948997EF
:100160000C9482860C94DA8B0C94A88B0C94738B71
:100170000C9471970C940A850C942F850C94849799
:100180000C94C68B0C94B28B0C9417850C94B18490
:100190000C944D970C94578B0C946A860C943D8567
:1001A0000C94BC8B0C947B8B0C943DA60C94488BCC
:1001B0000C940D860C9437850C943C850C94858B9F
:1001C0000C9425850C941B850C94998B0C94599751
:1001D0000C94408B0C94618B0C9406850C94F585E3
:1001E0000C946C970C9433850C946B8B0C94218538
:1001F0000C9411850C948F8B4E414E494E495459A5
:10020000494E46CDCCCC3D0AD7233C17B7D13877E1
:10021000CC2B329595E6241FB14F0A0000204100F7
:1002200000C84200401C4620BCBE4CCA1B0E5AAE41
:10023000C59D742569730025696D202569730025A6
:1002400069682025696D202569730025696420256A
:1002500069682025696D2025697300256979202545
:100260006964202569682025696D20256973002C43
:1002700020002C2000203A2073796E635F706C613F
:100280006E5F706F736974696F6E0A00202063750A
:100290007272656E745F706F736974696F6E3D0022
:1002A000656E7175657565696E67202200507269AB
:1002B0006E7465722073746F707065642064756508
:1002C00020746F206572726F72732E2046697820D9
:1002D000746865206572726F7220616E6420757338
:1002E00065204D39393920746F20726573746172DD
:1002F000742E202854656D70657261747572652066
:1003000069732072657365742E2053657420697457
:100310002061667465722072657374617274696EAF
:1003200067290A004E6F20436865636B73756D2003
:1003300077697468206C696E65206E756D62657290
:100340002C204C617374204C696E653A2000636800
:1003500065636B73756D206D69736D617463682C73
:10036000204C617374204C696E653A20004C696EB4
:1003700065204E756D626572206973206E6F742002
:100380004C617374204C696E65204E756D626572A8
:100390002B312C204C617374204C696E653A20001F
:1003A0004D3131300020496E76616C69642065788A
:1003B0007472756465722000000000000000000087
:1003C000000000000000B9430080C5430000C8439E
:1003D0000A20736F66745F656E6473746F705F6D0F
:1003E0006178203D20000A20736F66745F656E643B
:1003F00073746F705F6D696E203D20000A20706F0E
:10040000736974696F6E5F7368696674203D20005C
:1004100020617869733A0A20686F6D655F6F666660
:10042000736574203D2000466F7220003C3C3C20E8
:10043000646F5F626C6F636B696E675F6D6F76652B
:100440005F746F0A003E3E3E20646F5F626C6F63B4
:100450006B696E675F6D6F76655F746F00203A2021
:1004600073657475705F666F725F656E6473746FC9
:10047000705F6F725F70726F62655F6D6F76650A35
:1004800000202063757272656E745F706F7369749B
:10049000696F6E3D00203A20636C65616E5F757018
:1004A0005F61667465725F656E6473746F705F6FB1
:1004B000725F70726F62655F6D6F76650A002020F3
:1004C00063757272656E745F706F736974696F6E55
:1004D0003D00646F5F70726F62655F726169736522
:1004E00028006465706C6F793A2000203A207365AB
:1004F000745F70726F62655F6465706C6F7965645C
:100500000A00202063757272656E745F706F736984
:1005100074696F6E3D00203A203C3C3C20646F5F64
:1005200070726F62655F6D6F76650A00202063757B
:100530007272656E745F706F736974696F6E3D007F
:10054000203A203E3E3E20646F5F70726F62655FAE
:100550006D6F76650A00202063757272656E745F38
:10056000706F736974696F6E3D0072657365745F57
:100570006265645F6C6576656C0A002028646F6E46
:1005800065290A004578747261706F6C617465202A
:100590005B0042696C696E656172204C6576656CC2
:1005A000696E6720477269643A0A003C3C3C2064EB
:1005B0006F5F686F6D696E675F6D6F766528005B52
:1005C00000290A002C20002C20003E3E3E20646FB3
:1005D0005F686F6D696E675F6D6F766528002028B4
:1005E00064697361626C6564290A0041424C204170
:1005F000646A7573746D656E74205A00204800201B
:10060000570020590042696C696E6561722047721B
:1006100069642058002028656E61626C6564290A4F
:100620000042494C494E454152004175746F204289
:100630006564204C6576656C696E673A20002026FB
:100640002053616D65205A20617300204E6F7A7AC5
:100650006C65290A0020262041626F7665002026FD
:100660002042656C6F77002D4261636B0020285239
:100670006967687400205A3A0020593A0050726F36
:100680006265204F666673657420583A0046495883
:100690005F4D4F554E5445445F50524F42450A00FE
:1006A00050726F62653A2000436F72650A004D61B7
:1006B0006368696E6520547970653A20003C3C3C63
:1006C000204732390A0020636F7272656374656473
:1006D000205A3A0047323920756E636F7272656333
:1006E000746564205A3A00203A203E2070726F628E
:1006F000696E6720636F6D706C6574650A002020F9
:1007000063757272656E745F706F736974696F6E12
:100710003D00202844525952554E29004732392075
:100720004175746F20426564204C6576656C696E16
:1007300067003F20284C2C522C462C4229206F75F4
:1007400074206F6620626F756E64732E0A003F28F6
:1007500056296572626F7365206C6576656C2069D9
:100760007320696D706C61757369626C65202830E7
:100770002D34292E0A00426164205A2076616C755E
:10078000650A004E6F2062696C696E656172206750
:100790007269640A003C3C3C204732390A003E2022
:1007A0004175746F2D6C6576656C206E6F74206E6C
:1007B00065656465642C20736B69700A0047323884
:1007C0000A473239003E204E6F7420686F6D6564B1
:1007D0002E20456E7175657565696E6720473238E4
:1007E00020666F6C6C6F77656420627920473239C0
:1007F0000A00203A203E3E3E204732390A0020209F
:1008000063757272656E745F706F736974696F6E11
:100810003D0050726F7465637465642050696E0AA0
:10082000005374616E64617264204465766961741A
:10083000696F6E3A20002052616E67653A20002091
:100840004D61783A2000204D696E3A20004D656177
:100850006E3A200046696E6973686564210A00205B
:1008600072616E67653A2000206D61783A20002041
:100870006D696E3A2000207369676D613A2000202F
:100880006D65616E3A20003A207A3A2000206F664A
:100890002000205A00205900205800476F696E67D9
:1008A00020746F3A00436C6F636B776973650A005D
:1008B000436F756E7465722D0020446972656374B0
:1008C000696F6E3A2000202020616E676C653A20C7
:1008D000005374617274696E672072616469757324
:1008E0003A2000506F736974696F6E696E67207487
:1008F00068652070726F62652E2E2E0A003F4E755D
:100900006D626572206F66206C65677320696E206A
:100910006D6F76656D656E74206E6F7420706C619E
:10092000757369626C652028302D3135292E0A00D7
:100930003F2028582C5929206F7574206F6620623B
:100940006F756E64732E0A003F53616D706C652085
:1009500073697A65206E6F7420706C61757369625B
:100960006C652028342D3530292E0A004D3438206E
:100970005A2D50726F6265205265706561746162B4
:10098000696C69747920546573740A003F2856298C
:100990006572626F7365206C6576656C2069732083
:1009A000696D706C61757369626C652028302D34D7
:1009B000292E0A0020573A0020573A00205A3A00C0
:1009C00020423A0020436F756E7420413A00204562
:1009D0003A00205A3A0020593A00583A003A004367
:1009E00061703A00205A00205900580020204D61C3
:1009F000783A2000205A00205900580020204D69E4
:100A00006E3A20004F6E20004F666600536F66748A
:100A100020656E6473746F70733A2000496E76615E
:100A20006C69642065787472756465720A0020646C
:100A30003A0020693A0020703A00426564204C6513
:100A400076656C696E6720004661696C6564207428
:100A50006F20656E61626C6520426564204C65762E
:100A6000656C696E670A00496E76616C6964206521
:100A7000787472756465720A0041637469766520E2
:100A800045787472756465723A2000203A204D6F83
:100A90007665206261636B0A002020646573746967
:100AA0006E6174696F6E3D002C20636F72726563B6
:100AB0007465642063757272656E745F706F7369BC
:100AC00074696F6E5B5A5F415849535D3D004657EC
:100AD0003A2053746F70205A2063726173682C201F
:100AE00065787065637465642063757272656E7491
:100AF0005F706F736974696F6E5B5A5F41584953D9
:100B00005D3D00207D0A002C20004F6666736574F1
:100B100020546F6F6C205859206279207B2000464A
:100B2000573A204368616E67696E67206465737425
:100B3000696E6174696F6E5B585F415849535D20FF
:100B4000746F2073746F702063726173682C2064FB
:100B5000657374696E6174696F6E5B585F41584963
:100B6000535D3D002C2073746F705F785F6372611A
:100B700073683D0046573A20746D705F785F6D6F03
:100B800076653D002C2073746F705F7A5F637261CD
:100B900073683D0046573A20746D705F7A5F6D6FE1
:100BA00076653D004E6F206D6F7665206F6E207408
:100BB0006F6F6C6368616E67650A00526573656E7E
:100BC000643A200020746F6F206C6F6E6720657828
:100BD00074727573696F6E2070726576656E746578
:100BE000640A0020636F6C642065787472757369A1
:100BF0006F6E2070726576656E7465640A0062754A
:100C000073793A2070617573656420666F7220692C
:100C10006E7075740A00627573793A20706175732D
:100C2000656420666F7220757365720A0062757361
:100C3000793A2070726F63657373696E670A004B4F
:100C4000494C4C2063617573656420627920746F30
:100C50006F206D75636820696E61637469766520C5
:100C600074696D65202D2063757272656E742063E2
:100C70006F6D6D616E643A20002020506C616E6E65
:100C8000657242756666657242797465733A2000D2
:100C90002046726565204D656D6F72793A2000437C
:100CA0006F6D70696C65643A204A756C2031342030
:100CB000323032310A00207C20417574686F723AFC
:100CC00020467261636B74616C20576F726B730A9C
:100CD00000323032312D30372D31342031353A3534
:100CE0003800204C61737420557064617465643AF7
:100CF00020004275696C643A204A3230445F3231D8
:100D0000303630325F313535385F47560A0046722B
:100D100061636B74616C20576F726B73204A756CE2
:100D200069612050726F204475616C2041424C20F3
:100D3000323456207769746820544D4320766572AA
:100D400073696F6E20666F72205A20616E64204551
:100D5000300A00312E312E390A004D61726C696EF5
:100D60000020536F667477617265205265736574F5
:100D70000A00205761746368646F67205265736569
:100D8000740A002042726F776E206F75742052656E
:100D90007365740A002045787465726E616C205228
:100DA000657365740A00506F77657255700A007339
:100DB000746172740A003C3C3C207365745F617816
:100DC00069735F69735F61745F686F6D6528002088
:100DD0003A200A00202063757272656E745F706F2E
:100DE000736974696F6E3D005D203D20003E206890
:100DF0006F6D655F6F66667365745B003E3E3E2097
:100E00007365745F617869735F69735F61745F684C
:100E10006F6D65280000004842000048420000A0B5
:100E200041000000005761726E696E673A20486F9A
:100E30006D696E672042756D702044697669736FC5
:100E400072203C20310A000202040000A040000091
:100E5000A040000000400000B9430080C5430000EE
:100E6000C8433C3C3C20686F6D656178697328001D
:100E7000203A203E204146544552207365745F61FC
:100E80007869735F69735F61745F686F6D650A008D
:100E9000202063757272656E745F706F7369746918
:100EA0006F6E3D00486F6D65203220536C6F773A4E
:100EB0000A004D6F766520417761793A0A00486FE4
:100EC0006D65203120466173743A0A003E3E3E2033
:100ED000686F6D65617869732800486F74656E642A
:100EE000206F6666736574733A003A20002053657C
:100EF00072766F20006F6B004572726F722077728E
:100F00006974696E6720746F20454550524F4D21BA
:100F10000A00454550524F4D206461746173697AEF
:100F200065206572726F722E0A00290A00206279AC
:100F30007465733B20637263200053657474696E3B
:100F400067732053746F726564202800290A00209B
:100F500062797465733B2063726320002073746F41
:100F60007265642073657474696E6773207265744A
:100F7000726965766564202800202863616C63755A
:100F80006C6174656429210A0020213D20004545DB
:100F900050524F4D20435243206D69736D6174630D
:100FA00068202D202873746F7265642920002053F7
:100FB000697A653A2000496E6465783A2000204DD0
:100FC00061726C696E3D563535290A0028454550D9
:100FD000524F4D3D00454550524F4D20766572733E
:100FE000696F6E206D69736D61746368200048617C
:100FF0007264636F6465642044656661756C742017
:1010000053657474696E6773204C6F616465640A1C
:1010100000DC050000DC05000032000000102700A5
:101020000000009643000096430000A041000034F9
:10103000420000C8420000C842F0F7FB4300000C29
:101040004320204D393036003A0A0020286D6D29A2
:1010500000205430204500205A005374657070659C
:1010600072206472697665722063757272656E743F
:101070003A0A0020204D383531205A005A2D50723E
:101080006F6265204F6666736574002044002049D6
:101090000020204D333031205000204400204900F2
:1010A00020500020204D333031204500504944204D
:1010B00073657474696E67733A0A00205A00204A97
:1010C000002020473239205720490020204D34325B
:1010D000302053004175746F20426564204C657662
:1010E000656C696E673A0A00205A00205900205842
:1010F0000020204D323138205400486F74656E64F2
:10110000206F6666736574733A0A00205A0020598E
:101110000020204D323036205800486F6D65206F1A
:1011200066667365743A0A00204A00205400205312
:101130000020204D323035204200204A3C6A756E36
:10114000635F6465763E00416476616E6365643A10
:1011500020423C6D696E5F7365676D656E745F7488
:10116000696D655F75733E20533C6D696E5F6665A2
:101170006564726174653E20543C6D696E5F747283
:101180006176656C5F66656564726174653E0020BA
:10119000540020520020204D323034205000416352
:1011A00063656C65726174696F6E2028756E697411
:1011B000732F7332293A20503C7072696E745F61EC
:1011C0006363656C3E20523C726574726163745F48
:1011D000616363656C3E20543C74726176656C5F3C
:1011E000616363656C3E0A00204500205A00205967
:1011F0000020204D3230312058004D6178696D75E6
:101200006D20416363656C65726174696F6E20283F
:10121000756E6974732F7332293A0A0020450020D5
:101220005A0020590020204D3230332058004D61A3
:1012300078696D756D20666565647261746573208B
:1012400028756E6974732F73293A0A0020450020AF
:101250005A0020590020204D39322058005374651F
:1012600070732070657220756E69743A0A002020D0
:101270004D3230302044300A0020204D32303020B2
:10128000543120440020204D32303020440020448E
:10129000697361626C65640A0046696C616D656EB4
:1012A000742073657474696E67733A002020473246
:1012B00031202020203B007A5F70726F62653A20F7
:1012C000007A5F6D61783A2000795F6D61783A202D
:1012D00000785F6D696E3A20005265706F727469B4
:1012E0006E6720656E6473746F70207374617475BB
:1012F000730A00000000010000000100008000559A
:101300005555000000400033333300AAAA2A004993
:1013100092240000002000C7711C0099991900D187
:10132000451700555515003BB11300244912001113
:10133000111100000010000F0F0F00E3380E0043E2
:10134000790D00CCCC0C00C3300C00E8A20B00647B
:10135000210B00AAAA0A00703D0A009DD80900428C
:101360007B090092240900DCD3080088880800105B
:1013700042080000000800F0C107008787070075D9
:10138000500700711C07003EEB0600A1BC06006977
:1013900090060066660600703E060061180600179B
:1013A000F4050074D105005BB00500B29005006241
:1013B0007205005555050078390500B81E05000571
:1013C0000505004EEC040087D40400A1BD04009084
:1013D000A7040049920400C17D0400EE690400C71F
:1013E000560400444404005C320400082104004117
:1013F000100400000004003FF00300F8E0030026A2
:10140000D20300C3C30300CCB503003AA803000A0B
:101410009B0300388E0300C08103009F750300D03A
:10142000690300505E03001D53030034480300911C
:101430003D03003333030016290300381F030097D0
:10144000150300300C0300030303000BFA020049EC
:10145000F10200BAE802005CE002002DD802002D83
:10146000D0020059C80200B0C0020031B90200DA4F
:10147000B10200AAAA0200A0A30200BC9C0200FACA
:101480009502005C8F0200DF880200828202004524
:101490007C02002776020027700200436A02007C6B
:1014A000640200D05E02003F590200C853020020CF
:1014B000746F6F206C6F6E672065787472757369D6
:1014C0006F6E2070726576656E7465640A002063C5
:1014D0006F6C6420657874727573696F6E207072BA
:1014E0006576656E7465640A00FFFDFCFAF8F6F433
:1014F000F2F0EEECEAE9E7E5E3E1E0DEDCDAD9D7A9
:10150000D5D4D2D0CFCDCBCAC8C7C5C3C2C0BFBD4A
:10151000BCBAB9B7B6B4B3B2B0AFADACAAA9A8A6BD
:10152000A5A4A2A1A09E9D9C9A9998979594939208
:10153000908F8E8D8B8A8988878684838281807F35
:101540007E7D7B7A797877767574737271706F6E41
:101550006D6C6B6A696867666564636261605F5E33
:101560005D5C5B5A59585857565554535251505018
:101570004F4E4D4C4B4A4A494847464645444342E4
:101580004241403F3E3E3D3C3B3B3A39383837369E
:101590003535343332323130302F2E2E2D2C2B2B4B
:1015A0002A292928272726252524232322212120EB
:1015B000201F1E1E1D1C1C1B1B1A1919181817167C
:1015C00016151514131312121111100F0F0E0E0D04
:1015D0000D0C0C0B0A0A0909080807070606050581
:1015E00004040303020201000046696C616D656E2C
:1015F0007420757365643A200053746174733A20E3
:10160000002C204C6F6E67657374206A6F623A20FD
:1016100000546F74616C2074696D653A20005374D6
:101620006174733A20002C204661696C65643A202D
:10163000002C2046696E69736865643A2000507218
:10164000696E74733A200053746174733A200024F5
:10165000F4D43050C38E20C2A24017828B70111276
:101660007A910D816CD90AA861E108C758660761B3
:101670005143061E4B5D05C145A7041A41110409DB
:101680003D9803713931034036DB0265339102D452
:10169000305402802E1D02632CEE01752AC501B064
:1016A00028A001102781018F2564012B244B01E024
:1016B000223401AC211F018D200D01801FFC00840C
:1016C0001EED00971DDF00B81CD200E61BC60020EF
:1016D0001BBC00641AB200B219A8000A19A0006A63
:1016E000189900D117910040178B00B5168400316E
:1016F000167E00B31579003A157300C7146F0058B1
:10170000146A00EE1366008813630025135E00C799
:10171000125B006C12570015125400C11151007079
:10172000114F0021114B00D61049008D1047004683
:1017300010440002104200C00F4000800F3E0042E3
:101740000F3C00060F3B00CB0E3800930E37005CB9
:101750000E3500270E3400F30D3200C10D3100901C
:101760000D3000600D2E00320D2D00050D2C00D91E
:101770000C2B00AE0C2900850C29005C0C270035D1
:101780000C27000E0C2600E80B2400C40B2400A03C
:101790000B23007D0B23005A0B2100390B2100186D
:1017A0000B2000F80A1F00D90A1E00BB0A1E009D6C
:1017B0000A1D00800A1D00630A1C00470A1B002C3A
:1017C0000A1B00110A1A00F7091A00DD091900C4E2
:1017D000091900AB091900920917007B0918006369
:1017E0000917004C09160036091600200916000AD0
:1017F000091500F5081500E0081400CC081400B81D
:10180000081400A4081400900813007D0812006B4F
:10181000081300580812004608120034081100236B
:101820000811001208110001081100F0071000E073
:10183000071000D0071000C0071000B0070F00A16C
:1018400007100091070E0083070F0074070F006553
:10185000070E0057070E0049070E003B070D002E2C
:10186000070E0020070D0013070D0006070D00F9F5
:10187000060C00ED060D00E0060C00D4060C00C8B6
:10188000060C00BC060C00B0060C00A4060B009968
:10189000060C008D060B0082060B0077060B006C11
:1018A000060B0061060A0057060B004C060A0042B0
:1018B000060A0038060A002E060A0024060A001A44
:1018C000060A001006090007060A00FD050900F4D3
:1018D000050900EB050900E2050900D9050900D05A
:1018E000050900C7050900BE050900B5050800ADDA
:1018F000050800A50509009C050800940508008C52
:10190000050800840508007C050800740508006CC3
:10191000050700650508005D050700560508004E2F
:101920000507004705070040050800380507003196
:101930000507002A050700230507001C05060016F9
:101940000507000F0507000805060002050700FB54
:10195000040600F5040700EE040600E8040600E2B1
:10196000040700DB040600D5040600CF040600C906
:10197000040600C3040600BD040600B7040600B157
:10198000040500AC040600A6040600A00405009BA4
:1019900004060095040500900406008A04050085ED
:1019A000040500800406007A040500750405007033
:1019B0000405006B04050066040500610405005C75
:1019C00004050057040500520405004D04050048B5
:1019D000040500430405003E0404003A04050035F4
:1019E000040500300404002C04050027040400232F
:1019F0000405001E0404001A040400160405001166
:101A00000404000D0404000904050004040400009B
:101A1000040400FC030400F8030400F4030400F0D1
:101A2000030400EC030400E8030400E4030400E002
:101A3000030400DC030400D8030400D4030400D032
:101A4000030400CC030400C8030300C503030024FF
:101A5000F404D9201BC40C5C0E9804C4095F026511
:101A6000077101F405F900FB04B30048048700C1C5
:101A70000369005803550003034500BE023A008481
:101A800002310053022A002902250004022000E44A
:101A9000011C00C8011900AF01170098011400844F
:101AA000011300710110006101100051010E00438B
:101AB000010D0036010B002B010B0020010B00155E
:101AC0000109000C01090003010800FB000800F3F4
:101AD000000800EB000700E4000600DE000600D866
:101AE000000600D2000600CC000500C7000500C2B9
:101AF000000500BD000400B9000400B5000400B1F9
:101B0000000400AD000400A9000400A5000300A229
:101B10000003009F0004009B000300980003009551
:101B200000020093000300900003008D0002008B70
:101B30000003008800020086000200840003008188
:101B40000002007F0002007D0002007B000200799D
:101B500000020077000100760002007400020072AB
:101B6000000100710002006F0002006D0001006CB6
:101B70000002006A000100690002006700010066BF
:101B800000010065000100640002006200010061C4
:101B9000000100600001005F0002005D0001005CC8
:101BA0000001005B0001005A0001005900010058CB
:101BB00000010057000100560001005500010054CB
:101BC00000010053000000530001005200010051C9
:101BD000000100500001004F0001004E0000004EC7
:101BE0000001004D0001004C0001004B0000004BC3
:101BF0000001004A000100490001004800000048BF
:101C000000010047000100460000004600010045B9
:101C100000000045000100440001004300000043B3
:101C200000010042000000420001004100000041AC
:101C3000000100400001003F0000003F0001003EA5
:101C40000000003E0001003D0000003D0001003C9E
:101C50000000003C0000003C0001003B0000003B95
:101C60000001003A0000003A00010039000000398C
:101C70000001003800000038000000380001003783
:101C8000000000370001003600000036000000367A
:101C9000000100350000003500000035000100346F
:101CA0000000003400000034000100330000003365
:101CB000000000330001003200000032000000325A
:101CC000000100310000003100000031000100304F
:101CD00000000030000000300001002F0000002F45
:101CE0000000002F0000002F0001002E0000002E39
:101CF0000000002E0001002D0000002D0000002D2E
:101D00000000002D0001002C0000002C0000002C21
:101D10000000002C0001002B0000002B0000002B15
:101D20000000002B0001002A0000002A0000002A09
:101D30000000002A000100290000002900000029FD
:101D400000000029000000290001002800000028F0
:101D500000000028000000280000002800010027E3
:101D600000000027000000270000002700000027D7
:101D700000010026000000260000002600000026CA
:101D800000000026000100250000002500000025BD
:101D900000000025000000250000002500010024AF
:101DA00000000024000000240000002400000024A3
:101DB0000001002300000023000000230000002396
:101DC0000000002300000023000000230001002287
:101DD000000000220000002200000022000000227B
:101DE000000000220001002100000021000000216D
:101DF000000000210000002100000021000000215F
:101E00000001002000000020000000200000002051
:101E10000000002000000020000000200000002042
:101E20000001001F0000001F0000001F0000001F35
:101E30000000001F0000001F0000001F0001001E26
:101E40000000001E0000001E0000001E00000039FF
:101E50003000003325000087190000B00F0000DBC0
:101E6000080000BD040000740200003F01000045AE
:101E700034004533004532004531004530005A32C8
:101E8000005932005832005A00590058004C45564B
:101E9000454C494E4700434F4D4D554E49434154E3
:101EA000494F4E0044525952554E004552524F52DE
:101EB0005300494E464F004543484F002364656632
:101EC000696E652044454641554C545F4B64200083
:101ED00023646566696E652044454641554C545FF0
:101EE0004B69200023646566696E65204445464160
:101EF000554C545F4B702000504944204175746F1D
:101F000074756E652066696E69736865642120501A
:101F1000757420746865206C617374204B702C207C
:101F20004B6920616E64204B6420636F6E73746133
:101F30006E74732066726F6D2062656C6F772069B6
:101F40006E746F20436F6E66696775726174696F36
:101F50006E2E680A00504944204175746F74756E86
:101F600065206661696C6564212074696D656F75B3
:101F7000740A00453220544845524D414C20525578
:101F80004E4157415900453120544845524D414C2E
:101F90002052554E4157415900546865726D616C2D
:101FA0002052756E61776179004532204865617411
:101FB000696E67206661696C65640045312048651B
:101FC0006174696E67206661696C6564004865616B
:101FD00074696E67206661696C65640050494420CD
:101FE0004175746F74756E65206661696C656421F6
:101FF0002054656D706572617475726520746F6FC1
:1020000020686967680A00204B643A2000204B6909
:102010003A2000204B703A20000A20436C61737311
:10202000696320504944200A002054753A2000205A
:102030004B753A2000206D61783A2000206D696E62
:102040003A200020643A200020626961733A20003F
:10205000504944204175746F74756E6520737461C6
:1020600072740A00504944204175746F74756E652E
:10207000206661696C656421204261642065787422
:102080007275646572206E756D6265720A006265B4
:10209000640A002C2073797374656D2073746F70FB
:1020A00070656421204865617465725F49443A2017
:1020B000004265642068656174696E6720666169C5
:1020C0006C65640048656174696E67206661696C5F
:1020D00065640045312048656174696E67206661FA
:1020E000696C65640045322048656174696E6720DB
:1020F0006661696C65640048656174696E67206635
:1021000061696C6564001000600350012C0190014E
:102110002201D001180110020E0170020401E00238
:10212000FA006003F0000004E600B004DC00A00543
:10213000D200B006C8000008BE00A009B400800BA1
:10214000AA00D00DA00090109600C0138C0070174C
:102150008200901B780010206E00C0246400E02DE7
:10216000500080353C00A03A2800A03D1400003FFC
:102170000000A03FECFF4532204572723A204D41ED
:102180005854454D50004531204572723A204D411A
:102190005854454D50004572723A204D41585445AF
:1021A0004D5020424544004D415854454D502074F7
:1021B0007269676765726564004532204572723ADC
:1021C000204D494E54454D50004531204572723ADC
:1021D000204D494E54454D50004572723A204D49AC
:1021E0004E54454D5020424544004D494E54454DB6
:1021F000502074726967676572656400202F002043
:1022000040002042403A0020403A008B1E891E8741
:102210001E841E811E7E1E7B1E781E751E721E6F02
:102220001E747275650066616C7365002074656D5F
:102230007065726174757265207072657761726E17
:10224000207472696767657265643A200020707255
:10225000657761726E20666C616720636C65617280
:1022600065640A0000002100240027002A002D00D8
:102270003000330001010000040107010A010000E1
:102280000A0B02090C0D0E080703040100000000F0
:10229000000000000000000000000000000000003E
:1022A00000000000000000000000121110000000FB
:1022B000000000000000000000000000000000001E
:1022C0000000000047322F473320626164207061B4
:1022D00072616D65746572730A003C3C3C20473244
:1022E000380A003E20686F6D696E67206E6F74203B
:1022F0006E65656465642C20736B69700A003C3CF4
:102300003C204732380A005261697365205A202800
:102310006265666F726520686F6D696E67292074EB
:102320006F20003E20656E6473746F70732E656E4F
:1023300061626C652874727565290A003E3E3E2014
:102340004732380A00205A3A200020593A200042E9
:10235000656420583A20004D65736820706F696E7F
:10236000742063616E6E6F74206265207265736F96
:102370006C7665640A005072696E742074696D65CC
:102380003A20006F666600B71EB21EAB1EA41E96F2
:102390001E8D1E44454255473A004D31313320537E
:1023A000006F6B00544845524D414C5F50524F54A2
:1023B000454354494F4E004155544F5245504F529A
:1023C000545F53445F53544154555300454D455257
:1023D00047454E43595F5041525345520043415384
:1023E000455F4C494748545F4252494748544E451F
:1023F000535300544F47474C455F4C49474854534B
:1024000000534F4654574152455F504F5745520075
:102410004255494C445F50455243454E54004C454B
:1024200056454C494E475F44415441005A5F505213
:102430004F4245004155544F4C4556454C00505273
:10244000494E545F4A4F420050524F4752455353F2
:10245000004155544F5245504F52545F54454D50D2
:1024600000564F4C554D4554524943004545505236
:102470004F4D0053455249414C5F584F4E5F584FA6
:102480004646004649524D574152455F4E414D45E3
:102490003A4D61726C696E204A3230445F3231309D
:1024A0003630325F313535385F475620534F5552FD
:1024B00043455F434F44455F55524C3A68747470CE
:1024C000733A2F2F6769746875622E636F6D2F677B
:1024D000616E6573686D65762F4A756C696132301F
:1024E00031384D61726C696E3131392D566F6C74B3
:1024F000657272612050524F544F434F4C5F5645A6
:102500005253494F4E3A312E30204D414348494EA7
:10251000455F545950453A4A756C69612050726F55
:10252000204475616C2041424C203234562077693A
:10253000746820544D432076657273696F6E20660F
:102540006F72205A20616E642045302045585452E5
:10255000554445525F434F554E543A3220555549E4
:10256000443A30313038613539392D336239352DBF
:10257000343138362D613633362D30363965623593
:102580003938373963300A002F2F200020540020BB
:102590005200416363656C65726174696F6E3A20C5
:1025A00050003F4A206F7574206F662072616E671D
:1025B000652028302E303120746F20302E33290AC8
:1025C00000000020C20080C5430000C843546F6F64
:1025D000206661722066726F6D2072656665726535
:1025E0006E636520706F696E740A00FF01012046FA
:1025F0006C6F773A2000000136372603FFFFFF3566
:102600003C3D38FF0FFFFF312E303EFF13FFFFFF31
:1026100028390C0809FFFFFF1A1C18FFFF2A242283
:102620001EFFFF2C08440AFF4307FF45206F757407
:10263000206F662072616E67650A00536572766F5F
:10264000200043290A0061626C656420286D696E70
:102650002074656D702000436F6C6420657874721F
:10266000756465732061726520004E6F206361732D
:1026700065206C696768740A004D65736820706F27
:10268000696E742063616E6E6F742062652072657E
:10269000736F6C7665640A004D34323120696E6365
:1026A0006F727265637420706172616D65746572BA
:1026B0002075736167650A00454550524F4D204FA4
:1026C0004B0A003F5A206F7574206F662072616E4E
:1026D000676520282D323020746F203230290A009F
:1026E0003A200050726F6265205A204F666673650B
:1026F0007400206472697665722063757272656E0B
:10270000743A20003C3C3C2067636F64655F540A68
:1027100000203A2041465445520A00202063757239
:1027200072656E745F706F736974696F6E3D0020BF
:102730003A204245464F52450A0020206375727286
:10274000656E745F706F736974696F6E3D003E3EB5
:102750003E2067636F64655F54280020503A002074
:102760005A3A0020593A0020583A00656E64737452
:102770006F7073206869743A200000002000230005
:10278000260029002C002F00320000010000030168
:102790000601090100002200250028002B002E0060
:1027A0003100340002010000050108010B0105059C
:1027B0000505070508080808020202020A0A0808B7
:1027C00004040404010101010101010103030303E5
:1027D00003030303040707070C0C0C0C0C0C0C0C74
:1027E0000202020206060606060606060B0B0B0B85
:1027F0000B0B0B0B010210202008081020401020AA
:1028000040800201020108040201010204081020B4
:1028100040808040201008040201800402018040B2
:10282000201008040201080402010102040810201B
:1028300040800102040810204080556E6B6E6F7757
:102840006E20636F6D6D616E643A202200203A2025
:102850003C3C3C2072756E5F7A5F70726F62650AF5
:1028600000202063757272656E745F706F73697497
:10287000696F6E3D002044697363726570616E63B9
:10288000793A00326E642050726F6265205A3A00C5
:10289000203A203C3C3C2072756E5F7A5F70726F0C
:1028A00062650A00202063757272656E745F706FD6
:1028B000736974696F6E3D00534C4F572050726FAF
:1028C0006265206661696C210A0031737420507260
:1028D0006F6265205A3A00203A203C3C3C207275D9
:1028E0006E5F7A5F70726F62650A00202063757296
:1028F00072656E745F706F736974696F6E3D0046C8
:102900004153542050726F6265206661696C210AE0
:1029100000203A203E3E3E2072756E5F7A5F7072F4
:102920006F62650A00202063757272656E745F7055
:102930006F736974696F6E3D003C3C3C2070726F30
:1029400062655F70740A0050726F62696E6720661C
:1029500061696C65640A0050524F42494E475F46B8
:1029600041494C45440A00205A3A200020593A2057
:102970000042656420583A2000203A200A002020B6
:1029800063757272656E745F706F736974696F6E70
:102990003D005F72656C6174697665290A002C20C0
:1029A000002C20002C20002C20003E3E3E20707287
:1029B0006F62655F707428002066697273740A0024
:1029C0005A0059005800486F6D6520006563686FB4
:1029D0003A00453220544845524D414C2052554E04
:1029E0004157415900453120544845524D414C20F2
:1029F00052554E4157415900424544205448455292
:102A00004D414C2052554E41574159005468657212
:102A10006D616C2052756E61776179005072696EDC
:102A20007465722068616C7465642E206B696C6CCF
:102A300028292063616C6C6564210A004572726FFD
:102A4000723A00003DA611241FBECFEFD1E2DEBFD7
:102A5000CDBF00E00CBF13E0A0E0B2E0EEE2F4E98D
:102A600001E00BBF02C007900D92A637B107D9F75E
:102A700020E1A6E7B3E001C01D92A238B207E1F75A
:102A800015E1C3E2D5E100E006C021970109802FDE
:102A9000FE010E9496C9C232D10780E00807A9F75B
:102AA0000E947CA70C9415CA0C9400000F931F93EE
:102AB000CF93DF93C82F80916F00D82FD27081FF02
:102AC00005C080916F008D7F80936F006091B20B85
:102AD0007091B30B8091B40B9091B50B0091B60B34
:102AE0001091B70B2091B80B3091B90BC13039F56B
:102AF000601B710B820B930B0E94CEC120E030E073
:102B000040E05FE30E942DC20E94BCC724E0C29F48
:102B1000F0011124ED5AF44F608371838283938313
:102B200081E08093520BDD2329F080916F00826059
:102B300080936F00DF91CF911F910F910895600FE7
:102B4000711F821F931FD8CF90916F00292F227081
:102B500091FF05C090916F009D7F90936F0094E06E
:102B6000899FF0011124EE54F44F608171818281BC
:102B70009381222329F020916F00226020936F001F
:102B80000895BC012091500B3091510B4091500B96
:102B90005091510B2417350731F481E02617370780
:102BA00009F080E008959A01F1CFEF92FF920F9320
:102BB0001F93E0928303F0928403009385031093A4
:102BC00086036093870370938803809389039FEF44
:102BD000FF27621B730B840B30F480957095619511
:102BE000790B890B992790938203A6E06A9F009244
:102BF0007603512DEE277A9F500DE11D8A9FE00D3F
:102C000050937703E0937803AFE06A9F00927A03D2
:102C1000512DEE277A9F500DE11D8A9FE00D5093B4
:102C20007B03E0937C03AAE06A9F00927E03512D10
:102C3000EE277A9F500DE11D8A9FE00D50937F0390
:102C4000E09380031F910F91FF90EF900895809182
:102C50000B0B80FF2BC0899A8FEF8093070B80911D
:102C60000B0B81FF26C08F9A8FEF8093080B80910A
:102C70000B0B82FF21C080910B01827080930901B0
:102C80008FEF8093090B80910C0B90910B0B93FFAE
:102C90001DC0811119C0169A8FEF80930A0B000096
:102CA000000082E08A950000E9F70895899881E0A4
:102CB000D4CF8F9881E0D9CF80910B01809582701D
:102CC0008093090181E0DDCF439AE6CF811103C0F3
:102CD000169881E0E2CF4398FCCF8091260F909127
:102CE000270F891B8F7019F490E080E00895909170
:102CF000230F992351F0833030F48FEF890F19F0AF
:102D00008093230FF1CF1092230F8091270F2DE591
:102D1000829FC0011124895C9A4FFC01208120FD13
:102D2000E3CF2091270F2F5F2F702093240F309136
:102D3000270F2091250F321304C02091240F2093D8
:102D4000250F0895009781F41092900082E08093FF
:102D500091001092950010929400C19A8091710098
:102D600082608093710008958130910569F410921A
:102D7000A00082E08093A1001092A5001092A40010
:102D800089BB809372000895029761F4109220012C
:102D900082E08093210110922501109224018ABBC8
:102DA0008093730008959F92AF92BF92CF92DF926B
:102DB000EF92FF920F931F93CF93DF9300D01F9258
:102DC0001F92CDB7DEB7E9EEF4E10027BB27462F0F
:102DD000572FA82FAA2341F4A52F542FB85FAA2359
:102DE00019F4A52F5527B85FA03138F45295A29554
:102DF000452F4F70507FA42BBC5FA03428F4550F93
:102E0000AA1F550FAA1FBE5FA03818F4550FAA1F9E
:102E1000B395550FAA1FEA0FF01F449151E0AA275E
:102E2000B85081F1C8F0B0FF02C0440F551FB1FF88
:102E300004C0440F551F440F551FB2FF06C05295E2
:102E40004295142F1F70407F512BB3FF1BC0A52F3D
:102E5000542F44270C944217B195B0FF02C05595EA
:102E60004795B1FF04C05595479555954795B2FFD5
:102E700005C05295407F4295452B5F70B3FF02C05D
:102E8000452F5527DD24CC24BB24B2E0649FD01805
:102E9000C108B00AB00B749FC018B108B00B849F72
:102EA000B018B109659FC018B108B00B759FB01874
:102EB000B109859FB0196A9FB018B1097A9FB019FE
:102EC0004D9DA12C99243327992722275D9DA00C85
:102ED000911C301F901F201FAD9D900C311D901F25
:102EE000201F4C9DA00C911C301F901F201F5C9D2B
:102EF000900C311D901F201FAC9D300D911D201F87
:102F00004B9D900C311D901F201F5B9D300D911D1E
:102F1000201FAB9D900D211D4B9F300D911D201F3B
:102F20005B9F900D211DAB9F200DB1E0BB24CC24F5
:102F3000DD24639FD018C108B00AB00B739FC0187E
:102F4000B108B00B839FB018B109699FC018B108D0
:102F5000B00B799FB018B109899FB019629FB01862
:102F6000B109729FB019D61AC70AB80A20F0B1E0A9
:102F70003B0F901F201F1124792F632F90E0822F89
:102F80000F900F900F900F900F90DF91CF911F91A6
:102F90000F91FF90EF90DF90CF90BF90AF909F90F8
:102FA0000895CF92DF92EF92FF926091AA0B7091F9
:102FB000AB0B072E000C880B990B0E94CEC16B0146
:102FC0007C012DEB37E346E855EB0E94B0C887FD46
:102FD0000BC02DEB37E346E855E3C701B6010E946D
:102FE000C7C118160CF043C0A701960160E070E05D
:102FF00080E89FE30E944AC76093A7047093A804E7
:103000008093A9049093AA046091AC0B7091AD0BCE
:10301000072E000C880B990B0E94CEC16B017C011E
:103020002DEB37E346E855EB0E94B0C887FD0AC098
:103030002DEB37E346E855E3C701B6010E94C7C14F
:103040001816CCF4A701960160E070E080E89FE3D9
:103050000E944AC76093AB047093AC048093AD04A4
:103060009093AE04FF90EF90DF90CF90089560E0D2
:1030700070E0CB01C1CF60E070E0CB01EBCF90916D
:103080008B03E92FF0E0E054F34F80839F5F94308F
:1030900040F490938B0380914C0E8F5F80934C0E85
:1030A000089510928B03F7CF809181049091820450
:1030B0002FEF3FEF981751F0E92FF0E0EF5FFB4F54
:1030C000208130E09F5F9F7790938204C90108952B
:1030D00064E670E080E090E00E94DF8B86ED9EE089
:1030E0000E94C38E89E89EE00C94C38ECF92DF923B
:1030F000EF92FF920F931F93CF93DF936B017A01AF
:10310000EC01CC5CDA4F28813CE0389F8001399F8C
:10311000100D112427FF24C0FB0111821082888129
:103120008F5F888388819801280F311D87FD3A952C
:10313000C9012091B80FF6012817190629F024F0CB
:1031400088818C300CF43CC080819181049680345D
:103150009C4908F475C0F60180819181049672C083
:1031600088819801280F311D87FD3A95C90120916A
:10317000B80F2817190699F294F28881A801480F10
:10318000511D87FD5A95FA01EE0FFF1FE40FF51F41
:10319000E45BF04F808186FFC2CF8881F801E80FA1
:1031A000F11D87FDFA95CF01EE0FFF1FE80FF91F04
:1031B000E45BF04F808160E08F730E94A98AAFCFFB
:1031C000808191812881A801420F511D27FD5A95C8
:1031D0009A01FA01EE0FFF1FE20FF31FE45BF04FBD
:1031E00021813281820F931FF7019183808388812F
:1031F0009801280F311D87FD3A95F901EE0FFF1F49
:10320000E20FF31FE45BF04F808186FF20C08881CE
:10321000080F111D87FD1A95F801EE0FFF1FE00F33
:10322000F11FE45BF04F808161E08F73DF91CF91FC
:103230001F910F91FF90EF90DF90CF900C94A98A8F
:1032400080E49CE9F701918380838FEF8883DF918D
:10325000CF911F910F91FF90EF90DF90CF90089545
:10326000CF92DF92EF92FF92CF9380916F00C82FA1
:10327000C27081FF05C080916F008D7F80936F00C9
:1032800080E00E94A4156B017C0181E00E94A415DE
:103290006C0D7D1D8E1D9F1D0E94CEC120E030E073
:1032A00040E05FE30E942DC29B01AC01CC2329F0DA
:1032B00080916F00826080936F0060910F05709124
:1032C000100580911105909112050E942DC2609306
:1032D000AF047093B0048093B1049093B2048091D2
:1032E0006F00C82FC27081FF05C080916F008D7F75
:1032F00080936F0080E00E94A4156B017C0181E047
:103300000E94A415A7019601261B370B480B590BE9
:10331000CA01B9010E94CEC120E030E040E05FE385
:103320000E942DC29B01AC01CC2329F080916F003B
:10333000826080936F0060911305709114058091F5
:103340001505909116050E942DC26093B3047093E9
:10335000B4048093B5049093B60482E00E94A4154F
:103360000E94CEC19B01AC016091170570911805B8
:103370008091190590911A050E942DC26093B7049F
:103380007093B8048093B9049093BA04CF91FF90DE
:10339000EF90DF90CF90089580911F05882341F032
:1033A00040E150E063E370E084E295E00C94ACC54A
:1033B00008952F923F924F925F926F927F928F92D9
:1033C0009F92AF92BF92CF92DF92EF92FF920F93B4
:1033D0001F93CF93DF93CDB7DEB76C970FB6F894FA
:1033E000DEBF0FBECDBF8C015B015A834983FC0158
:1033F000E95BFF4F2081318142815381298B3A8BD8
:103400004B8B5C8BCA01B9010E94CCC16B017C0162
:10341000D5012D913D914D915C910E942DC20E944C
:103420002EC70E94C3C74B015C01E981FA8120814C
:10343000318142815381C701B6010E942DC20E9491
:103440002EC70E94C3C789869A86AB86BC8629850B
:103450003A854B855C85283731054105510540F497
:1034600028E730E040E050E029873A874B875C87C7
:103470006D837E838F8398874D815E816F81788590
:10348000483751056105710540F468E770E080E058
:1034900090E06D837E838F839887F801ED5AFF4F0C
:1034A0004080518062807380C301B2010E94CEC10E
:1034B00069837A838B839C8369857A858B859C85D8
:1034C0000E94CCC16D8B7E8B8F8B988F20E030E07B
:1034D000A90169817A818B819C810E94C7C188235F
:1034E00009F4E1C1A7019601C701B6010E942DC2EE
:1034F0004B015C012D893E894F89588DCA01B90164
:103500000E942DC29B01AC01C501B4010E944FC6AF
:103510004B015C0129813A814B815C81CA01B9016F
:103520000E9450C69B01AC01C501B4010E944AC76C
:103530000E942EC70E94C3C76D877E878F87988B96
:1035400066277727CB0164197509860997090E94B8
:10355000CEC14B015C016D817E818F8198850E9477
:10356000CCC12B013C0120E030E0A901C501B40130
:103570000E94C7C1882309F49AC1A3019201C30123
:10358000B2010E942DC2698F7A8F8B8F9C8FA70109
:103590009601C701B6010E942DC29B01AC01698D45
:1035A0007A8D8B8D9C8D0E944FC66B017C01A5018D
:1035B0009401C501B4010E9450C69B01AC01C70132
:1035C000B6010E944AC70E94F2C7D80195968D9015
:1035D0009D90AD90BC909897750164012D853E85B6
:1035E0004F855889C21AD30AE40AF50A0E94C3C754
:1035F000C61AD70AE80AF90AF7FE8EC02D893E8955
:103600004F89588DCA01B9010E942DC26B017C01FE
:1036100029813A814B815C81CA01B9010E9450C65F
:10362000698B7A8B8B8B9C8B20E030E0A9016981C0
:103630007A818B819C810E94C7C1882309F43BC198
:10364000C501B4010E94CCC129893A894B895C89A2
:103650000E942DC2A70196010E944FC66D877E87EA
:103660008F87988BA3019201C301B2010E942DC2E2
:103670009B01AC016D857E858F8598890E9450C61F
:103680002B013C0120E030E040E850E469817A8180
:103690008B819C810E942DC29B01AC01C301B201B0
:1036A0000E944AC70E942EC72B013C0120E030E057
:1036B000A9010E94B0C818161CF0412C512C3201EF
:1036C000C301B2010E94C3C76D877E878F87988B25
:1036D00086169706A806B90620F48D869E86AF86C4
:1036E000B88A6D857E858F8598890E94CCC129898D
:1036F0003A894B895C890E942DC2A70196010E94DC
:1037000050C60E94FEC80E94C3C7698B7A8B8B8B00
:103710009C8BC12CD12C760169897A898B899C89F3
:1037200029853A854B855C85621B730B840B950B51
:103730000E94CCC129813A814B815C810E944AC799
:1037400020E034E244EF59E40E942DC20E94C3C736
:103750004B015C0169897A898B899C892D813E8125
:103760004F815885621B730B840B950B0E94CCC153
:1037700029813A814B815C810E944AC720E034E272
:1037800044EF59E40E942DC20E94C3C72B013C01A3
:103790003FE683169104A104B10408F090C0F4013F
:1037A000EE0FFF1FEE0FFF1FED50FD4E859195911F
:1037B000A591B4918983292E3A2EBD8B4FE64416EC
:1037C00051046104710408F083C0F201EE0FFF1F81
:1037D000EE0FFF1FED50FD4E45915591659174918F
:1037E0009A01CB014D855E856F857889D8019A96BF
:1037F0004D935D936D937C939D974C0D5D1D6E1D58
:103800007F1DF80146A757A760AB71ABE55BFF4F83
:1038100049855A856B857C85408351836283738398
:10382000D6968D929D92AD92BC92D997F80142AEF8
:1038300053AE64AE75AEFE964981408321823282DA
:103840005D8953833496208331838283938369898E
:103850007A898B899C89D2966D937D938D939C9365
:10386000D5973D962D813E814F81588520833183A8
:10387000428353836C960FB6F894DEBF0FBECDBF64
:10388000DF91CF911F910F91FF90EF90DF90CF903C
:10389000BF90AF909F908F907F906F905F904F9070
:1038A0003F902F90089560E070E0CB0141CE60E042
:1038B00070E0CB0188CE60E070E0CB01F3CEC501B3
:1038C000B4010E94D3166983272E382E9D8B76CFA4
:1038D000C301B2010E94D3169B0184CF4F925F9225
:1038E0006F927F928F929F92AF92BF92CF92DF9210
:1038F000EF92FF920F931F93CF93DF93EC016091B0
:10390000AE0B7091AF0B072E000C880B990B0E9429
:10391000CEC19B01AC01688179818A819B810E9423
:103920004FC66B017C016091B00B7091B10B072EFB
:10393000000C880B990B0E94CEC19B01AC016C81DD
:103940007D818E819F810E944FC64B015C01A70142
:103950009601609106027091070280910802909191
:1039600009020E94C7C1882309F450C0C092060210
:10397000D0920702E0920802F09209022091A70477
:103980003091A8044091A9045091AA04C701B6013E
:103990000E942DC22B013C010E94F2C76B017C01E9
:1039A00020E030E0A9010E94C7C187FD70C020E07F
:1039B00030E040E050E4C701B6010E94B0C81816DC
:1039C0002CF4C12CD12CE12CA0E4FA2EA7019601F5
:1039D000C301B2010E944FC66093A3047093A40474
:1039E0008093A5049093A604C701B6010E94BCC7AA
:1039F0006093A204062E000C770B6F5F7F4F63303D
:103A0000710514F063E070E06093A104D0910102AD
:103A1000C091A204A5019401609102027091030279
:103A200080910402909105020E94C7C1811133C0A8
:103A3000DC1381C02091830430918404409185047B
:103A4000509186046091A3047091A4048091A50410
:103A50009091A6040E942DC2209187043091880481
:103A60004091890450918A040E9450C6DF91CF9101
:103A70001F910F91FF90EF90DF90CF90BF90AF908C
:103A80009F908F907F906F905F904F900895C12C82
:103A9000D12C76019BCF8092020290920302A092D9
:103AA0000402B09205022091AB043091AC04409125
:103AB000AD045091AE04C501B4010E942DC24B016A
:103AC0005C010E94F2C76B017C0120E030E0A9019B
:103AD0000E94C7C187FDF0C020E030E040E050E424
:103AE000C701B6010E94B0C818162CF4C12CD12C05
:103AF000E12CF0E4FF2EA7019601C501B4010E945C
:103B00004FC660939D0470939E0480939F0490938E
:103B1000A004C701B6010E94BCC760939C04062E96
:103B2000000C770B6F5F7F4F6330710514F063E01B
:103B300070E060939B0400919C04DC1305C08091AD
:103B40000002801709F46DC0C093010200930002C7
:103B5000002E000C110B24E0C202C0011124FC0154
:103B6000E00FF11FEE0FFF1FEE0FFF1FE258F34FA4
:103B700020813181428153812093970430939804AE
:103B80004093990450939A04C0919B040C2E000C0E
:103B9000DD0BFC01EC0FFD1FEE0FFF1FEE0FFF1FF3
:103BA000E258F34F60817181828193810E944FC6F8
:103BB0006093930470939404809395049093960477
:103BC0008091A10424E08202C0011124FC01E00FD5
:103BD000F11FEE0FFF1FEE0FFF1FE258F34F208182
:103BE00031814281538120938F043093900440931C
:103BF000910450939204C80FD91FCC0FDD1FCC0F36
:103C0000DD1FC258D34F688179818A819B810E94D0
:103C10004FC660938B0470938C0480938D049093B3
:103C20008E0480909D0490909E04A0909F04B0907C
:103C3000A0042091930430919404409195045091F4
:103C40009604C501B4010E942DC2209197043091C1
:103C500098044091990450919A040E9450C66B01B7
:103C60007C01C0928704D0928804E0928904F0928B
:103C70008A0420918B0430918C0440918D045091E2
:103C80008E04C501B4010E942DC220918F04309191
:103C9000900440919104509192040E9450C6A70153
:103CA00096010E944FC660938304709384048093AE
:103CB000850490938604BECEC12CD12C76011BCFF7
:103CC000CF93DF932091FA04222379F0EC010E9434
:103CD0006E1C9B01AC01688579858A859B850E9455
:103CE0004FC6688779878A879B87DF91CF91089530
:103CF0008F929F92AF92BF92CF92DF92EF92FF92FC
:103D00000F93CF93DF931F92CDB7DEB76C017B018A
:103D100049018091F7045B01A40EB51E8823A1F030
:103D2000F60180819181480F591F518340830F9084
:103D3000DF91CF910F91FF90EF90DF90CF90BF90E8
:103D4000AF909F908F900895F601808191810E949D
:103D5000A4C589839091BE0C992311F0002311F022
:103D6000F7018083BE016F5F7F4FC4010E94CD8742
:103D7000F60180819181019691838083FFEFEF1A94
:103D8000FF0AEA14FB0401F7D2CF0F930FB70F938A
:103D900000916E000F930B7F00936E0000916F00F7
:103DA0000D7F00936F000F930BB70F930CB70F921B
:103DB0001F922F933F934F935F936F937F938F93B4
:103DC0009F93AF93BF93EF93FF9311240E94F4222C
:103DD000FF91EF91BF91AF919F918F917F916F91E3
:103DE0005F914F913F912F911F900F900CBF0F91BA
:103DF0000BBF0F910260F89400936F000F91009336
:103E00006E000F910FBF0F9118957F928F929F9226
:103E1000AF92BF92CF92DF92EF92FF920F931F93D8
:103E2000CF93DF93EC016B018881843208F0B4C03A
:103E300090E0FC01EE0FFF1FE80FF91FE45BF04F6D
:103E4000808161E08F730E94D78A19821A828881EB
:103E50002CE0622F0E9462C9829FB001112430E0E1
:103E600020E0AB01420F531FFA01EE0FFF1FE40FDA
:103E7000F51FE45BF04F908196FD08C02F5F3F4F28
:103E80002C30310571F790E00E94A2167880E72C63
:103E9000F12C8701000F111FF801EE0DFF1DE45BEF
:103EA000F04F80818064808377FC76C080E2C81602
:103EB00082E0D8060CF03FC08A8128E532E0281B5A
:103EC000310987FD3395220F331F220F331F032E35
:103ED000000C440B550B898178E8872E912C881AA9
:103EE000910887FD9394880C991C880C991C092CC7
:103EF000000CAA08BB0860E070E0CB01D7FC0AC048
:103F0000B601653B710514F064EB70E0072E000C00
:103F1000880B990B281939094A095B090E94DCC5ED
:103F200024EB30E040E050E00E940EC6820E931E6B
:103F3000A41EB51E640183E28715D8F0298188E8A4
:103F400090E0821B910927FD9395880F991F880F98
:103F5000991FC816D90674F502972FB7F8940E0D5D
:103F60001F1DF801E45BF04F880F991F9283818336
:103F70002FBF6CED75E080E090E00E94F1A3E88136
:103F80008E2F90E0FC01EE0FFF1FE80FF91FE45B9E
:103F9000F04F80818F7B8083DF91CF911F910F91B4
:103FA000FF90EF90DF90CF90BF90AF909F908F9059
:103FB0007F9008952A8188E592E0821B910927FD70
:103FC0009395880F991F880F991FC816D90624F654
:103FD000C601C2CF1F920F920FB60F9211240BB6DB
:103FE0000F922F933F934F935F936F937F938F9392
:103FF0009F93AF93BF93EF93FF9348E251E064E246
:1040000071E082E090E00E947618FF91EF91BF91FD
:10401000AF919F918F917F916F915F914F913F9160
:104020002F910F900BBE0F900FBE0F901F90189501
:104030001F920F920FB60F9211240BB60F922F936F
:104040003F934F935F936F937F938F939F93AF9320
:10405000BF93EF93FF9348EA50E064EA70E081E099
:1040600090E00E947618FF91EF91BF91AF919F91E0
:104070008F917F916F915F914F913F912F910F9011
:104080000BBE0F900FBE0F901F9018951F920F92AE
:104090000FB60F9211240BB60F922F933F934F93AD
:1040A0005F936F937F938F939F93AF93BF93EF93A0
:1040B000FF9348E950E064E970E090E080E00E94FE
:1040C0007618FF91EF91BF91AF919F918F917F9162
:1040D0006F915F914F913F912F910F900BBE0F9079
:1040E0000FBE0F901F901895CF92DF92EF92FF9224
:1040F0008091D20B8150823008F062C01092D20BB6
:104100000E9428906093CE0B7093CF0B8093D00BBE
:104110009093D10B8091260590912705019690935D
:10412000270580932605C0902005D0902105E090BA
:104130002205F09023050E9414A4AB01BC0140931A
:1041400020055093210560932205709323058091EB
:10415000280590912905A0912A05B0912B058C196D
:104160009D09AE09BF09840F951FA61FB71F809335
:10417000280590932905A0932A05B0932B050E944A
:1041800014A4C0902C05D0902D05E0902E05F09041
:104190002F05C616D706E806F90650F40E9414A4A7
:1041A00060932C0570932D0580932E0590932F0519
:1041B0000E94CC1981E0FF90EF90DF90CF9008959E
:1041C00080E0F9CFCF93C091D20B80E0C13069F18C
:1041D000C23069F50E9414A460935F0B7093600B6A
:1041E0008093610B9093620B81E08093D20B0E94CD
:1041F00028906093630B7093640B8093650B90938E
:10420000660BC23089F080912405909125050196B6
:104210009093250580932405109220051092210586
:10422000109222051092230581E0CF9108950E94FB
:1042300046A4DACF81E080931F0580E1E4E2F5E057
:10424000DF011D928A95E9F70E94CC1966E182E3AD
:1042500090E00C94CEC54F925F926F927F928F92B6
:104260009F92AF92BF92EF92FF920F931F93CF93C3
:10427000DF93C3E0DCE08DE6E82E8CE0F82E08EE5C
:104280001BE0412C512C3201439469917991899121
:104290009991F70181909190A190B1907F010E9436
:1042A000CCC1A50194010E942DC20E94C3C7F80190
:1042B00061937193819391938F0146165706680617
:1042C000790610F42B013C01FCE0C331DF07E9F66D
:1042D0006FEF7FEFCB01A30192010E94ECC5209309
:1042E0000B0530930C0540930D0550930E05DF919F
:1042F000CF911F910F91FF90EF90BF90AF909F9043
:104300008F907F906F905F904F900895CF93DF9341
:1043100090916F00292F227091FF05C090916F003E
:104320009D7F90936F0094E0899FA0011124FA0172
:10433000ED5AF44F6081718182819381222329F0AB
:1043400020916F00226020936F00EA01C15FDA4F75
:104350000E94CEC1288139814A815B810E942DC291
:10436000DF91CF9108950F931F93CF93DF93CDB734
:10437000DEB72C970FB6F894DEBF0FBECDBF2091ED
:10438000FA04222349F18A0119861A861B861C86A3
:10439000FC0180819181A281B38189839A83AB835F
:1043A000BC83FB0180819181A281B3818D839E8337
:1043B000AF83B887CE0101960E946E1C9B01AC01B1
:1043C000F80160817181828193810E9450C6F80159
:1043D00060837183828393832C960FB6F894DEBF3B
:1043E0000FBECDBFDF91CF911F910F9108957F92A6
:1043F0008F929F92AF92BF92CF92DF92EF92FF92F5
:104400000F931F93CF93DF937090020CC5E6DCE00F
:104410009DE3C92E92E0D92E25E3E22E22E0F22E72
:104420000AEF1BE0772009F45EC0F80180809180DC
:10443000A280B38020E030E0A901C501B4010E9450
:10444000C7C1882309F44FC020E030E040E05FE3BB
:10445000C501B4010E942DC29B01AC010E942DC276
:104460002BED3FE049E450E40E942DC29B01AC01DA
:1044700060E070E080E89FE30E944AC74B015C0166
:1044800089929992A992B992F601619171916F0105
:10449000072E000C880B990B0E94CEC12AE037ED45
:1044A00043E25CE30E942DC2A50194010E942DC24B
:1044B000F70161937193819391937F010C5F1F4F7B
:1044C000FCE0CD36DF0709F0ADCFDF91CF911F9132
:1044D0000F91FF90EF90DF90CF90BF90AF909F90A3
:1044E0008F907F900895812C912C80E8A82E8FE3E7
:1044F000B82EC6CFCF93DF938091F90B811105C001
:104500008091F904882309F46CC08091F8046599BE
:1045100058C08E7F8093F804909103018091F80435
:1045200090FF51C080628093F8048091F8047B99D9
:104530004CC0877F8093F8048091F8044A9947C063
:104540008F7B8093F804C091430BC0FF10C0809113
:104550000B0B84FF0CC08091F80480FF08C0809191
:104560004A0E816080934A0E80E00E945615C1FF7A
:1045700010C080910B0B85FD0CC08091F80485FF65
:1045800008C080914A0E806280934A0E81E00E94AA
:104590005615C2FF26C080910B0B82FF1AC0809176
:1045A000F9048823F1F08091F80483FF1AC0809108
:1045B0004A0E886080934A0E82E0DF91CF910C947E
:1045C00056158160A7CF8F7DAECF8860B3CF806452
:1045D000B8CF8091F80486FF04C080914A0E8064B1
:1045E000E9CFDF91CF9108952F923F924F925F9242
:1045F0006F927F928F929F92AF92BF92CF92DF92F3
:10460000EF92FF920F931F93CF93DF93CDB7DEB757
:1046100062970FB6F894DEBF0FBECDBFF8948FEF50
:104620009FEF90938900809388000AE00983B12C62
:10463000A12C4BE6842E4EE1942E789480914C0B65
:1046400090914D0BA0914E0BB0914F0B892B8A2B63
:104650008B2B09F0E1C18091520B8823D1F080911E
:10466000500B9091510B1092520B892B91F010929C
:10467000430B1092510B1092500B9091260F80918A
:10468000270F981731F08091270F8F5F8F708093DD
:10469000270F8091500B9091510B892B09F4BCC1CD
:1046A0004091480B5091490B60914A0B70914B0B14
:1046B0008091440B9091450BA091460BB091470B14
:1046C00000913A0B10E030E020E0841B950BA60B24
:1046D000B70B081719072A073B0710F4D901C801BF
:1046E000E82F840F951FA61FB71F8093480B909348
:1046F000490BA0934A0BB0934B0B8091840090918F
:10470000850084964091210B5091220B6091230BE0
:104710007091240B0091110B1091120B2091130B2F
:104720003091140B400F511F621F731F4093210BD8
:104730005093220B6093230B7093240B77FD1CC0C6
:10474000889A0091B20B1091B30B2091B40B309169
:10475000B50B4091070B042E000C550B660B770B25
:10476000400F511F621F731F4093B20B5093B30B46
:104770006093B40B7093B50B4091250B5091260BB1
:104780006091270B7091280B0091150B1091160B5F
:104790002091170B3091180B400F511F621F731F90
:1047A0004093250B5093260B6093270B7093280B97
:1047B00077FD1CC08E9A0091B60B1091B70B20911B
:1047C000B80B3091B90B4091080B042E000C550B1F
:1047D000660B770B400F511F621F731F4093B60B80
:1047E0005093B70B6093B80B7093B90B4091290BA2
:1047F00050912A0B60912B0B70912C0B0091190B8F
:1048000010911A0B20911B0B30911C0B400F511F64
:10481000621F731F4093290B50932A0B60932B0B3D
:1048200070932C0B77FD21C020910B0120952870EF
:10483000209309010091BA0B1091BB0B2091BC0B86
:104840003091BD0B4091090B042E000C550B660BEB
:10485000770B400F511F621F731F4093BA0B509389
:10486000BB0B6093BC0B7093BD0B40912D0B509113
:104870002E0B60912F0B7091300B00911D0B10913E
:104880001E0B20911F0B3091200B400F511F621FF8
:10489000731F40932D0B50932E0B60932F0B70932F
:1048A000300B77FD20C020910C0B2111B1C0149A60
:1048B0000091BE0B1091BF0B2091C00B3091C10B2A
:1048C00040910A0B042E000C550B660B770B400F22
:1048D000511F621F731F4093BE0B5093BF0B609319
:1048E000C00B7093C10B2091840030918500281774
:1048F0003907C8F34091210B5091220B6091230B93
:104900007091240B77FD15C000910D0B10910E0BCB
:1049100020910F0B3091100B401B510B620B730B4E
:104920004093210B5093220B6093230B7093240B25
:1049300088984091250B5091260B6091270B709120
:10494000280B77FD15C000910D0B10910E0B2091D7
:104950000F0B3091100B401B510B620B730B4093EC
:10496000250B5093260B6093270B7093280B8E9882
:104970004091290B50912A0B60912B0B70912C0BBD
:1049800077FD19C000910D0B10910E0B20910F0BAC
:104990003091100B401B510B620B730B4093290B92
:1049A00050932A0B60932B0B70932C0B20910B01CF
:1049B00028702093090140912D0B50912E0B60918E
:1049C0002F0B7091300B77FD19C000910D0B1091DA
:1049D0000E0B20910F0B3091100B401B510B620BF3
:1049E000730B40932D0B50932E0B60932F0B7093F2
:1049F000300B20910C0B21110DC01498E15061F087
:104A0000209184003091850028173907C8F379CEAA
:104A1000419A4ECF4198F2CF80914C0B90914D0B23
:104A2000A0914E0BB0914F0B892B8A2B8B2B11F041
:104A30000C94242C8091500B9091510B998B888B66
:104A4000892B11F40C949B2C8091480B9091490B6D
:104A5000A0914A0BB0914B0B4091440B5091450BE8
:104A60006091460B7091470B84179507A607B7070F
:104A700008F47DC01092430B1092510B1092500B12
:104A80009091260F8091270F981711F40C949B2C6E
:104A90008091270F8F5F8F708093270F30EDC32E8B
:104AA00037E0D32EE12CF12C8091500B9091510BDB
:104AB000892B11F00C941C2C0E946D169093510BB5
:104AC0008093500B892B11F40C941C2CE091500B0B
:104AD000F091510BF98BE88B808183FF3AC5858972
:104AE0009689A789B08D418D528D638D748D8C010F
:104AF0009D01040F151F261F371F0093B20B109343
:104B0000B30B2093B40B3093B50B841B950BA60B02
:104B1000B70B8093B60B9093B70BA093B80BB093E1
:104B2000B90B858D968DA78DB0A18093BA0B90930C
:104B3000BB0BA093BC0BB093BD0B81A192A1A3A111
:104B4000B4A18093BE0B9093BF0BA093C00BB09306
:104B5000C10B9091260F8091270F981709F4ACCFC5
:104B60008091270F8F5F8F708093270FA5CF409183
:104B70003F0B5091400B6091410B7091420B4817D5
:104B800059076A077B0708F410C240913B0B50910C
:104B90003C0B60913D0B70913E0BE889F98986A929
:104BA00097A9A0ADB1AD481759076A077B0708F070
:104BB000D0C1411551056105710509F065C04090EE
:104BC0008703509088036090890370908A038FE474
:104BD0009EE1A1E0FC010591159125913491041508
:104BE00015052605370548F476946794579447943D
:104BF000AA0F04968816990669F7A0933A0BB0E2BB
:104C00004B1651046104710428F480E2482E512CA3
:104C1000612C712CE0E24E1A5108610871084114B0
:104C2000F8E05F066104710408F49CC104E0509E42
:104C3000C0011124815B954EFC013296259134917F
:104C4000B42DAA27B39FF001B29FE10DFA1F06947D
:104C5000EA1FFA1F11242F01712C612CFC01C59051
:104C6000D490F12CE12CC418D508E608F7084C0DB7
:104C70005D1D6E1D7F1D40933B0B50933C0B60935D
:104C80003D0B70933E0B10CF10E0942F452E862FD6
:104C9000BC81AD81FE81EF8138852985FA800B8149
:104CA000E0918303E99FA12DFF2730918403399F71
:104CB000A00DF11D10908503199EF00DE49DA00D2F
:104CC000F11D349DF00DE89FF00D0A2FBF2F0A9FB4
:104CD000E12D332722270F9FE00D311D211FBA9FA1
:104CE000E00D311D211FBF9F300D211D032FB22F5D
:104CF0000A9FF12C332722270F9FF00C311D211F13
:104D0000BA9FF00C311D211FBF9F300D211D032FB5
:104D1000B22FEE27909187034090880380918903FA
:104D200000908203012A09F484C030917E03309FF1
:104D3000E119910B410A810B20917F03209FE0191B
:104D40009109410A810BF0908003F09E901941086F
:104D5000810B3B9FE0199109410A810B2B9F901910
:104D60004108810BFB9E401881090A9FF12C3327D3
:104D700022270F9FF00C311D211FBA9FF00C311D0F
:104D8000211FBF9F300D211D032FB22F30917A03B9
:104D9000309FE10D911F411E811F20917B03209FB9
:104DA000E00D911D411E811FF0907C03F09E900D3F
:104DB000411C811F3B9FE00D911D411E811F2B9FB8
:104DC000900D411C811FFB9E400C811D0A9FF12C00
:104DD000332722270F9FF00C311D211FBA9FF00CA3
:104DE000311D211FBF9F300D211D032FB22F309188
:104DF0007603309FE119910B410A810B20917703D3
:104E0000209FE0199109410A810BF0907803F09EF0
:104E100090194108810B3B9FE0199109410A810BD0
:104E20002B9F90194108810BFB9E401881090C941F
:104E30009B2730917E03309FE10D911F411E811F02
:104E400020917F03209FE00D911D411E811FF09056
:104E50008003F09E900D411C811F3B9FE00D911D32
:104E6000411E811F2B9F900D411C811FFB9E400CFA
:104E7000811D0A9FF12C332722270F9FF00C311D33
:104E8000211FBA9FF00C311D211FBF9F300D211D26
:104E9000032FB22F30917A03309FE119910B410A11
:104EA000810B20917B03209FE0199109410A810B1E
:104EB000F0907C03F09E90194108810B3B9FE01914
:104EC0009109410A810B2B9F90194108810BFB9E90
:104ED000401881090A9FF12C332722270F9FF00CDD
:104EE000311D211FBA9FF00C311D211FBF9F300DB6
:104EF000211D032FB22F30917603309FE10D911FBA
:104F0000411E811F20917703209FE00D911D411EBE
:104F1000811FF0907803F09E900D411C811F3B9FF4
:104F2000E00D911D411E811F2B9F900D411C811F83
:104F3000FB9E400C811D11240B83FA82BC83AD8340
:104F4000FE83EF8338872987542C492E712C682ED5
:104F50003ECEA889B989D2964D905D906D907C9097
:104F6000D59735CED301C201B695A795979587956C
:104F70008C7F9C01215B394EF90185919491F90157
:104F80003296A591B491E42DE770EA9F9001EB9FD2
:104F9000300D112403E0369527950A95E1F7821B21
:104FA000930B6C01F12CE12C62CE4091360B5091A9
:104FB000370B6091380B7091390B481759076A0706
:104FC0007B0708F032C24090310B5090320B60905A
:104FD000330B7090340B8091350BE889F98981117E
:104FE0007DC0EE5BFF4FE080F18002811381E88994
:104FF000F989E15BFF4F2081318142815381A8898A
:10500000B989D2966D917D918D919C91D5970E9491
:10501000D515B1E0B093350BE889F989C2A8D3A8BA
:10502000E4A8F5A88FE49EE121E0FC0145915591AB
:10503000659174914C155D056E057F0548F4F694F5
:10504000E794D794C794220F04968816990669F7B7
:1050500020933A0BB0E2CB16D104E104F10428F41A
:10506000F0E2CF2ED12CE12CF12CE0E2CE1AD108C7
:10507000E108F108C114F8E0DF06E104F10408F4E6
:10508000B1C104E0D09EC0011124815B954EFC01AA
:105090003296259134917C2D6627739FA001729FD3
:1050A000410D561F0694461F561F112470E060E004
:1050B000FC01C590D490F12CE12CC41AD50AE60A63
:1050C000F70A4C0C5D1C6E1C7F1C4092310B5092F9
:1050D000320B6092330B7092340BE6CC82AD93AD01
:1050E000A4ADB5AD481659066A067B0608F070C136
:1050F000411451046104710449F4C0908703D090B5
:105100008803E0908903F0908A038CCF70E06A8571
:10511000942DE52C862D5B854C85ED853E852F8570
:1051200020918303299FE12D332720908403299E1A
:10513000E00D311D10908503199E300D2E9DE00D60
:10514000311D2E9C300D289F300D5E2F432F5E9F0A
:10515000212D22243324539F200D211C371E4E9FC6
:10516000200D211C371E439F200C311C522D432D36
:105170005E9F612D22243324539F600D211C371E16
:105180004E9F600D211C371E439F200C311C522D59
:10519000432D222790918703E09088038091890313
:1051A00000908203072A09F484C020907E03259E84
:1051B0002119970BE70A870B30907F03359E201942
:1051C0009109E70A870B60918003659F9019E108B8
:1051D000870B249E20199109E70A870B349E9019AA
:1051E000E108870B649FE01881095E9F612D2224EE
:1051F0003324539F600D211C371E4E9F600D211CD0
:10520000371E439F200C311C522D432D20907A03D2
:10521000259E210D971FE71E871F30907B03359E2B
:10522000200D911DE71E871F60917C03659F900DE7
:10523000E11C871F249E200D911DE71E871F349EB1
:10524000900DE11C871F649FE00C811D5E9F612D06
:1052500022243324539F600D211C371E4E9F600D66
:10526000211C371E439F200C311C522D432D2090B2
:105270007603259E2119970BE70A870B3090770359
:10528000359E20199109E70A870B60917803659F85
:105290009019E108870B249E20199109E70A870BD2
:1052A000349E9019E108870B649FE01881090C94E3
:1052B000DB2920907E03259E210D971FE71E871F67
:1052C00030907F03359E200D911DE71E871F609152
:1052D0008003659F900DE11C871F249E200D911D6A
:1052E000E71E871F349E900DE11C871F649FE00C12
:1052F000811D5E9F612D22243324539F600D211C4C
:10530000371E4E9F600D211C371E439F200C311C01
:10531000522D432D20907A03259E2119970BE70AE1
:10532000870B30907B03359E20199109E70A870B84
:1053300060917C03659F9019E108870B249E2019DA
:105340009109E70A870B349E9019E108870B649F47
:10535000E01881095E9F612D22243324539F600D44
:10536000211C371E4E9F600D211C371E439F200CB1
:10537000311C522D432D20907603259E210D971F21
:10538000E71E871F30907703359E200D911DE71E85
:10539000871F60917803659F900DE11C871F249EF5
:1053A000200D911DE71E871F349E900DE11C871F65
:1053B000649FE00C811D11246A875B874C87ED8711
:1053C0003E872F87FE2CE92E6701F12CE82E2ACE8E
:1053D00088899989815B9F4FDC01CD90DD90ED90AC
:1053E000FC9020CED701C601B695A79597958795D5
:1053F0008C7F9C01215B394EF90185919491F901D3
:10540000329645915491AC2DA770A49F9001A59F11
:10541000300D1124E3E036952795EA95E1F7821BDC
:10542000930B6C01F12CE12C4CCE809123029091D6
:105430002402A0912502B0912602B7FF5FC0E8893F
:10544000F989E95BFF4F40805180628073808FE46F
:105450009EE121E0FC0145915591659174914415BF
:1054600055056605770548F47694679457944794F4
:10547000220F04968816990669F720933A0BF0E2FA
:105480004F1651046104710428F450E2452E512C4A
:10549000612C712C00E2401A510861087108411416
:1054A00028E052066104710408F431C074E0579E8C
:1054B000C0011124815B954EFC01329625913491F7
:1054C000A42D6627A39FA001A29F410D561F0694FD
:1054D000461F561F112470E060E0FC0185919491F5
:1054E000B0E0A0E0841B950BA60BB70B80932302C2
:1054F00090932402A0932502B0932602C090230229
:10550000D0902402E0902502F0902602CDCAD3016B
:10551000C201B695A795979587958C7F815B994E2B
:10552000FC0125913491FC01329645915491B42DA2
:10553000B770B49FC001B59F900D112443E09695BC
:1055400087954A95E1F7281B390BC901B0E0A0E027
:10555000CDCFA889B98955964D915D916D917C917A
:10556000589759964D905D906D907C905C97FD0199
:10557000EA5BFF4FB081BA8B81E0441555056605A3
:10558000770509F0B1C180E041155105610571054C
:1055900059F09B2F969591708B2F8095817089275C
:1055A0002B2F21709213A0C1E889F989058D168DE2
:1055B000278D30A1011511052105310509F0846001
:1055C0008093430B1092310B1092320B1092330BDD
:1055D0001092340B10923B0B10923C0B10923D0B2F
:1055E00010923E0BE889F98985A196A1A7A1B0A5E3
:1055F0008093440B9093450BA093460BB093470BBD
:10560000CC24DD247601C81AD90AEA0AFB0AC09222
:105610002D0BD0922E0BE0922F0BF092300BC092FC
:10562000290BD0922A0BE0922B0BF0922C0BC092FC
:10563000250BD092260BE092270BF092280BC092FC
:10564000210BD092220BE092230BF092240B440FFB
:10565000551F661F771F4093110B5093120B6093D9
:10566000130B7093140B440C551C661C771C409252
:10567000150B5092160B6092170B7092180B000FBF
:10568000111F221F331F0093190B10931A0B209325
:105690001B0B30931C0B41A152A163A174A1440FB9
:1056A000551F661F771F40931D0B50931E0B609371
:1056B0001F0B7093200B880F991FAA1FBB1F80938D
:1056C0000D0B90930E0BA0930F0BB093100B109239
:1056D000480B1092490B10924A0B10924B0B82A56B
:1056E00093A5A4A5B5A580933F0B9093400BA093E1
:1056F000410BB093420B86A597A5A0A9B1A98093B1
:10570000360B9093370BA093380BB093390B21A530
:1057100020930C0B80910B0BFA898F1309C03091E9
:105720002202822F022E000C990B3817190639F02D
:10573000FA88F0920B0B209322020E9427160E94F7
:105740007A228FEF9FEFDC01809323029093240253
:10575000A0932502B0932602E889F989FE96E0809D
:10576000F18002811381A889B989D2962D913D914A
:105770004D915C91D597A55BBF4FB98BA88B6D916F
:105780007D918D919C910E94D5151092350BE889E1
:10579000F98940805180628073808FE49EE121E02E
:1057A000FC01459155916591749144155505660527
:1057B000770548F47694679457944794220F04969B
:1057C0008816990669F720933A0BF0E24F165104B8
:1057D0006104710428F450E2452E512C612C712C87
:1057E00000E2401A510861087108411428E052068D
:1057F0006104710408F47AC074E0579EC00111245A
:10580000815B954EFC01329625913491A42D66273B
:10581000A39FA001A29F410D561F0694461F561F2D
:10582000112470E060E0FC01C590D490F12CE12CD3
:10583000C41AD50AE60AF70AC0924C0BD0924D0B57
:10584000E0924E0BF0924F0B80914C0B90914D0BD0
:10585000A0914E0BB0914F0BAC01BD010097E1E060
:10586000AE07B10520F04FEF5FEF60E070E0841B02
:10587000950BA60BB70B80934C0B90934D0BA093FD
:105880004E0BB0934F0BF89480918400909185005B
:105890004096F981F150F983FF2309F44AC0A40E20
:1058A000B51EA816B90610F40C941D23B0928900F9
:1058B000A0928800789462960FB6F894DEBF0FBE6F
:1058C000CDBFDF91CF911F910F91FF90EF90DF90AF
:1058D000CF90BF90AF909F908F907F906F905F9090
:1058E0004F903F902F90089582605ECED301C20109
:1058F000B695A795979587958C7F9C01215B394E2E
:10590000F90185919491F901329645915491B42D04
:10591000B770B49F9001B59F300D112443E03695C8
:1059200027954A95E1F7821B930B6C01F12CE12C32
:1059300083CF5C01BBCF80EDC82E87E0D82EE12C51
:10594000F12C0C945C25CF92DF92EF92FF92CF93D3
:10595000DF93EC01C090EB04D090EC04E090ED04F8
:10596000F090EE04A7019601688179818A819B817C
:105970000E94C7C187FF04C0C882D982EA82FB8225
:10598000C090EF04D090F004E090F104F090F204A5
:10599000A70196016C817D818E819F810E94C7C184
:1059A00087FF04C0CC82DD82EE82FF82C0900A02B3
:1059B000D0900B02E0900C02F0900D02A70196012E
:1059C000688179818A819B810E94B0C8181624F46D
:1059D000C882D982EA82FB82C0900E02D0900F0268
:1059E000E0901002F0901102A70196016C817D8178
:1059F0008E819F810E94B0C8181624F4CC82DD826B
:105A0000EE82FF82C090F304D090F404E090F5049D
:105A1000F090F604A7019601688579858A859B85B3
:105A20000E94C7C187FF04C0C886D986EA86FB8664
:105A3000C0901202D0901302E0901402F090150270
:105A4000A7019601688579858A859B850E94B0C8E3
:105A5000181624F4C886D986EA86FB86DF91CF9192
:105A6000FF90EF90DF90CF9008954F925F926F92EA
:105A70007F928F929F92AF92BF92CF92DF92EF92DE
:105A8000FF92CF934B015C0169017A0120E030E085
:105A900040E251E40E944FC62B013C012FE632E167
:105AA00043E85AEB0E94B0C887FD50C021E230E0C5
:105AB00049EB53E4C301B2010E94C7C118160CF4AC
:105AC00045C020E030E040E251E4C701B6010E9449
:105AD0004FC62B013C012FE632E143E85AEB0E940E
