:100000000C9440150C9471150C9471150C94711589
:100010000C9471150C9471150C9471150C94711548
:100020000C9471150C9461210C9461210C94612144
:100030000C9471150C9471150C9471150C94711528
:100040000C9471150C94A4240C9471150C947115D6
:100050000C9471150C9471150C94CE220C941721EC
:100060000C9471150C94ABA30C9471150C94711530
:100070000C9471150C9471150C9471150C947115E8
:100080000C944E2F0C9471150C9471150C947115E1
:100090000C9471150C9471150C9471150C947115C8
:1000A0000C9471150C9471150C94202F0C947115EF
:1000B0000C9471150C9471150C9471150C94F22E0E
:1000C0000C9471150C9471150C9471150C94711598
:1000D0000C9471150C9471150C9471150C94711588
:1000E0000C947115084AD73B3BCE016E84BCBFFD12
:1000F000C12F3D6C74319ABD56833DDA3D00C77FF8
:1001000011BED9E4BB4C3E916BAAAABE0000008090
:100110003F05A84CCDB2D44EB93836A9020C50B91F
:10012000918688083CA6AAAA2ABE000000803F004B
:100130000C94F31C0C94C11C0C94563A0C94F115BD
:100140000C94611C0C942B170C949E1C0C94F117AE
:100150000C94663A0C94A0150C9412170C94CB1CBA
:100160000C949F170C9414160C94DF1C0C94FD1522
:100170000C942C160C940A160C94701C0C940016FB
:100180000C94941C0C94591C0C94661C0C94D5A3D0
:100190000C947A1C0C94853B0C94983B0C94B03BCB
:1001A0000C9430160C94F9150C94B21C0C94061691
:1001B0000C9418160C94A81C0C94EB150C94261691
:1001C0000C9422160C94793B0C942A170C94F51578
:1001D0000C94B53B0C9487170C949D3B0C94E91C34
:1001E0000C9410160C94841C0C948C1C0C94D51C30
:1001F0000C942B160C941E164E414E494E495459E0
:10020000494E46CDCCCC3D0AD7233C17B7D13877E1
:10021000CC2B329595E6241FB14F0A0000204100F7
:1002200000C84200401C4620BCBE4CCA1B0E5AAE41
:10023000C59D7445340045330045320045310045C5
:1002400030005A32005932005832005A00590058D2
:10025000004C4556454C494E4700434F4D4D554E79
:1002600049434154494F4E0044525952554E00455E
:1002700052524F525300494E464F004543484F009B
:1002800020746F6F206C6F6E672065787472757361
:10029000696F6E2070726576656E7465640A002001
:1002A000636F6C6420657874727573696F6E20700B
:1002B000726576656E7465640A00FFFDFCFAF8F6F7
:1002C000F4F2F0EEECEAE9E7E5E3E1E0DEDCDAD9CE
:1002D000D7D5D4D2D0CFCDCBCAC8C7C5C3C2C0BF73
:1002E000BDBCBAB9B7B6B4B3B2B0AFADACAAA9A8E9
:1002F000A6A5A4A2A1A09E9D9C9A99989795949337
:1003000092908F8E8D8B8A89888786848382818064
:100310007F7E7D7B7A797877767574737271706F72
:100320006E6D6C6B6A696867666564636261605F65
:100330005E5D5C5B5A59585857565554535251504C
:10034000504F4E4D4C4B4A4A494847464645444318
:10035000424241403F3E3E3D3C3B3B3A39383837D4
:10036000363535343332323130302F2E2E2D2C2B82
:100370002B2A292928272726252524232322212122
:1003800020201F1E1E1D1C1C1B1B1A1919181817B4
:100390001616151514131312121111100F0F0E0E3D
:1003A0000D0D0C0C0B0A0A090908080707060605BB
:1003B0000504040303020201000046696C616D65D7
:1003C0006E7420757365643A200053746174733AD7
:1003D00020002C204C6F6E67657374206A6F623A40
:1003E0002000546F74616C2074696D653A2000536D
:1003F000746174733A20002C204661696C65643A1C
:1004000020002C2046696E69736865643A200050AC
:1004100072696E74733A200053746174733A2000E9
:1004200024F4D43050C38E20C2A24017828B7011A6
:10043000127A910D816CD90AA861E108C758660744
:10044000615143061E4B5D05C145A7041A411104C5
:10045000093D9803713931034036DB02653391025F
:10046000D4305402802E1D02632CEE01752AC50182
:10047000B028A001102781018F2564012B244B0196
:10048000E0223401AC211F018D200D01801FFC00F2
:10049000841EED00971DDF00B81CD200E61BC600CD
:1004A000201BBC00641AB200B219A8000A19A000EF
:1004B0006A189900D117910040178B00B516840077
:1004C00031167E00B31579003A157300C7146F001A
:1004D00058146A00EE1366008813630025135E004B
:1004E000C7125B006C12570015125400C111510065
:1004F00070114F0021114B00D61049008D1047009C
:100500004610440002104200C00F4000800F3E0021
:10051000420F3C00060F3B00CB0E3800930E370015
:100520005C0E3500270E3400F30D3200C10D310092
:10053000900D3000600D2E00320D2D00050D2C00A9
:10054000D90C2B00AE0C2900850C29005C0C27006F
:10055000350C27000E0C2600E80B2400C40B2400E9
:10056000A00B23007D0B23005A0B2100390B210027
:10057000180B2000F80A1F00D90A1E00BB0A1E0033
:100580009D0A1D00800A1D00630A1C00470A1B000B
:100590002C0A1B00110A1A00F7091A00DD091900BC
:1005A000C4091900AB091900920917007B0918004A
:1005B000630917004C0916003609160020091600B9
:1005C0000A091500F5081500E0081400CC0814000D
:1005D000B8081400A4081400900813007D08120045
:1005E0006B08130058081200460812003408110066
:1005F000230811001208110001081100F007100073
:10060000E0071000D0071000C0071000B0070F006F
:10061000A107100091070E0083070F0074070F0059
:1006200065070E0057070E0049070E003B070D0037
:100630002E070E0020070D0013070D0006070D0002
:10064000F9060C00ED060D00E0060C00D4060C00C7
:10065000C8060C00BC060C00B0060C00A4060B007B
:1006600099060C008D060B0082060B0077060B0026
:100670006C060B0061060A0057060B004C060A00C8
:1006800042060A0038060A002E060A0024060A005E
:100690001A060A001006090007060A00FD050900EF
:1006A000F4050900EB050900E2050900D905090078
:1006B000D0050900C7050900BE050900B5050800F9
:1006C000AD050800A50509009C0508009405080073
:1006D0008C050800840508007C05080074050800E6
:1006E0006C050700650508005D0507005605080054
:1006F0004E050700470507004005080038050700BC
:10070000310507002A050700230507001C05060020
:10071000160507000F05070008050600020507007B
:10072000FB040600F5040700EE040600E8040600DA
:10073000E2040700DB040600D5040600CF0406002F
:10074000C9040600C3040600BD040600B704060081
:10075000B1040500AC040600A6040600A0040500D0
:100760009B04060095040500900406008A04050019
:1007700085040500800406007A0405007504050060
:10078000700405006B0405006604050061040500A3
:100790005C04050057040500520405004D040500E3
:1007A00048040500430405003E0404003A04050023
:1007B00035040500300404002C040500270404005F
:1007C000230405001E0404001A0404001604050096
:1007D000110404000D0404000904050004040400CD
:1007E00000040400FC030400F8030400F403040004
:1007F000F0030400EC030400E8030400E403040035
:10080000E0030400DC030400D8030400D403040064
:10081000D0030400CC030400C8030300C503030095
:1008200024F404D9201BC40C5C0E9804C4095F0294
:1008300065077101F405F900FB04B3004804870063
:10084000C10369005803550003034500BE023A0086
:100850008402310053022A002902250004022000EC
:10086000E4011C00C8011900AF0117009801140031
:1008700084011300710110006101100051010E008C
:1008800043010D0036010B002B010B0020010B0072
:10089000150109000C01090003010800FB00080014
:1008A000F3000800EB000700E4000600DE0006008D
:1008B000D8000600D2000600CC000500C7000500E5
:1008C000C2000500BD000400B9000400B50004002A
:1008D000B1000400AD000400A9000400A50003005D
:1008E000A20003009F0004009B0003009800030087
:1008F0009500020093000300900003008D000200A9
:100900008B000300880002008600020084000300C0
:10091000810002007F0002007D0002007B000200D7
:1009200079000200770001007600020074000200E6
:1009300072000100710002006F0002006D000100F2
:100940006C0002006A0001006900020067000100FB
:100950006600010065000100640002006200010001
:1009600061000100600001005F0002005D00010005
:100970005C0001005B0001005A0001005900010009
:100980005800010057000100560001005500010009
:100990005400010053000000530001005200010008
:1009A00051000100500001004F0001004E00000006
:1009B0004E0001004D0001004C0001004B00000002
:1009C0004B0001004A0001004900010048000000FE
:1009D00048000100470001004600000046000100F9
:1009E00045000000450001004400010043000000F4
:1009F00043000100420000004200010041000000ED
:100A000041000100400001003F0000003F000100E4
:100A10003E0000003E0001003D0000003D000100DE
:100A20003C0000003C0000003C0001003B000000D6
:100A30003B0001003A0000003A00010039000000CC
:100A400039000100380000003800000038000100C3
:100A500037000000370001003600000036000000BB
:100A600036000100350000003500000035000100AF
:100A700034000000340000003400010033000000A6
:100A8000330000003300010032000000320000009B
:100A9000320001003100000031000000310001008F
:100AA0003000000030000000300001002F00000086
:100AB0002F0000002F0000002F0001002E0000007A
:100AC0002E0000002E0001002D0000002D0000006F
:100AD0002D0000002D0001002C0000002C00000063
:100AE0002C0000002C0001002B0000002B00000057
:100AF0002B0000002B0001002A0000002A0000004B
:100B00002A0000002A00010029000000290000003E
:100B10002900000029000000290001002800000031
:100B20002800000028000000280000002800010024
:100B30002700000027000000270000002700000019
:100B4000270001002600000026000000260000000B
:100B500026000000260001002500000025000000FE
:100B600025000000250000002500000025000100F0
:100B700024000000240000002400000024000000E5
:100B800024000100230000002300000023000000D7
:100B900023000000230000002300000023000100C8
:100BA00022000000220000002200000022000000BD
:100BB00022000000220001002100000021000000AE
:100BC00021000000210000002100000021000000A1
:100BD0002100010020000000200000002000000093
:100BE0002000000020000000200000002000000085
:100BF000200001001F0000001F0000001F00000077
:100C00001F0000001F0000001F0000001F00010067
:100C10001E0000001E0000001E0000001E0000005C
:100C2000393000003325000087190000B00F0000A4
:100C3000DB080000BD040000740200003F0100005A
:100C400023646566696E652044454641554C545F92
:100C50004B64200023646566696E65204445464107
:100C6000554C545F4B69200023646566696E6520AE
:100C700044454641554C545F4B7020005049442038
:100C80004175746F74756E652066696E6973686509
:100C900064212050757420746865206C6173742021
:100CA0004B702C204B6920616E64204B6420636F75
:100CB0006E7374616E74732066726F6D2062656C02
:100CC0006F7720696E746F20436F6E666967757207
:100CD0006174696F6E2E680A005049442041757432
:100CE0006F74756E65206661696C65642120746936
:100CF0006D656F75740A00453220544845524D4168
:100D00004C2052554E4157415900453120544845D9
:100D1000524D414C2052554E41574159005468653F
:100D2000726D616C2052756E617761790045322079
:100D300048656174696E67206661696C6564004529
:100D4000312048656174696E67206661696C65640D
:100D50000048656174696E67206661696C6564004E
:100D6000504944204175746F74756E6520666169E1
:100D70006C6564212054656D70657261747572656F
:100D800020746F6F20686967680A00204B643A20FE
:100D900000204B693A2000204B703A20000A204383
:100DA0006C617373696320504944200A00205475B4
:100DB0003A2000204B753A2000206D61783A2000DF
:100DC000206D696E3A200020643A2000206269613B
:100DD000733A2000504944204175746F74756E65F4
:100DE0002073746172740A00504944204175746F15
:100DF00074756E65206661696C656421204261646A
:100E0000206578747275646572206E756D626572A6
:100E10000A006265640A002C2073797374656D2082
:100E200073746F7070656421204865617465725FCA
:100E300049443A20001000600350012C0190012227
:100E400001D001180110020E0170020401E002FA43
:100E5000006003F0000004E600B004DC00A005D24E
:100E600000B006C8000008BE00A009B400800BAAAC
:100E700000D00DA00090109600C0138C0070178257
:100E800000901B780010206E00C0246400E02D50FC
:100E90000080353C00A03A2800A03D1400003F002F
:100EA00000A03FECFF4532204572723A204D415878
:100EB00054454D50004531204572723A204D4158FD
:100EC00054454D50004572723A204D415854454D9D
:100ED0005020424544004D415854454D50207472B5
:100EE00069676765726564004532204572723A2011
:100EF0004D494E54454D50004531204572723A20BF
:100F00004D494E54454D50004572723A204D494E60
:100F100054454D5020424544004D494E54454D5096
:100F20002074726967676572656400202F00204035
:100F3000002042403A0020403A004F024D024B024E
:100F40004802450242023F023C02390236023302A5
:100F5000747275650066616C7365002074656D70F0
:100F600065726174757265207072657761726E204A
:100F70007472696767657265643A200020707265F3
:100F80007761726E20666C616720636C6561726563
:100F9000640A0000002100240027002A002D0030F0
:100FA00000330001010000040107010A01000022D2
:100FB00000250028002B002E003100340002010023
:100FC00000050108010B0100002000230026002974
:100FD000002C002F0032000001000003010601096F
:100FE0000105050505070508080808020202020AAE
:100FF0000A080804040404010101010101010103BC
:1010000003030303030303040707070C0C0C0C0C76
:101010000C0C0C0202020206060606060606060B69
:101020000B0B0B0B0B0B0B010210202008081020E0
:101030004010204080020102010804020101020464
:101040000810204080804020100804020180040223
:10105000018040201008040201080402010102047A
:101060000810204080010204081020408000000A7F
:101070000B02090C0D0E080703040100000000001C
:101080000000000000000000000000000000000060
:10109000000000000000000000121110000000001D
:1010A0000000000000000000000000000000000040
:1010B00000000047322F4733206261642070617264
:1010C000616D65746572730A003C3C3C20473238A0
:1010D0000A003E20686F6D696E67206E6F74206E27
:1010E00065656465642C20736B69700A003C3C3C48
:1010F000204732380A005261697365205A202862FD
:1011000065666F726520686F6D696E672920746F00
:1011100020003E20656E6473746F70732E656E617F
:10112000626C652874727565290A003E3E3E204750
:1011300032380A00205A3A200020593A20004265ED
:101140006420583A20004D65736820706F696E7492
:101150002063616E6E6F74206265207265736F6CC0
:101160007665640A005072696E742074696D653A20
:1011700020006F6666007B0276026F0268025A02E8
:10118000510244454255473A004D31313320530016
:101190006F6B00544845524D414C5F50524F54457F
:1011A0004354494F4E004155544F5245504F5254AD
:1011B0005F53445F53544154555300454D45524786
:1011C000454E43595F5041525345520043415345A8
:1011D0005F4C494748545F4252494748544E455333
:1011E0005300544F47474C455F4C494748545300C0
:1011F000534F4654574152455F504F574552004256
:1012000055494C445F50455243454E54004C455659
:10121000454C494E475F44415441005A5F50524F3C
:101220004245004155544F4C4556454C005052499B
:101230004E545F4A4F420050524F4752455353005D
:101240004155544F5245504F52545F54454D5000F4
:10125000564F4C554D455452494300454550524F09
:101260004D0053455249414C5F584F4E5F584F46D1
:1012700046004649524D574152455F4E414D453A11
:101280004D61726C696E20504432305F32323032C0
:1012900032385F3132353120534F555243455F4329
:1012A0004F44455F55524C3A68747470733A2F2F0F
:1012B0006769746875622E636F6D2F467261636B28
:1012C00074616C576F726B732F4A756C6961323041
:1012D00031384D61726C696E3131392050524F5442
:1012E0004F434F4C5F56455253494F4E3A312E3083
:1012F000204D414348494E455F545950453A4A753F
:101300006C69612050726F204475616C205769745C
:101310006820544D432032323038206F6E204D4BC0
:10132000532047656E4C2056322E312C204E6F7460
:10133000207573696E6720554152542D20546F708B
:101340002072696768742032206A756D70657273E7
:10135000206A756D70656420686F72697A6F6E744B
:10136000616C6C792C20312F3136206D6963726F7E
:10137000207374657070696E6720455854525544E7
:1013800045525F434F554E543A3220555549443AE1
:1013900030313038613539392D336239352D3431BA
:1013A00038362D613633362D303639656235393869
:1013B000373963300A002F2F2000205400205200BC
:1013C000416363656C65726174696F6E3A205000A9
:1013D0003F4A206F7574206F662072616E676520CA
:1013E00028302E303120746F20302E33290A00002F
:1013F0000020C20000C8430080CA43546F6F2066BB
:1014000061722066726F6D207265666572656E63CB
:101410006520706F696E740A00FF010120466C6FD1
:10142000773A2000000136372603FFFFFF3F3C3D9F
:1014300038FF0FFFFF402E303EFF13FFFFFF410537
:101440000C0809FFFFFF1A1C18FFFF4224221EFF91
:10145000FF0C08440AFF4507FF43206F7574206F97
:10146000662072616E67650A00536572766F2000B0
:1014700043290A0061626C656420286D696E2074DE
:10148000656D702000436F6C6420657874727564BC
:1014900065732061726520004E6F20636173652063
:1014A0006C696768740A004D65736820706F696EB7
:1014B000742063616E6E6F74206265207265736F55
:1014C0006C7665640A004D34323120696E636F7248
:1014D0007265637420706172616D657465722075E8
:1014E000736167650A00454550524F4D204F4B0AC6
:1014F000003F5A206F7574206F662072616E6765B9
:1015000020282D323020746F203230290A003A20F2
:101510000050726F6265205A204F666673657400D2
:101520003C3C3C2067636F64655F540A00203A20AE
:1015300041465445520A00202063757272656E74EC
:101540005F706F736974696F6E3D00203A20424589
:10155000464F52450A00202063757272656E745FB3
:10156000706F736974696F6E3D003E3E3E20676325
:101570006F64655F54280020503A00205A3A0020DA
:10158000593A0020583A00656E6473746F70732086
:101590006869743A2000556E6B6E6F776E20636FCA
:1015A0006D6D616E643A202200203A203C3C3C2064
:1015B00072756E5F7A5F70726F62650A00202063D9
:1015C000757272656E745F706F736974696F6E3D6A
:1015D000002044697363726570616E63793A00320A
:1015E0006E642050726F6265205A3A00203A203CA7
:1015F0003C3C2072756E5F7A5F70726F62650A00A4
:10160000202063757272656E745F706F73697469A0
:101610006F6E3D00534C4F572050726F62652066CD
:1016200061696C210A003173742050726F62652009
:101630005A3A00203A203C3C3C2072756E5F7A5F3B
:1016400070726F62650A00202063757272656E7435
:101650005F706F736974696F6E3D0046415354202B
:1016600050726F6265206661696C210A00203A2021
:101670003E3E3E2072756E5F7A5F70726F62650AE1
:1016800000202063757272656E745F706F73697489
:10169000696F6E3D003C3C3C2070726F62655F700C
:1016A000740A0050726F62696E67206661696C65CA
:1016B000640A0050524F42494E475F4641494C45EB
:1016C000440A00205A3A200020593A20004265641A
:1016D00020583A2000203A200A00202063757272B8
:1016E000656E745F706F736974696F6E3D005F72D1
:1016F000656C6174697665290A002C20002C200035
:101700002C20002C20003E3E3E2070726F62655FF0
:10171000707428002066697273740A005A005900B8
:101720005800486F6D6520006563686F3A00453268
:1017300020544845524D414C2052554E4157415935
:1017400000453120544845524D414C2052554E41A0
:101750005741590042454420544845524D414C2080
:1017600052554E4157415900546865726D616C2065
:1017700052756E61776179005072696E746572207E
:1017800068616C7465642E206B696C6C2829206319
:10179000616C6C6564210A004572726F723A0025B3
:1017A00069730025696D2025697300256968202506
:1017B000696D2025697300256964202569682025E5
:1017C000696D2025697300256979202569642025C4
:1017D00069682025696D20256973002C20002C2064
:1017E00000203A2073796E635F706C616E5F706F7A
:1017F000736974696F6E0A00202063757272656E7A
:10180000745F706F736974696F6E3D00656E71759A
:10181000657565696E672022005072696E74657225
:101820002073746F707065642064756520746F2018
:101830006572726F72732E20466978207468652015
:101840006572726F7220616E6420757365204D3908
:10185000393920746F20726573746172742E202878
:1018600054656D706572617475726520697320725C
:10187000657365742E2053657420697420616674E5
:1018800065722072657374617274696E67290A00EB
:101890004E6F20436865636B73756D20776974685C
:1018A000206C696E65206E756D6265722C204C61CE
:1018B0007374204C696E653A2000636865636B73CE
:1018C000756D206D69736D617463682C204C617354
:1018D00074204C696E653A20004C696E65204E7527
:1018E0006D626572206973206E6F74204C61737431
:1018F000204C696E65204E756D6265722B312C200F
:101900004C617374204C696E653A20004D31313062
:101910000020496E76616C69642065787472756424
:1019200065722000000000000000000000000000C0
:101930000080C5430000C8430080CA430A20736F7B
:1019400066745F656E6473746F705F6D6178203D5F
:1019500020000A20736F66745F656E6473746F7025
:101960005F6D696E203D20000A20706F7369746995
:101970006F6E5F7368696674203D2000206178692E
:10198000733A0A20686F6D655F6F666673657420D1
:101990003D2000466F7220003C3C3C20646F5F623B
:1019A0006C6F636B696E675F6D6F76655F746F0AEE
:1019B000003E3E3E20646F5F626C6F636B696E67D2
:1019C0005F6D6F76655F746F00203A207365747584
:1019D000705F666F725F656E6473746F705F6F7255
:1019E0005F70726F62655F6D6F76650A00202063BD
:1019F000757272656E745F706F736974696F6E3D36
:101A000000203A20636C65616E5F75705F6166747B
:101A100065725F656E6473746F705F6F725F707212
:101A20006F62655F6D6F76650A0020206375727264
:101A3000656E745F706F736974696F6E3D00646F7B
:101A40005F70726F62655F726169736528006465BB
:101A5000706C6F793A2000203A207365745F707261
:101A60006F62655F6465706C6F7965640A00202041
:101A700063757272656E745F706F736974696F6E8F
:101A80003D00203A203C3C3C20646F5F70726F62E6
:101A9000655F6D6F76650A00202063757272656EF2
:101AA000745F706F736974696F6E3D00203A203EF9
:101AB0003E3E20646F5F70726F62655F6D6F76652A
:101AC0000A00202063757272656E745F706F7369AF
:101AD00074696F6E3D0072657365745F6265645F03
:101AE0006C6576656C0A002028646F6E65290A00B3
:101AF0004578747261706F6C617465205B00426937
:101B00006C696E656172204C6576656C696E6720E4
:101B1000477269643A0A003C3C3C20646F5F686F1E
:101B20006D696E675F6D6F766528005B00290A003E
:101B30002C20002C20003E3E3E20646F5F686F6DBD
:101B4000696E675F6D6F7665280020286469736130
:101B5000626C6564290A0041424C2041646A7573D5
:101B6000746D656E74205A0020480020570020597B
:101B70000042696C696E6561722047726964205821
:101B8000002028656E61626C6564290A0042494C38
:101B9000494E454152004175746F20426564204CA6
:101BA0006576656C696E673A200020262053616D6A
:101BB00065205A20617300204E6F7A7A6C65290A7D
:101BC0000020262041626F76650020262042656C49
:101BD0006F77002D4261636B00202852696768743B
:101BE00000205A3A0020593A0050726F6265204F27
:101BF000666673657420583A004649585F4D4F55E4
:101C00004E5445445F50524F42450A0050726F6235
:101C1000653A2000436F72650A004D616368696E22
:101C20006520547970653A20003C3C3C20473239AD
:101C30000A0020636F72726563746564205A3A000B
:101C400047323920756E636F727265637465642004
:101C50005A3A00203A203E2070726F62696E672007
:101C6000636F6D706C6574650A0020206375727215
:101C7000656E745F706F736974696F6E3D002028C4
:101C800044525952554E2900473239204175746FDC
:101C900020426564204C6576656C696E67003F2064
:101CA000284C2C522C462C4229206F7574206F66CC
:101CB00020626F756E64732E0A003F285629657284
:101CC000626F7365206C6576656C20697320696D41
:101CD000706C61757369626C652028302D34292E13
:101CE0000A00426164205A2076616C75650A004ED4
:101CF0006F2062696C696E65617220677269640A3F
:101D0000003C3C3C204732390A003E204175746F4C
:101D10002D6C6576656C206E6F74206E65656465EC
:101D2000642C20736B69700A004732380A473239D5
:101D3000003E204E6F7420686F6D65642E20456EE6
:101D40007175657565696E672047323820666F6CFE
:101D50006C6F776564206279204732390A00203A37
:101D6000203E3E3E204732390A00202063757272C1
:101D7000656E745F706F736974696F6E3D00507249
:101D80006F7465637465642050696E0A00537461F2
:101D90006E6461726420446576696174696F6E3A3D
:101DA00020002052616E67653A2000204D61783A2C
:101DB0002000204D696E3A20004D65616E3A20008A
:101DC00046696E6973686564210A002072616E67F6
:101DD000653A2000206D61783A2000206D696E3AE6
:101DE0002000207369676D613A2000206D65616E87
:101DF0003A20003A207A3A2000206F662000205ACC
:101E000000205900205800476F696E6720746F3AB0
:101E100000436C6F636B776973650A00436F756E7F
:101E20007465722D0020446972656374696F6E3A3F
:101E30002000202020616E676C653A200053746199
:101E40007274696E67207261646975733A2000501C
:101E50006F736974696F6E696E672074686520704E
:101E6000726F62652E2E2E0A003F4E756D6265728E
:101E7000206F66206C65677320696E206D6F7665D4
:101E80006D656E74206E6F7420706C61757369621D
:101E90006C652028302D3135292E0A003F20285826
:101EA0002C5929206F7574206F6620626F756E64DF
:101EB000732E0A003F53616D706C652073697A65FB
:101EC000206E6F7420706C61757369626C65202878
:101ED000342D3530292E0A004D3438205A2D5072B9
:101EE0006F6265205265706561746162696C6974C6
:101EF0007920546573740A003F2856296572626F11
:101F00007365206C6576656C20697320696D706CF3
:101F100061757369626C652028302D34292E0A00A2
:101F200020573A0020573A00205A3A0020423A00FF
:101F300020436F756E7420413A0020453A00205AC4
:101F40003A0020593A00583A003A004361703A008A
:101F5000205A00205900580020204D61783A200076
:101F6000205A00205900580020204D696E3A200068
:101F70004F6E20004F666600536F667420656E6476
:101F800073746F70733A2000496E76616C696420D7
:101F900065787472756465720A0020643A0020697D
:101FA0003A0020703A00426564204C6576656C69A1
:101FB0006E6720004661696C656420746F20656EF1
:101FC00061626C6520426564204C6576656C696E63
:101FD000670A00496E76616C696420657874727571
:101FE0006465720A0041637469766520457874728D
:101FF000756465723A2000203A204D6F7665206244
:1020000061636B0A00202064657374696E61746992
:102010006F6E3D002C20636F72726563746564207F
:1020200063757272656E745F706F736974696F6ED9
:102030005B5A5F415849535D3D0046573A205374FF
:102040006F70205A2063726173682C206578706508
:10205000637465642063757272656E745F706F730C
:102060006974696F6E5B5A5F415849535D3D00204A
:102070007D0A002C20004F666673657420546F6FD4
:102080006C205859206279207B200046573A204323
:1020900068616E67696E672064657374696E6174E8
:1020A000696F6E5B585F415849535D20746F2073B0
:1020B000746F702063726173682C20646573746937
:1020C0006E6174696F6E5B585F415849535D3D00A6
:1020D0002C2073746F705F785F63726173683D006A
:1020E00046573A20746D705F785F6D6F76653D007E
:1020F0002C2073746F705F7A5F63726173683D0048
:1021000046573A20746D705F7A5F6D6F76653D005B
:102110004E6F206D6F7665206F6E20746F6F6C63ED
:1021200068616E67650A00526573656E643A2000E7
:1021300020746F6F206C6F6E672065787472757392
:10214000696F6E2070726576656E7465640A002032
:10215000636F6C6420657874727573696F6E20703C
:10216000726576656E7465640A00627573793A20EB
:1021700070617573656420666F7220696E70757426
:102180000A00627573793A20706175736564206620
:102190006F7220757365720A00627573793A2070E8
:1021A000726F63657373696E670A004B494C4C200C
:1021B00063617573656420627920746F6F206D753B
:1021C000636820696E6163746976652074696D6502
:1021D000202D2063757272656E7420636F6D6D6162
:1021E0006E643A20002020506C616E6E65724275FC
:1021F0006666657242797465733A2000204672659E
:1022000065204D656D6F72793A2000436F6D70697E
:102210006C65643A204665622032382032303232B2
:102220000A00207C20417574686F723A2046726102
:10223000636B74616C20576F726B730A00323032BB
:10224000322D30322D32382031323A353100204CA7
:1022500061737420557064617465643A200042753E
:10226000696C643A20504432305F32323032323856
:102270005F313235310A00467261636B74616C20E4
:10228000576F726B73204A756C69612050726F20B2
:102290004475616C205769746820544D4320323274
:1022A0003038206F6E204D4B532047656E4C2056C2
:1022B000322E312C204E6F74207573696E67205555
:1022C0004152542D20546F70207269676874203217
:1022D000206A756D70657273206A756D7065642013
:1022E000686F72697A6F6E74616C6C792C20312F13
:1022F0003136206D6963726F207374657070696E1A
:10230000670A00312E312E390A004D61726C696EF8
:102310000020536F6674776172652052657365742F
:102320000A00205761746368646F672052657365A3
:10233000740A002042726F776E206F7574205265A8
:102340007365740A002045787465726E616C205262
:10235000657365740A00506F77657255700A007373
:10236000746172740A002064726976657220637504
:102370007272656E743A20003C3C3C207365745F59
:10238000617869735F69735F61745F686F6D6528F9
:1023900000203A200A00202063757272656E745F17
:1023A000706F736974696F6E3D005D203D20003E63
:1023B00020686F6D655F6F66667365745B003E3E97
:1023C0003E207365745F617869735F69735F6174E0
:1023D0005F686F6D652800000048420000484200B9
:1023E00000A041000000005761726E696E673A20DC
:1023F000486F6D696E672042756D7020446976691B
:10240000736F72203C20310A000202040000A040D9
:102410000000A040000000400080C5430000C84309
:102420000080CA433C3C3C20686F6D6561786973ED
:102430002800203A203E20414654455220736574BE
:102440005F617869735F69735F61745F686F6D6501
:102450000A00202063757272656E745F706F736915
:1024600074696F6E3D00486F6D65203220536C6F4C
:10247000773A0A004D6F766520417761793A0A0014
:10248000486F6D65203120466173743A0A003E3E04
:102490003E20686F6D65617869732800486F7465C8
:1024A0006E64206F6666736574733A003A2000208C
:1024B000536572766F20006F6B004572726F7220E9
:1024C00077726974696E6720746F20454550524F6A
:1024D0004D210A00454550524F4D2064617461738F
:1024E000697A65206572726F722E0A00290A0020CF
:1024F00062797465733B2063726320005365747462
:10250000696E67732053746F726564202800290A0E
:10251000002062797465733B20637263200020732E
:10252000746F7265642073657474696E677320726A
:102530006574726965766564202800202863616C83
:1025400063756C6174656429210A0020213D2000B7
:10255000454550524F4D20435243206D69736D6184
:10256000746368202D202873746F726564292000BD
:102570002053697A653A2000496E6465783A2000F4
:10258000204D61726C696E3D563535290A0028452B
:102590004550524F4D3D00454550524F4D207665B8
:1025A0007273696F6E206D69736D6174636820006A
:1025B00048617264636F6465642044656661756C2C
:1025C000742053657474696E6773204C6F61646521
:1025D000640A002003000020030000320000001005
:1025E00027000000004843000048430000804100ED
:1025F0000034420000C8420000C842F0F7FB43002C
:10260000000C4320204D393036003A0A0020286D56
:102610006D290020543120450020543020450020F1
:102620005A0020590020580053746570706572205C
:102630006472697665722063757272656E743A0AA7
:102640000020204D383531205A005A2D50726F62CB
:1026500065204F66667365740020440020490020A1
:10266000204D3330312050002044002049002050BC
:102670000020204D333031204500504944207365FF
:102680007474696E67733A0A00205A00204A002069
:1026900020473239205720490020204D3432302045
:1026A00053004175746F20426564204C6576656CFB
:1026B000696E673A0A00205A00205900205800200D
:1026C000204D323138205400486F74656E64206F9D
:1026D0006666736574733A0A00205A002059002018
:1026E000204D323036205800486F6D65206F666689
:1026F0007365743A0A00204A0020540020530020D9
:10270000204D323035204200204A3C6A756E635FAE
:102710006465763E00416476616E6365643A20428A
:102720003C6D696E5F7365676D656E745F74696D2E
:10273000655F75733E20533C6D696E5F66656564C9
:10274000726174653E20543C6D696E5F747261768F
:10275000656C5F66656564726174653E0020540057
:1027600020520020204D32303420500041636365F8
:102770006C65726174696F6E2028756E6974732F51
:102780007332293A20503C7072696E745F616363E2
:10279000656C3E20523C726574726163745F616364
:1027A00063656C3E20543C74726176656C5F616356
:1027B00063656C3E0A00204500205A002059002025
:1027C000204D3230312058004D6178696D756D2093
:1027D000416363656C65726174696F6E2028756E04
:1027E0006974732F7332293A0A00204500205A0079
:1027F00020590020204D3230332058004D61786937
:102800006D756D20666565647261746573202875E9
:102810006E6974732F73293A0A00204500205A000C
:1028200020590020204D39322058005374657073B0
:102830002070657220756E69743A0A0020204D324E
:1028400030302044300A0020204D323030205431C6
:1028500020440020204D3230302044002044697351
:1028600061626C65640A0046696C616D656E742016
:1028700073657474696E67733A00202047323120A3
:102880002020203B007A5F70726F62653A20007AE8
:102890005F6D61783A2000795F6D61783A20007849
:1028A0005F6D696E3A20005265706F7274696E6771
:1028B00020656E6473746F70207374617475730A2D
:1028C0000000000001000000010000800055555587
:1028D000000000400033333300AAAA2A00499224A2
:1028E0000000002000C7711C0099991900D14517FC
:1028F00000555515003BB113002449120011111168
:1029000000000010000F0F0F00E3380E0043790D98
:1029100000CCCC0C00C3300C00E8A20B0064210BEF
:1029200000AAAA0A00703D0A009DD80900427B094E
:102930000092240900DCD3080088880800104208AF
:102940000000000800F0C1070087870700755007E6
:1029500000711C07003EEB0600A1BC060069900652
:102960000066660600703E06006118060017F40552
:102970000074D105005BB00500B2900500627205DD
:10298000005555050078390500B81E0500050505F8
:10299000004EEC040087D40400A1BD040090A704FD
:1029A0000049920400C17D0400EE690400C756048A
:1029B00000444404005C3204000821040041100477
:1029C00000000004003FF00300F8E0030026D203FB
:1029D00000C3C30300CCB503003AA803000A9B035D
:1029E00000388E0300C08103009F750300D0690387
:1029F00000505E03001D53030034480300913D0363
:102A0000003333030016290300381F030097150312
:102A100000300C0300030303000BFA020049F1022B
:102A200000BAE802005CE002002DD802002DD002BE
:102A30000059C80200B0C0020031B90200DAB10288
:102A400000AAAA0200A0A30200BC9C0200FA950200
:102A5000005C8F0200DF88020082820200457C0257
:102A6000002776020027700200436A02007C64029D
:102A700000D05E02003F590200C853020000D5A3F7
:102A800011241FBECFEFD1E2DEBFCDBF00E00CBFEF
:102A900013E0A0E0B2E0ECE9F3E901E00BBF02C013
:102AA00007900D92A637B107D9F721E1A6E7B3E069
:102AB00001C01D92A735B207E1F715E1C0E4D5E1E9
:102AC00000E006C021970109802FFE010E944DC938
:102AD000CF33D10780E00807A9F70E942FA50C94F7
:102AE000CCC90C9400000F931F93CF93DF93582F02
:102AF000FC0180E077E0919148E0282F30E0A92F99
:102B0000B0E08901000F012F001F110B9170C92F38
:102B100090E0D92F880F0C171D0721F0C901880FED
:102B2000991F8727B595A7959A2F415031F79E2F6A
:102B3000951B961700F3DF91CF911F910F91089588
:102B4000AF92BF92CF92DF92EF92FF920F931F93BB
:102B5000CF93DF936C017B018B01040F151FEB01F9
:102B60005E01AE18BF08C017D10759F06991D601B0
:102B7000ED91FC910190F081E02DC6011995892B12
:102B800079F7C501DF91CF911F910F91FF90EF90E1
:102B9000DF90CF90BF90AF9008958150823108F0C0
:102BA0005AC0E82FF0E08827E752FA4E8F4F0C9476
:102BB0004DC9F915FD15EB15F115F5152B16001678
:102BC00006160A161016141618161E1622162B169E
:102BD00026162C163016809180008F778093800007
:102BE0000895809180008F7DF9CF80918000877F4C
:102BF000F5CF84B58F7784BD089584B58F7DFBCFE5
:102C00008091B0008F778093B00008958091B000DC
:102C10008F7DF9CF809190008F77809390000895F9
:102C2000809190008F7DF9CF80919000877FF5CFC4
:102C30008091A0008F778093A00008958091A000DC
:102C40008F7DF9CF8091A000877FF5CF8091200103
:102C50008F77809320010895809120018F7DF9CF97
:102C600080912001877FF5CFCF93DF93282F30E02D
:102C7000F901E359FF4E8491F901E95DFF4ED491CA
:102C8000F901EF51F04FC491CC23A1F081110E94C2
:102C9000CD15EC2FF0E0EE0FFF1FE953F04FA5919B
:102CA000B491EC91ED2381E090E009F480E0DF91B4
:102CB000CF91089580E090E0FACF1F93CF93DF93F8
:102CC000282F30E0F901E359FF4E8491F901E95DC5
:102CD000FF4ED491F901EF51F04FC491CC23A9F0EC
:102CE000162F81110E94CD15EC2FF0E0EE0FFF1F83
:102CF000E355F04FA591B4918FB7F894EC91111171
:102D000008C0D095DE23DC938FBFDF91CF911F9158
:102D10000895DE2BF8CF789484B5826084BD84B5A5
:102D2000816084BD85B5826085BD85B5816085BDC6
:102D3000EEE6F0E0808181608083E1E8F0E01082DF
:102D4000808182608083808181608083E0E8F0E020
:102D5000808181608083E1EBF0E08081846080830A
:102D6000E0EBF0E0808181608083E1E9F0E0808148
:102D700082608083808181608083E0E9F0E08081EF
:102D800081608083E1EAF0E08081826080838081DD
:102D900081608083E0EAF0E0808181608083E1E20D
:102DA000F1E0808182608083808181608083E0E2C5
:102DB000F1E0808181608083EAE7F0E080818460D7
:102DC0008083808182608083808181608083808134
:102DD000806880831092C10008953FB7F894809175
:102DE0007F0F9091800FA091810FB091820F26B537
:102DF000A89B05C02F3F19F00196A11DB11D3FBF33
:102E0000BA2FA92F982F8827BC01CD01620F711D01
:102E1000811D911D42E0660F771F881F991F4A95FB
:102E2000D1F708952091780F3091790F281739073D
:102E300071F49091770F8091760F981741F0E0919F
:102E4000770FF0E0EA5CF04F808190E008958FEF1B
:102E50009FEF08950895EF92FF920F931F93CF93E2
:102E6000DF93DC015C96ED90FC905D97E114F1043A
:102E700079F481E090E013969C938E93129790E002
:102E800080E0DF91CF911F910F91FF90EF90089517
:102E90005196ED91FC91529750968C915097982FA6
:102EA00090950FB75E962C915E97122F127021FDB0
:102EB0006095F8942081112319F1282B2083E701D4
:102EC0002197F1F728E0462F50E0308160FF1AC0CB
:102ED000382B3083E7012197F1F7BA017595679593
:102EE000215089F7112381F08081892380830FBFCE
:102EF0005C968D919C910197F1F781E090E0C1CFB4
:102F00002923DCCF3923E5CF9081892BEFCF209186
:102F1000780F3091790F2817390771F48091760F67
:102F20002091770F90E0805C9F4F821B910960E4B5
:102F300070E00E9439C9089590E080E008952091E2
:102F4000780F3091790F28173907B9F49091770FDE
:102F50008091760F981789F0E091770FF0E0EA5CA6
:102F6000F04F80812091770F30E02F5F3F4F2F731C
:102F700033272093770F90E008958FEF9FEF089508
:102F8000CF93DF93FC01828D938D892B41F1A0912A
:102F9000780FB091790FAE17BF0709F1109751F074
:102FA0005396CD91DC915497988155968C9180954C
:102FB00089238883868D8E7F868F1092760F10925C
:102FC000770FF093790FE093780FA389B4898C91F0
:102FD0009589892B8C9381E0DF91CF91089580E0D2
:102FE000FBCF90E080E00895BC012091E30E30918A
:102FF000E40E4091E30E5091E40E2417350731F4AE
:1030000081E02617370709F080E008959A01F1CF93
:10301000EF92FF920F931F93E0926B09F0926C096D
:1030200000936D0910936E09609370097093710994
:10303000809372099FEFFF27621B730B840B30F4A0
:10304000809570956195790B890B99279093E00F86
:10305000A6E06A9F0092D40F512DEE277A9F500D63
:10306000E11D8A9FE00D5093D50FE093D60FAFE09E
:103070006A9F0092D80F512DEE277A9F500DE11DC7
:103080008A9FE00D5093D90FE093DA0FAAE06A9F70
:103090000092DC0F512DEE277A9F500DE11D8A9F83
:1030A000E00D5093DD0FE093DE0F1F910F91FF9025
:1030B000EF9008958091140E9091150E891B8F70DA
:1030C00019F490E080E008959091110E992351F049
:1030D000833030F48FEF890F19F08093110EF1CF08
:1030E0001092110E8091150E2DE5829FC0011124C2
:1030F00085569C4FFC01208120FDE3CF2091150EC9
:103100002F5F2F702093120E3091150E2091130E09
:10311000321304C02091120E2093130E0895AF9223
:10312000BF92CF92DF92EF92FF920F931F93CF93B4
:10313000DF936B017A01EC01C756D14F28813CE047
:10314000389F8001399F100D1124A090D30FB12C0E
:1031500027FF1FC0FB011182108288818F5F888347
:1031600088819801280F311D87FD3A95F6012A15AF
:103170003B051CF488818C30C4F1808191810496D8
:1031800080349C4908F473C0F601808191810496D3
:1031900070C088819801280F311D87FD3A952A1546
:1031A0003B05DCF68881A801480F511D87FD5A9523
:1031B000FA01EE0FFF1FE40FF51FEA5EF14F808169
:1031C00086FFCBCF8881F801E80FF11D87FDFA95C6
:1031D000CF01EE0FFF1FE80FF91FEA5EF14F80816C
:1031E00060E08F730E945D16B8CF80819181288145
:1031F000A801420F511D27FD5A959A01FA01EE0FC1
:10320000FF1FE20FF31FEA5EF14F21813281820F2F
:10321000931FF7019183808388819801280F311DC6
:1032200087FD3A95F901EE0FFF1FE20FF31FEA5EEB
:10323000F14F808186FF22C08881080F111D87FD14
:103240001A95F801EE0FFF1FE00FF11FEA5EF14F34
:10325000808161E08F73DF91CF911F910F91FF907B
:10326000EF90DF90CF90BF90AF900C945D1680E40C
:103270009CE9F701918380838FEF8883DF91CF9161
:103280001F910F91FF90EF90DF90CF90BF90AF9084
:1032900008958091140E9091150E891B80958F7062
:1032A00019F40E94AC7BF5CF8091140E8F5F8F7064
:1032B000E091140E9DE5E99FF0011124E556FC4FC5
:1032C000DF011D929A95E9F798E090834091C30F32
:1032D0005091C40F6091C50F7091C60F458B568BEE
:1032E000678B708F4091C70F5091C80F6091C90FC5
:1032F0007091CA0F418F528F638F748F4091CB0FA3
:103300005091CC0F6091CD0F7091CE0F458F568F9D
:10331000678F70A34091CF0F5091D00F6091D10F64
:103320007091D20F41A352A363A374A32091140EF2
:103330009091150E291303C094E69093110E80937B
:10334000140E80916F00826080936F0008959091B9
:10335000140E8091150E981308C0809199099091D0
:103360009A09892B11F40C945A600E94AC7BEFCF20
:10337000EF92FF920F931F93CF93DF93CDB7DEB7FA
:1033800069970FB6F894DEBF0FBECDBF08E114E019
:10339000F80184910F5F1F4F81110BC00FE014E003
:1033A000F80184910F5F1F4F882331F00E9454630E
:1033B000F7CF0E945463ECCF60918B0370918C0324
:1033C00090E080E04AE00E94466E02E014E0F801DE
:1033D00084910F5F1F4F882319F00E945463F7CF29
:1033E00060918D0370918E0390E080E04AE00E942E
:1033F000466E07EF13E0F80184910F5F1F4F88239B
:1034000019F00E945463F7CF60918B0370918C0385
:1034100080918D0390918E03681B790B8091E9094F
:10342000815021E030E0823010F030E020E0621B7B
:10343000730B90E080E04AE00E94466E8AE00E94B2
:1034400054630FEE13E0F80184910F5F1F4F882340
:1034500019F00E945463F7CF80918F0390919003ED
:10346000A0919103B09192038E8B9F8BA88FB98FFF
:10347000BE016F5F7F4FCE0146960E946E6202EEE4
:1034800013E0F80184910F5F1F4F81110CC0CE0132
:1034900001967C018C01F80181918F01882331F024
:1034A0000E945463F8CF0E945463EBCF8091930342
:1034B00090919403A0919503B09196038E8B9F8B6E
:1034C000A88FB98FBE016F5F7F4FCE0146960E94D5
:1034D0006E6202ED13E0F80184910F5F1F4F8823A5
:1034E00019F00E945463F7CFF70181917F0188237F
:1034F00019F00E945463F8CF8AE00E9454630AECEA
:1035000013E0F80184910F5F1F4F81110BC00AEB8C
:1035100013E0F80184910F5F1F4F882331F00E9460
:103520005463F7CF0E945463ECCF20E030E04AE7C9
:1035300054E460919703709198038091990390915E
:103540009A030E9401C742E00E946E6F8DE60E94BE
:1035500054638AE00E94546369960FB6F894DEBF04
:103560000FBECDBFDF91CF911F910F91FF90EF90D4
:1035700008950F931F93CF93DF93182F092FC8E956
:10358000D7E1FE018491219681110AC0C12FD02F6D
:10359000FE0184912196882331F00E945463F8CF74
:1035A0000E945463EECF60918C0C70918D0C8091D1
:1035B0008E0C90918F0C0E94EE6E8AE00E945463F4
:1035C0000E940A6F10928B0C10928A0CDF91CF919F
:1035D0001F910F910895FF920F931F93CF93DF9345
:1035E0008091890C082F0270182F1470982F9170F9
:1035F000F92E80FD11C0C8E2D7E1FE018491219629
:10360000811115C0C2E2D7E1FE0184912196882381
:1036100089F00E945463F8CF002369F380E01123FE
:1036200051F3DF91CF911F910F91FF9008950E9468
:103630005463E3CFF1100AC0C0E2D7E1FE018491E8
:103640002196882319F00E945463F8CF01110AC013
:10365000CEE1D7E1FE0184912196882319F00E94E2
:103660005463F8CF11110AC0CCE1D7E1FE01849177
:103670002196882319F00E945463F8CFC4E1D7E162
:10368000FE0184912196882319F00E945463F8CF9B
:1036900081E0C7CFFC01DB018C912081318138278B
:1036A00098E0A901220F331F57FD05C09150C9F7BB
:1036B000318320830895B1E22B27B0E13B27F6CF79
:1036C000DC0155962C915597222309F488C0539616
:1036D000ED91FC91138E128E118E108E178A168A20
:1036E0008FE190E0958F848F848596EF980F9430CA
:1036F00048F02EEC280F243028F022EC280F283038
:1037000008F050C021E030E0378B268B2DE130E00F
:10371000318F208F2DE030E0338F228F943050F0A6
:103720002EEC280F243030F022EC280FB0E0A0E07F
:10373000283010F4A8E6B0E02C91943020F032EC60
:10374000380F383090F131E0232B943048F09EEC64
:10375000980F943028F08E53B0E0A0E0883010F439
:10376000A8E6B0E02C93848596EF980F9430F8F09B
:103770002EEC280F2430D8F022EC280F2830D0F07F
:1037800030E020E0348B238B9430B8F48650990BD2
:1037900091E001C0990F8A95EAF7958B848D958DFC
:1037A0000197F1F7CF010C94C01734E0CDCF2BE691
:1037B00030E0E8CF2DE630E0E5CF98E0823369F3E2
:1037C00094E0833351F392E0843339F392EC980F11
:1037D000983018F48E53990BDBCF91E0DECF08952B
:1037E000CF93DF9390E0FC01E95DFF4E24918F5170
:1037F000904FFC0184918823D1F090E0880F991FAD
:10380000FC01ED56F04FA591B491FC01E355F04F4A
:10381000C591D49161110EC09FB7F8948C91E22F9D
:10382000E0958E238C932881E223E8839FBFDF916C
:10383000CF9108958FB7F894EC91E22BEC938FBF62
:10384000F6CF1F93CF93DF93182FEB0161E00E9417
:10385000F01B209739F460E0812FDF91CF911F9109
:103860000C945D16CF3FD10511F461E0F5CFE12F47
:10387000F0E0E359FF4EE491E150E23108F0B3C0CB
:10388000F0E08827E95BF34E8F4F0C944DC9591C2B
:10389000611C661C701C7A1CF31C841C8C1C941C00
:1038A0009E1CA81CB21CC11CCB1CF31CD51CDF1C0D
:1038B000E91C84B5806884BDC7BDDF91CF911F919D
:1038C000089584B5806284BDC8BDF7CF8091800023
:1038D000806880938000D0938900C0938800EDCFEA
:1038E00080918000806280938000D0938B00C09391
:1038F0008A00E3CF80918000886080938000D0931D
:103900008D00C0938C00D9CF8091B00080688093E7
:10391000B000C093B300D1CF8091B000806280939B
:10392000B000C093B400C9CF8091900080688093AC
:103930009000D0939900C0939800BFCF80919000E1
:10394000806280939000D0939B00C0939A00B5CF83
:1039500080919000886080939000D0939D00C093E8
:103960009C00ABCF8091A00080688093A0008091E4
:10397000A0008F7B8093A000D093A900C093A800E3
:103980009CCF8091A00080628093A000D093AB0078
:10399000C093AA0092CF8091A00088608093A0007D
:1039A000D093AD00C093AC0088CF80912001806897
:1039B00080932001D0932901C09328017ECF80916C
:1039C0002001806280932001D0932B01C0932A01B3
:1039D00074CF80912001886080932001D0932D01C5
:1039E000C0932C016ACFC038D1050CF03ECF33CF45
:1039F0008F929F92AF92BF92CF92DF92EF92FF92FF
:103A00006B017C010E94ED164B015C01C114D104D5
:103A1000E104F104B9F00E94ED16681979098A09E8
:103A20009B09683E73408105910580F321E0C21A2D
:103A3000D108E108F10888EE880E83E0981EA11CE9
:103A4000B11CE4CFFF90EF90DF90CF90BF90AF908C
:103A50009F908F900895CF92DF92EF92FF920F93F5
:103A60001F93CF93DF9300D000D01F921F92CDB74A
:103A7000DEB77C018E010F5F1F4F88E0D8011D92D9
:103A80008A95E9F785E089836B835C834D833E8368
:103A90002F8367E0C8010E9473158887F701858925
:103AA0009E01275F3F4F6901882379F1D701539623
:103AB0008D919C91F80161918F01DC01ED91FC9158
:103AC0000190F081E02D1995F70120813181820F5D
:103AD000931F91838083C016D10641F7D7011696B4
:103AE0006D917C9190E080E00E94F81C28960FB6C2
:103AF000F894DEBF0FBECDBFDF91CF911F910F9124
:103B0000FF90EF90DF90CF900895D70151968D915F
:103B10009C91F80161918F01DC01ED91FC91019084
:103B2000F081E02D1995F70120813181820F931FDB
:103B3000918380830C151D0541F7D0CF2F923F92C2
:103B40004F925F926F927F928F929F92AF92BF92AD
:103B5000CF92DF92EF92FF920F931F93CF93DF9359
:103B6000CDB7DEB72C970FB6F894DEBF0FBECDBF32
:103B70007C011B018EEA97E4A1EEBDE3F70182838D
:103B80009383A483B58390E080E00E9483C125EDF8
:103B900034E045E352E40E94E4C120E030E04AE72B
:103BA00054E40E9401C74B015C0128EB3EE145E073
:103BB0005EE30E94E4C126E636E646EA5EE30E9442
:103BC00001C720E030E040E85FE30E9406C60E94A3
:103BD0007AC7462EFFE0F61708F489C0F701FE9673
:103BE000208131814281538142602083318342832D
:103BF00053836CEEC7010E942B1D2AE037ED43EA88
:103C00005CE3D70112966D917D918D919C911597F2
:103C10000E9407C6A50194010E94E4C12CEE31E583
:103C200048E35EE30E9401C720E030E040E85FE344
:103C30000E9406C60E947AC7462EF70126A537A520
:103C400040A951A9307E842D90E0B0E0A0E0BA2FC9
:103C5000A92F982F882788279F71AA27BB27282B51
:103C6000392B4A2B5B2B26A737A740AB51AB60E91A
:103C7000C7010E942B1D642D70E090E080E00E943F
:103C800085C120E030E040E05FE30E94E4C10E9493
:103C90007AC76F71F70126A537A540A951A9207EE3
:103CA000262B26A737A740AB51AB60E9C7010E947E
:103CB0002B1DF701E55BFF4F318220822C960FB65A
:103CC000F894DEBF0FBECDBFDF91CF911F910F9152
:103CD000FF90EF90DF90CF90BF90AF909F908F902C
:103CE0007F906F905F904F903F902F900895F701D5
:103CF000E65BFF4F808181114BC119861A861B86B6
:103D00001C8685E089878CE68B8763E0CE01099667
:103D10000E9473158C87F7018589882309F475C083
:103D2000838994890E94C017D70116966D907C9064
:103D3000179753968D909C90D401ED91FC9100843F
:103D4000F185E02DC4011995181619064CF4D4011B
:103D5000ED91FC910284F385E02DC4011995ECCF1F
:103D6000FE0139965F016E01FDE0CF0ED11CD50139
:103D70006D915D01D401ED91FC910190F081E02DF8
:103D8000C4011995CA14DB0491F704E010E0D401D2
:103D9000ED91FC910284F385E02DC4011995015049
:103DA0001109A9F7B30190E080E00E94F81C10E02F
:103DB000712CA12CB12CC12CD12C512C612CD401F3
:103DC000ED91FC910084F185E02DC4011995181640
:103DD00019060CF086C0D401ED91FC910284F385A4
:103DE000E02DC4011995E82F212F372DA501B6012B
:103DF000852D962D08E00E9455C91E2F122B732E7B
:103E00005A016B01582E692EDACF6680778081883F
:103E10009288D401ED91FC910084F185E02DC401DC
:103E20001995181619064CF4D401ED91FC910284F1
:103E3000F385E02DC4011995ECCFFE0139965F01A1
:103E40006E01FDE0CF0ED11CD5016D915D01D40155
:103E5000ED91FC910190F081E02DC4011995CA14F7
:103E6000DB0491F704E010E0D401ED91FC910284B1
:103E7000F385E02DC401199501501109A9F7B3018B
:103E800090E080E00E94F81C10E0712CA12CB12C75
:103E9000C12CD12C512C612CD401ED91FC910084CA
:103EA000F185E02DC401199518161906D4F4D40132
:103EB000ED91FC910284F385E02DC4011995E82F62
:103EC000212F372DA501B601852D962D08E00E94E2
:103ED00055C91E2F122B732E5A016B01582E692EB5
:103EE000DBCF212F372DA501B601852D962D08E3B7
:103EF0000E9470C92983212F372DA501B601852D78
:103F0000962D00E30E9470C92A83212F372DA50129
:103F1000B601852D962D08E20E9470C92B83212FB2
:103F2000372DA501B601852D962D00E20E9470C99E
:103F30002C83212F372DA501B601852D962D08E163
:103F40000E9470C92D83212F372DA501B601852D23
:103F5000962D00E10E9470C92E83212F372DA501D7
:103F6000B601852D962D08E00E9470C9022FB32E50
:103F70006A012F83188767E0CE0101960E947315AE
:103F8000181306C0F701FE960083B182C282D38265
:103F9000F701FE9680819181A281B381A1FF4DCE70
:103FA0009C01AD014D7F20833183428353836CEEAE
:103FB000C7010E942B1D41CE0F931F93CF93DF9318
:103FC000EC012E893F89488D598D20642E8B3F8BC3
:103FD000488F598F60E80E942B1D2E893F89488D9C
:103FE000598D20682E8B3F8B488F598F60E8CE010A
:103FF0000E942B1D2E893F89488D598D2E7F2E8B37
:104000003F8B488F598F60E8CE010E942B1D60E2E4
:1040100073E0CE010E949E1D8E01025C1F4FF801CD
:104020002081318142815381507F546020833183CC
:10403000428353836CEECE010E942B1DF801208138
:104040003181428153813F774E7F306820833183B5
:10405000428353836CEECE010E942B1DF801208118
:10406000318142815381207F2560208331834283C7
:1040700053836CEECE010E942B1DF801208131810B
:1040800042815381506120833183428353836CEE9C
:10409000CE010E942B1D80E890E0A0E0B0E08AAB4A
:1040A0009BABACABBDAB20E830E040E050E061E959
:1040B000CE010E942B1DF801208131814281538164
:1040C0002F78206220833183428353836CEECE01AC
:1040D0000E942B1DF80120813181428153812F776D
:1040E000387F2068326020833183428353836CEEB3
:1040F000CE010E942B1D0C5F1F4FF80120813181E2
:10410000428153815F70506C20833183428353839B
:1041100060EFCE010E942B1DF80120813181428188
:104120005381507F5860208331834283538360EFF3
:10413000CE010E942B1DF8012081318142815381E3
:104140004860208331834283538360EFCE010E9415
:104150002B1DF801208131814281538144602083ED
:1041600031834283538360EFCE010E942B1DF801FF
:1041700020813181428153814C7F41602083318392
:104180004283538360EFCE010E942B1DF8012081F2
:1041900031814281538133273E60208331834283C2
:1041A000538360EFCE010E942B1DF80120813181E5
:1041B00042815381222724622083318342835383A7
:1041C00060EFCE010E942B1D2E893F89488D598DAD
:1041D0002B7F2E8B3F8B488F598F60E8CE010E943A
:1041E0002B1D87E090E0A0E0B0E08A8F9B8FAC8F22
:1041F000BD8F27E030E040E050E061E8CE010E9452
:104200002B1D68EC70E080E090E0DF91CF911F9172
:104210000F910C94F81C2FB7F89460917B0F70915C
:104220007C0F80917D0F90917E0F2FBF08951F927C
:104230000F920FB60F9211242F933F938F939F935A
:10424000AF93BF9380917B0F90917C0FA0917D0FD6
:10425000B0917E0F30917A0F23E0230F2D3758F560
:104260000196A11DB11D20937A0F80937B0F90932F
:104270007C0FA0937D0FB0937E0F80917F0F909164
:10428000800FA091810FB091820F0196A11DB11DE9
:1042900080937F0F9093800FA093810FB093820F34
:1042A000BF91AF919F918F913F912F910F900FBE32
:1042B0000F901F90189526E8230F0296A11DB11D9F
:1042C000D2CF1F920F920FB60F9211240BB60F92FE
:1042D0002F933F934F935F936F937F938F939F930E
:1042E000AF93BF93EF93FF93E091780FF091790F25
:1042F000309749F0A685B7858585968D91FF16C0C4
:104300009C918923B1F4FF91EF91BF91AF919F915F
:104310008F917F916F915F914F913F912F910F906E
:104320000BBE0F900FBE0F901F9018959C91892384
:1043300051F7A389B4899C918589809589238C93B1
:10434000868997890197F1F7608D718DA685B7856C
:10435000558538E020E0CB010197F1F7822F90E0FE
:1043600095958795282F4C91452309F02068315069
:1043700091F7868D81FD20958091760F90E00196D2
:104380008F7399273091770F381799F0A091760F96
:10439000B0E0AA5CB04F2C938093760F828D938D02
:1043A0000197F1F7A389B4898C919589892B8C9316
:1043B000AACF868D8160868FF1CFCF93DF93E82FD0
:1043C000EE0FFF0BE65CF04FC591D491FE01849196
:1043D0002196882319F00E945463F8CFDF91CF9182
:1043E0000895CF93DF930E94DD21CCE7DFE0FE014B
:1043F00084912196882319F00E945463F8CFDF91AD
:10440000CF9108951F93CF93DF93162F0E94DD2144
:10441000CBE5DFE0FE0184912196882319F00E940C
:104420005463F8CFC5E5DFE0112311F0C0E5DFE00C
:10443000FE0184912196882319F00E945463F8CFDD
:104440008AE0DF91CF911F910C9454638F929F92D9
:10445000AF92BF92CF92DF92EF92FF920F931F9392
:10446000CF93DF93DC0170E0FB01EE0FFF1FE45AF6
:10447000FD4F20813181665A7D4FFB019081D92EFD
:1044800080E0E82EF12CB7016D0D711D75956795D3
:10449000681711F0D61222C0492F4150550BFA016E
:1044A000EE0FFF1FEE0FFF1F3296E20FF31F659115
:1044B0007491072E000C880B990B0E9485C1DF9127
:1044C000CF911F910F91FF90EF90DF90CF90BF9011
:1044D000AF909F908F900895D62ED5CFAB014150CD
:1044E0005109440F551F440F551FF901E40FF51FE3
:1044F00005911491FA013496E20FF31FC591D491FE
:10450000A017B1074CF3862FCA17DB070CF4B9CFFD
:10451000FA013296E20FF31FE590F490FA01369615
:10452000E20FF31FC590D490BD01601B710B072EE5
:10453000000C880B990B0E9485C14B015C01B601F0
:104540006E197F09072E000C880B990B0E9485C1FC
:104550009B01AC01C501B4010E94E4C14B015C01A7
:10456000BE01601B710B072E000C880B990B0E947B
:1045700085C19B01AC01C501B4010E9401C74B017B
:104580005C01B701FF0C880B990B0E9485C19B0150
:10459000AC01C501B4010E9407C691CF0F930FB7BC
:1045A0000F9300916E000B7F00936E0078940F9331
:1045B0000BB70F930CB70F921F922F933F934F930C
:1045C0005F936F937F938F939F93AF93BF93EF937B
:1045D000FF9311240E94F039FF91EF91BF91AF91A9
:1045E0009F918F917F916F915F914F913F912F910B
:1045F0001F900F900CBF0F910BBF0F910460F894A8
:1046000000936E000F910FBF0F9118956091F30901
:104610007091F40966507109072E000C880B990BF4
:104620000E9485C120919B0930919C0940919D0970
:1046300050919E090E9467C8181614F40C940B211F
:104640000895CF93DF93C82FD0E0FE01EE0FFF1F38
:10465000E651F64F6081718167507109072E000C99
:10466000880B990B0E9485C1CC0FDD1FCC0FDD1F7D
:10467000C156D64F288139814A815B810E9467C823
:10468000181624F4DF91CF910C940B21DF91CF9178
:1046900008958F929F92AF92BF92CF92DF92EF9246
:1046A000FF920F931F93CF93DF93BCE1A0E06A2F9B
:1046B00070E0AB014B0F511D55954795A41711F0B4
:1046C000B41319C0E3EAFEE065917491072E000C63
:1046D000880B990B0E9485C1DF91CF911F910F919B
:1046E000FF90EF90DF90CF90BF90AF909F908F9012
:1046F0000895B42FDECF9A0121503109220F331FC4
:10470000220F331FF901EB5CF14FE590F490F901B2
:10471000E75CF14FC591D4918E159F0554F3A42FFA
:10472000C817D9070CF4C3CFF901E95CF14F059123
:104730001491F901E55CF14FC590D490BC016E195C
:104740007F09072E000C880B990B0E9485C14B0135
:104750005C01B601601B710B072E000C880B990BD6
:104760000E9485C19B01AC01C501B4010E94E4C156
:104770004B015C01BE016E197F09072E000C880BEE
:10478000990B0E9485C19B01AC01C501B4010E9437
:1047900001C76B017C01B801110F880B990B0E94B6
:1047A00085C19B01AC01C701B6010E9407C694CF29
:1047B0000F931F938091E909813019F50E940B2115
:1047C0000091E90E1091EA0E2091EB0E3091EC0E63
:1047D000601B710B820B930B28EE33E040E050E03E
:1047E0000E94A3C56091E50E7091E60E8091E70EE0
:1047F0009091E80E620F731F841F951F1F910F91F8
:1048000008956091830F7091840F8091850F90912E
:10481000860FD6CF1092E9091092E90E1092EA0E97
:104820001092EB0E1092EC0E1092830F1092840FE8
:104830001092850F1092860F1092E50E1092E60EE0
:104840001092E70E1092E80E089584EC9DE00E940D
:10485000DC1F87E79DE00E94DC1F8AE29DE00E944A
:10486000DC1F8DED9CE00E94DC1F80E99CE00C9435
:10487000DC1F0F931F93CF93DF93C82F80916F009E
:10488000D82FD27081FF05C080916F008D7F8093FB
:104890006F006091CD097091CE098091CF09909100
:1048A000D0090091D1091091D2092091D3093091FA
:1048B000D409C13039F5601B710B820B930B0E9438
:1048C00085C120E030E040E05FE30E94E4C10E9447
:1048D00073C724E0C29FF0011124EA58F64F6083A9
:1048E00071838283938381E080937509DD2329F0AE
:1048F00080916F00826080936F00DF91CF911F9154
:104900000F910895600F711F821F931FD8CF909150
:104910006F00292F227091FF05C090916F009D7F3D
:1049200090936F0094E0899FF0011124E353F64FB8
:104930006081718182819381222329F020916F000F
:10494000226020936F0008950F930FB70F9300918B
:104950006E000F930B7F00936E0000916F000D7F30
:1049600000936F000F930BB70F930CB70F921F922A
:104970002F933F934F935F936F937F938F939F9367
:10498000AF93BF93EF93FF9311240E942425FF91CF
:10499000EF91BF91AF919F918F917F916F915F91B7
:1049A0004F913F912F911F900F900CBF0F910BBF14
:1049B0000F910260F89400936F000F9100936E00C6
:1049C0000F910FBF0F91189580916F0980FF26C03E
:1049D000899A8FEF80939C0E80916F0981FF21C08F
:1049E0008F9A8FEF80939D0E80916F0982FF1CC07C
:1049F00080910B0180958270809309018FEF8093E5
:104A00009E0E8091A00E90916F0993FF16C08111A8
:104A100012C016988FEF80939F0E0895899881E0B9
:104A2000D9CF8F9881E0DECF80910B018270809387
:104A3000090181E0E4CF439AEDCF811103C0169ABA
:104A400081E0E9CF4398FCCF2F923F924F925F9243
:104A50006F927F928F929F92AF92BF92CF92DF928E
:104A6000EF92FF920F931F93CF93DF93CDB7DEB7F3
:104A700061970FB6F894DEBF0FBECDBFF8948FEFED
:104A80009FEF90938900809388000AE00983912C1E
:104A9000812C4CE3A42E4CE0B42E78948091DF0E50
:104AA0009091E00EA091E10EB091E20E892B8A2B3D
:104AB0008B2B09F0DAC1809175098823D1F08091A0
:104AC000E30E9091E40E10927509892B91F01092EB
:104AD00074091092E40E1092E30E9091140E8091DE
:104AE000150E981731F08091150E8F5F8F7080939F
:104AF000150E8091E30E9091E40E892B09F4B5C157
:104B00004091DB0E5091DC0E6091DD0E7091DE0E57
:104B10008091D70E9091D80EA091D90EB091DA0E57
:104B20000091CE0E10E030E020E0841B950BA60B28
:104B3000B70B081719072A073B0710F4D901C8015A
:104B4000E82F840F951FA61FB71F8093DB0E90934D
:104B5000DC0EA093DD0EB093DE0E80918400909168
:104B600085004C964091B50E5091B60E6091B70EEF
:104B70007091B80E0091A50E1091A60E2091A70E6F
:104B80003091A80E400F511F621F731F4093B50E46
:104B90005093B60E6093B70E7093B80E77FD1CC09D
:104BA000889A0091CD091091CE092091CF093091BA
:104BB000D00940919C0E042E000C550B660B770B10
:104BC000400F511F621F731F4093CD095093CE09B0
:104BD0006093CF097093D0094091B90E5091BA0EED
:104BE0006091BB0E7091BC0E0091A90E1091AA0E9F
:104BF0002091AB0E3091AC0E400F511F621F731FFE
:104C00004093B90E5093BA0E6093BB0E7093BC0ED6
:104C100077FD1CC08E9A0091D1091091D209209184
:104C2000D3093091D40940919D0E042E000C550BF0
:104C3000660B770B400F511F621F731F4093D10902
:104C40005093D2096093D3097093D4094091BD0E5B
:104C50005091BE0E6091BF0E7091C00E0091AD0ECE
:104C60001091AE0E2091AF0E3091B00E400F511F3B
:104C7000621F731F4093BD0E5093BE0E6093BF0E14
:104C80007093C00E77FD21C020910B0120952870F4
:104C9000209309010091D5091091D6092091D709D7
:104CA0003091D80940919E0E042E000C550B660BD6
:104CB000770B400F511F621F731F4093D50950930C
:104CC000D6096093D7097093D8094091C10E5091CD
:104CD000C20E6091C30E7091C40E0091B10E10917E
:104CE000B20E2091B30E3091B40E400F511F621FCF
:104CF000731F4093C10E5093C20E6093C30E709306
:104D0000C40E77FD20C02091A00E2111AAC0149AD4
:104D10000091D9091091DA092091DB093091DC0961
:104D200040919F0E042E000C550B660B770B400F25
:104D3000511F621F731F4093D9095093DA09609382
:104D4000DB097093DC094091B50E5091B60E60916D
:104D5000B70E7091B80E77FD15C00091A10E10919D
:104D6000A20E2091A30E3091A40E401B510B620B9A
:104D7000730B4093B50E5093B60E6093B70E7093BD
:104D8000B80E88984091B90E5091BA0E6091BB0E42
:104D90007091BC0E77FD15C00091A10E1091A20E6E
:104DA0002091A30E3091A40E401B510B620B730B8C
:104DB0004093B90E5093BA0E6093BB0E7093BC0E25
:104DC0008E984091BD0E5091BE0E6091BF0E7091B5
:104DD000C00E77FD19C00091A10E1091A20E209176
:104DE000A30E3091A40E401B510B620B730B40932A
:104DF000BD0E5093BE0E6093BF0E7093C00E2091F7
:104E00000B012870209309014091C10E5091C20EF0
:104E10006091C30E7091C40E77FD19C00091A10E70
:104E20001091A20E2091A30E3091A40E401B510BA5
:104E3000620B730B4093C10E5093C20E6093C30E6E
:104E40007093C40E2091A00E21110DC01498E15052
:104E500061F0209184003091850028173907C8F34C
:104E600081CE419A55CF4198F2CF8091DF0E90913B
:104E7000E00EA091E10EB091E20E892B8A2B8B2BD4
:104E800011F00C94422E8091E30E9091E40E998BD8
:104E9000888B892B11F40C94B92E8091DB0E9091A4
:104EA000DC0EA091DD0EB091DE0E4091D70E509138
:104EB000D80E6091D90E7091DA0E84179507A60767
:104EC000B70708F47BC0109274091092E40E109298
:104ED000E30E9091140E8091150E981711F40C9416
:104EE000B92E8091150E8F5F8F708093150E30ED67
:104EF000C32E37E0D32EE12CF12C8091E30E90915C
:104F0000E40E892B11F00C943A2E0E945A189093BB
:104F1000E40E8093E30E892B11F40C943A2EE09169
:104F2000E30EF091E40E808183FF3AC5858996896E
:104F3000A789B08D418D528D638D748D8C019D013B
:104F4000040F151F261F371F0093CD091093CE099C
:104F50002093CF093093D009841B950BA60BB70B78
:104F60008093D1099093D209A093D309B093D40927
:104F7000858D968DA78DB0A18093D5099093D60984
:104F8000A093D709B093D80981A192A1A3A1B4A1FC
:104F90008093D9099093DA09A093DB09B093DC09D7
:104FA0009091140E8091150E981709F4AECF809150
:104FB000150E8F5F8F708093150EA7CF4091D30E83
:104FC0005091D40E6091D50E7091D60E48175907A6
:104FD0006A077B0708F410C24091CF0E5091D00EA3
:104FE0006091D10E7091D20EE889F98986A997A9AE
:104FF000A0ADB1AD481759076A077B0708F0D0C1CB
:10500000411551056105710509F065C040907009B1
:1050100050907109609072097090730980E29CE071
:10502000A1E0FC0105911591259134910415150518
:105030002605370548F47694679457944794AA0F49
:105040000496A816B90669F7A093CE0EB0E24B16E7
:1050500051046104710428F480E2482E512C612C23
:10506000712CE0E24E1A5108610871084114F8E011
:105070005F066104710408F49CC104E0509EC00105
:105080001124805E974FFC01329625913491B42D06
:10509000AA27B39FF001B29FE10DFA1F0694EA1F01
:1050A000FA1F11242F01712C612CFC01C590D490A2
:1050B000F12CE12CC418D508E608F7084C0D5D1D4D
:1050C0006E1D7F1D4093CF0E5093D00E6093D10E76
:1050D0007093D20E12CF10E0942F452E862FBC81F4
:1050E000AD81FE81EF8138852985FA800B81E091C1
:1050F0006B09E99FA12DFF2730916C09399FA00D05
:10510000F11D10906D09199EF00DE49DA00DF11D8B
:10511000349DF00DE89FF00D0A2FBF2F0A9FE12D5F
:10512000332722270F9FE00D311D211FBA9FE00D6D
:10513000311D211FBF9F300D211D032FB22F0A9F4C
:10514000F12C332722270F9FF00C311D211FBA9F0E
:10515000F00C311D211FBF9F300D211D032FB22FD9
:10516000EE2790917009409071098091720900902A
:10517000E00F012A09F484C03091DC0F309FE1195F
:10518000910B410A810B2091DD0F209FE0199109BD
:10519000410A810BF090DE0FF09E90194108810BBF
:1051A0003B9FE0199109410A810B2B9F90194108FF
:1051B000810BFB9E401881090A9FF12C332722277F
:1051C0000F9FF00C311D211FBA9FF00C311D211FC4
:1051D000BF9F300D211D032FB22F3091D80F309F6C
:1051E000E10D911F411E811F2091D90F209FE00DDD
:1051F000911D411E811FF090DA0FF09E900D411C11
:10520000811F3B9FE00D911D411E811F2B9F900D23
:10521000411C811FFB9E400C811D0A9FF12C3327EE
:1052200022270F9FF00C311D211FBA9FF00C311D5A
:10523000211FBF9F300D211D032FB22F3091D40F9E
:10524000309FE119910B410A810B2091D50F209FCE
:10525000E0199109410A810BF090D60FF09E901948
:105260004108810B3B9FE0199109410A810B2B9F5B
:1052700090194108810BFB9E401881090C94C229AA
:105280003091DC0F309FE10D911F411E811F209155
:10529000DD0F209FE00D911D411E811FF090DE0F5C
:1052A000F09E900D411C811F3B9FE00D911D411E02
:1052B000811F2B9F900D411C811FFB9E400C811D67
:1052C0000A9FF12C332722270F9FF00C311D211F3D
:1052D000BA9FF00C311D211FBF9F300D211D032FE0
:1052E000B22F3091D80F309FE119910B410A810BF9
:1052F0002091D90F209FE0199109410A810BF0906C
:10530000DA0FF09E90194108810B3B9FE01991093B
:10531000410A810B2B9F90194108810BFB9E40187D
:1053200081090A9FF12C332722270F9FF00C311D92
:10533000211FBA9FF00C311D211FBF9F300D211D71
:10534000032FB22F3091D40F309FE10D911F411EDA
:10535000811F2091D50F209FE00D911D411E811FBF
:10536000F090D60FF09E900D411C811F3B9FE00DE9
:10537000911D411E811F2B9F900D411C811FFB9E83
:10538000400C811D11240B83FA82BC83AD83FE8304
:10539000EF8338872987542C492E712C682E3ECEF6
:1053A000A889B989D2964D905D906D907C90D597E3
:1053B00035CED301C201B695A795979587958C7F79
:1053C0009C01205E3B4FF90185919491F901329641
:1053D000A591B491E42DE770EA9F9001EB9F300D09
:1053E000112403E0369527950A95E1F7821B930B6C
:1053F0006C01F12CE12C62CE4091CA0E5091CB0E83
:105400006091CC0E7091CD0E481759076A077B0743
:1054100008F032C24090C50E5090C60E6090C70E84
:105420007090C80E8091C90EE889F98981117DC0FC
:10543000EE5BFF4FE080F18002811381E889F989FA
:10544000E15BFF4F2081318142815381A889B98975
:10545000D2966D917D918D919C91D5970E9408185F
:10546000B1E0B093C90EE889F989C2A8D3A8E4A82D
:10547000F5A880E29CE021E0FC0145915591659101
:1054800074914C155D056E057F0548F4F694E7941C
:10549000D794C794220F0496A816B90669F72093EB
:1054A000CE0EB0E2CB16D104E104F10428F4F0E210
:1054B000CF2ED12CE12CF12CE0E2CE1AD108E1085C
:1054C000F108C114F8E0DF06E104F10408F4B1C109
:1054D00004E0D09EC0011124805E974FFC013296FB
:1054E000259134917C2D6627739FA001729F410DF9
:1054F000561F0694461F561F112470E060E0FC0101
:10550000C590D490F12CE12CC41AD50AE60AF70A0A
:105510004C0C5D1C6E1C7F1C4092C50E5092C60E3A
:105520006092C70E7092C80EE8CC82AD93ADA4AD68
:10553000B5AD481659066A067B0608F070C14114DD
:1055400051046104710449F4C0907009D09071094C
:10555000E0907209F09073098CCF70E06A85942D09
:10556000E52C862D5B854C85ED853E852F8520912C
:105570006B09299FE12D332720906C09299EE00DAE
:10558000311D10906D09199E300D2E9DE00D311DBD
:105590002E9C300D289F300D5E2F432F5E9F212DB6
:1055A00022243324539F200D211C371E4E9F200D93
:1055B000211C371E439F200C311C522D432D5E9F12
:1055C000612D22243324539F600D211C371E4E9FD2
:1055D000600D211C371E439F200C311C522D432D82
:1055E000222790917009E0907109809172090090D2
:1055F000E00F072A09F484C02090DC0F259E2119B2
:10560000970BE70A870B3090DD0F359E2019910923
:10561000E70A870B6091DE0F659F9019E108870B01
:10562000249E20199109E70A870B349E9019E108FE
:10563000870B649FE01881095E9F612D222433242B
:10564000539F600D211C371E4E9F600D211C371E7D
:10565000439F200C311C522D432D2090D80F259EA6
:10566000210D971FE71E871F3090D90F359E200D03
:10567000911DE71E871F6091DA0F659F900DE11C59
:10568000871F249E200D911DE71E871F349E900DBD
:10569000E11C871F649FE00C811D5E9F612D222409
:1056A0003324539F600D211C371E4E9F600D211C1B
:1056B000371E439F200C311C522D432D2090D40FB8
:1056C000259E2119970BE70A870B3090D50F359E41
:1056D00020199109E70A870B6091D60F659F9019F1
:1056E000E108870B249E20199109E70A870B349E55
:1056F0009019E108870B649FE01881090C94022C33
:105700002090DC0F259E210D971FE71E871F3090EC
:10571000DD0F359E200D911DE71E871F6091DE0F66
:10572000659F900DE11C871F249E200D911DE71E93
:10573000871F349E900DE11C871F649FE00C811D24
:105740005E9F612D22243324539F600D211C371E40
:105750004E9F600D211C371E439F200C311C522D83
:10576000432D2090D80F259E2119970BE70A870B10
:105770003090D90F359E20199109E70A870B609167
:10578000DA0F659F9019E108870B249E2019910973
:10579000E70A870B349E9019E108870B649FE01895
:1057A00081095E9F612D22243324539F600D211CAB
:1057B000371E4E9F600D211C371E439F200C311C4D
:1057C000522D432D2090D40F259E210D971FE71EAB
:1057D000871F3090D50F359E200D911DE71E871F26
:1057E0006091D60F659F900DE11C871F249E200DB0
:1057F000911DE71E871F349E900DE11C871F649F3B
:10580000E00C811D11246A875B874C87ED873E87FA
:105810002F87FE2CE92E6701F12CE82E2ACE8889ED
:105820009989815B9F4FDC01CD90DD90ED90FC90DC
:1058300020CED701C601B695A795979587958C7F01
:105840009C01205E3B4FF90185919491F9013296BC
:1058500045915491AC2DA770A49F9001A59F300D48
:105860001124E3E036952795EA95E1F7821B930B27
:105870006C01F12CE12C4CCE80910D0290910E0226
:10588000A0910F02B0911002B7FF5FC0E889F989BB
:10589000E95BFF4F408051806280738080E29CE032
:1058A00021E0FC0145915591659174914415550590
:1058B0006605770548F47694679457944794220FC9
:1058C0000496A816B90669F72093CE0EF0E24F169B
:1058D00051046104710428F450E2452E512C612CCE
:1058E000712C00E2401A510861087108411428E047
:1058F00052066104710408F431C074E0579EC0017F
:105900001124805E974FFC01329625913491A42D8D
:105910006627A39FA001A29F410D561F0694461F14
:10592000561F112470E060E0FC0185919491B0E075
:10593000A0E0841B950BA60BB70B80930D029093F0
:105940000E02A0930F02B0931002C0900D02D090EF
:105950000E02E0900F02F0901002CFCAD301C201F4
:10596000B695A795979587958C7F805E9B4FFC0198
:1059700025913491FC01329645915491B42DB77024
:10598000B49FC001B59F900D112443E09695879573
:105990004A95E1F7281B390BC901B0E0A0E0CDCF53
:1059A000458956896789708D418C528C638C748CC3
:1059B000DF01AA5BBF4FFC90F88A81E044155505D2
:1059C0006605770509F0AEC180E041155105610516
:1059D000710559F09F2D969591708F2D809581704E
:1059E00089272F2D217092139DC1058D168D278D2E
:1059F00030A1011511052105310509F0846080935E
:105A000074091092C50E1092C60E1092C70E109215
:105A1000C80E1092CF0E1092D00E1092D10E10928E
:105A2000D20E85A196A1A7A1B0A58093D70E909381
:105A3000D80EA093D90EB093DA0ECC24DD247601D3
:105A4000C81AD90AEA0AFB0AC092C10ED092C20E45
:105A5000E092C30EF092C40EC092BD0ED092BE0E64
:105A6000E092BF0EF092C00EC092B90ED092BA0E64
:105A7000E092BB0EF092BC0EC092B50ED092B60E64
:105A8000E092B70EF092B80E440F551F661F771FB5
:105A90004093A50E5093A60E6093A70E7093A80E88
:105AA000440C551C661C771C4092A90E5092AA0EFD
:105AB0006092AB0E7092AC0E000F111F221F331FAD
:105AC0000093AD0E1093AE0E2093AF0E3093B00E38
:105AD00041A152A163A174A1440F551F661F771FF6
